{
  "_format": "hh-sol-artifact-1",
  "contractName": "TokenExchange",
  "sourceName": "contracts/exchange.sol",
  "abi": [
    {
      "inputs": [
        {
          "internalType": "address",
          "name": "_tokenAddr",
          "type": "address"
        }
      ],
      "stateMutability": "nonpayable",
      "type": "constructor"
    },
    {
      "anonymous": false,
      "inputs": [
        {
          "indexed": true,
          "internalType": "address",
          "name": "previousOwner",
          "type": "address"
        },
        {
          "indexed": true,
          "internalType": "address",
          "name": "newOwner",
          "type": "address"
        }
      ],
      "name": "OwnershipTransferred",
      "type": "event"
    },
    {
      "inputs": [
        {
          "internalType": "uint256",
          "name": "max_exchange_rate",
          "type": "uint256"
        },
        {
          "internalType": "uint256",
          "name": "min_exchange_rate",
          "type": "uint256"
        }
      ],
      "name": "addLiquidity",
      "outputs": [],
      "stateMutability": "payable",
      "type": "function"
    },
    {
      "inputs": [
        {
          "internalType": "uint256",
          "name": "amountTokens",
          "type": "uint256"
        }
      ],
      "name": "createPool",
      "outputs": [],
      "stateMutability": "payable",
      "type": "function"
    },
    {
      "inputs": [],
      "name": "exchange_name",
      "outputs": [
        {
          "internalType": "string",
          "name": "",
          "type": "string"
        }
      ],
      "stateMutability": "view",
      "type": "function"
    },
    {
      "inputs": [],
      "name": "getCurrentRate",
      "outputs": [
        {
          "internalType": "uint256",
          "name": "",
          "type": "uint256"
        }
      ],
      "stateMutability": "view",
      "type": "function"
    },
    {
      "inputs": [],
      "name": "getEthReserves",
      "outputs": [
        {
          "internalType": "uint256",
          "name": "",
          "type": "uint256"
        }
      ],
      "stateMutability": "view",
      "type": "function"
    },
    {
      "inputs": [],
      "name": "getSwapFee",
      "outputs": [
        {
          "internalType": "uint256",
          "name": "",
          "type": "uint256"
        },
        {
          "internalType": "uint256",
          "name": "",
          "type": "uint256"
        }
      ],
      "stateMutability": "view",
      "type": "function"
    },
    {
      "inputs": [],
      "name": "getTokenReserves",
      "outputs": [
        {
          "internalType": "uint256",
          "name": "",
          "type": "uint256"
        }
      ],
      "stateMutability": "view",
      "type": "function"
    },
    {
      "inputs": [],
      "name": "owner",
      "outputs": [
        {
          "internalType": "address",
          "name": "",
          "type": "address"
        }
      ],
      "stateMutability": "view",
      "type": "function"
    },
    {
      "inputs": [
        {
          "internalType": "uint256",
          "name": "max_exchange_rate",
          "type": "uint256"
        },
        {
          "internalType": "uint256",
          "name": "min_exchange_rate",
          "type": "uint256"
        }
      ],
      "name": "removeAllLiquidity",
      "outputs": [],
      "stateMutability": "payable",
      "type": "function"
    },
    {
      "inputs": [
        {
          "internalType": "uint256",
          "name": "amountETH",
          "type": "uint256"
        },
        {
          "internalType": "uint256",
          "name": "max_exchange_rate",
          "type": "uint256"
        },
        {
          "internalType": "uint256",
          "name": "min_exchange_rate",
          "type": "uint256"
        }
      ],
      "name": "removeLiquidity",
      "outputs": [],
      "stateMutability": "payable",
      "type": "function"
    },
    {
      "inputs": [],
      "name": "renounceOwnership",
      "outputs": [],
      "stateMutability": "nonpayable",
      "type": "function"
    },
    {
      "inputs": [
        {
          "internalType": "uint256",
          "name": "max_exchange_rate",
          "type": "uint256"
        }
      ],
      "name": "swapETHForTokens",
      "outputs": [],
      "stateMutability": "payable",
      "type": "function"
    },
    {
      "inputs": [
        {
          "internalType": "uint256",
          "name": "amountTokens",
          "type": "uint256"
        },
        {
          "internalType": "uint256",
          "name": "max_exchange_rate",
          "type": "uint256"
        }
      ],
      "name": "swapTokensForETH",
      "outputs": [],
      "stateMutability": "payable",
      "type": "function"
    },
    {
      "inputs": [],
      "name": "token",
      "outputs": [
        {
          "internalType": "contract Token",
          "name": "",
          "type": "address"
        }
      ],
      "stateMutability": "view",
      "type": "function"
    },
    {
      "inputs": [
        {
          "internalType": "address",
          "name": "newOwner",
          "type": "address"
        }
      ],
      "name": "transferOwnership",
      "outputs": [],
      "stateMutability": "nonpayable",
      "type": "function"
    }
  ],
  "bytecode": "0x608060405260405180602001604052806000815250600190816200002491906200045a565b5060006003556000600455600060065560036009556064600a553480156200004b57600080fd5b506040516200524b3803806200524b8339818101604052810190620000719190620005ab565b62000091620000856200011160201b60201c565b6200011960201b60201c565b620000ad674ad7aa47fa1fd2b260c01b620001dd60201b60201c565b620000c967ed899e7f4ca6165960c01b620001dd60201b60201c565b80600260006101000a81548173ffffffffffffffffffffffffffffffffffffffff021916908373ffffffffffffffffffffffffffffffffffffffff16021790555050620005dd565b600033905090565b60008060009054906101000a900473ffffffffffffffffffffffffffffffffffffffff169050816000806101000a81548173ffffffffffffffffffffffffffffffffffffffff021916908373ffffffffffffffffffffffffffffffffffffffff1602179055508173ffffffffffffffffffffffffffffffffffffffff168173ffffffffffffffffffffffffffffffffffffffff167f8be0079c531659141344cd1fd0a4f28419497f9722a3daafe3b4186f6b6457e060405160405180910390a35050565b50565b600081519050919050565b7f4e487b7100000000000000000000000000000000000000000000000000000000600052604160045260246000fd5b7f4e487b7100000000000000000000000000000000000000000000000000000000600052602260045260246000fd5b600060028204905060018216806200026257607f821691505b6020821081036200027857620002776200021a565b5b50919050565b60008190508160005260206000209050919050565b60006020601f8301049050919050565b600082821b905092915050565b600060088302620002e27fffffffffffffffffffffffffffffffffffffffffffffffffffffffffffffffff82620002a3565b620002ee8683620002a3565b95508019841693508086168417925050509392505050565b6000819050919050565b6000819050919050565b60006200033b620003356200032f8462000306565b62000310565b62000306565b9050919050565b6000819050919050565b62000357836200031a565b6200036f620003668262000342565b848454620002b0565b825550505050565b600090565b6200038662000377565b620003938184846200034c565b505050565b5b81811015620003bb57620003af6000826200037c565b60018101905062000399565b5050565b601f8211156200040a57620003d4816200027e565b620003df8462000293565b81016020851015620003ef578190505b62000407620003fe8562000293565b83018262000398565b50505b505050565b600082821c905092915050565b60006200042f600019846008026200040f565b1980831691505092915050565b60006200044a83836200041c565b9150826002028217905092915050565b6200046582620001e0565b67ffffffffffffffff811115620004815762000480620001eb565b5b6200048d825462000249565b6200049a828285620003bf565b600060209050601f831160018114620004d25760008415620004bd578287015190505b620004c985826200043c565b86555062000539565b601f198416620004e2866200027e565b60005b828110156200050c57848901518255600182019150602085019450602081019050620004e5565b868310156200052c578489015162000528601f8916826200041c565b8355505b6001600288020188555050505b505050505050565b600080fd5b600073ffffffffffffffffffffffffffffffffffffffff82169050919050565b6000620005738262000546565b9050919050565b620005858162000566565b81146200059157600080fd5b50565b600081519050620005a5816200057a565b92915050565b600060208284031215620005c457620005c362000541565b5b6000620005d48482850162000594565b91505092915050565b614c5e80620005ed6000396000f3fe6080604052600436106100e85760003560e01c80639cd441da1161008a578063f2fde38b11610059578063f2fde38b14610259578063f694f7d114610282578063f7fb07b0146102ad578063fc0c546a146102d8576100e8565b80639cd441da146101ca578063a22280a6146101e6578063b9cf500514610202578063d4cadf681461022d576100e8565b80638259e6a0116100c65780638259e6a01461013c578063857620e1146101585780638c330969146101745780638da5cb5b1461019f576100e8565b80632eab2841146100ed57806358ad6de414610109578063715018a614610125575b600080fd5b610107600480360381019061010291906139d2565b610303565b005b610123600480360381019061011e91906139ff565b6108d9565b005b34801561013157600080fd5b5061013a6112af565b005b610156600480360381019061015191906139d2565b6112c3565b005b610172600480360381019061016d9190613a3f565b61187c565b005b34801561018057600080fd5b5061018961235e565b6040516101969190613aa1565b60405180910390f35b3480156101ab57600080fd5b506101b46123a4565b6040516101c19190613afd565b60405180910390f35b6101e460048036038101906101df91906139ff565b6123cd565b005b61020060048036038101906101fb91906139ff565b612e7d565b005b34801561020e57600080fd5b5061021761340f565b6040516102249190613aa1565b60405180910390f35b34801561023957600080fd5b50610242613455565b604051610250929190613b18565b60405180910390f35b34801561026557600080fd5b50610280600480360381019061027b9190613b6d565b6134a2565b005b34801561028e57600080fd5b50610297613525565b6040516102a49190613c2a565b60405180910390f35b3480156102b957600080fd5b506102c26135b3565b6040516102cf9190613aa1565b60405180910390f35b3480156102e457600080fd5b506102ed613647565b6040516102fa9190613cab565b60405180910390f35b610317676e17b75be81f847c60c01b61366d565b61032b679601d4d0678f491260c01b61366d565b61033f67a6974acf39b9287a60c01b61366d565b6103536760bded62e2d5451e60c01b61366d565b60003411610396576040517f08c379a000000000000000000000000000000000000000000000000000000000815260040161038d90613d12565b60405180910390fd5b6103aa67324ca968d34f60fd60c01b61366d565b6103be678fe8ae996d7e908160c01b61366d565b6103d267e510b5d5e3cc34de60c01b61366d565b60003490506103eb6723d8962cf120dab860c01b61366d565b6103ff672190c5d620cc3db960c01b61366d565b6000600a54600954836104129190613d61565b61041c9190613dd2565b9050610432671fd25352a0d9153d60c01b61366d565b610446679e848b676a6997db60c01b61366d565b600081836104549190613e03565b905061046a67665ac6524405afc060c01b61366d565b61047e6765a87867ead8019a60c01b61366d565b60008160045461048e9190613e37565b90506104a467fe5e1b5c0caf51e960c01b61366d565b6104b867f9d2b142e9faa5ea60c01b61366d565b600081600b546104c89190613dd2565b90506104de67d5d5f33cd674007b60c01b61366d565b6104f2671dd5f47827cdb69b60c01b61366d565b6000816003546105029190613e03565b9050610518671a9b3d5f0698d5a460c01b61366d565b61052c672b1aa055b8d209ea60c01b61366d565b61054067250200d3a1e3a1d160c01b61366d565b600160035461054f9190613e03565b8110610590576040517f08c379a000000000000000000000000000000000000000000000000000000000815260040161058790613eb7565b60405180910390fd5b6105a467e24c74eeb989675260c01b61366d565b6105b8673fcc2a0d31f0759860c01b61366d565b6105cc67104b53e555c06a1060c01b61366d565b6105e0677749e1aaeeb9c13c60c01b61366d565b8686670de0b6b3a7640000836105f69190613d61565b6106009190613dd2565b1115610641576040517f08c379a000000000000000000000000000000000000000000000000000000000815260040161063890613f23565b60405180910390fd5b61065567103cb6ac03f719a760c01b61366d565b6106696791894d3f4c3a4ccf60c01b61366d565b61067d67b3b67bb72057ccf360c01b61366d565b610691672c3ca41bb2fb5a3560c01b61366d565b80600260009054906101000a900473ffffffffffffffffffffffffffffffffffffffff1673ffffffffffffffffffffffffffffffffffffffff166370a08231306040518263ffffffff1660e01b81526004016106ed9190613afd565b602060405180830381865afa15801561070a573d6000803e3d6000fd5b505050506040513d601f19601f8201168201806040525081019061072e9190613f58565b101561076f576040517f08c379a000000000000000000000000000000000000000000000000000000000815260040161076690613fd1565b60405180910390fd5b61078367975e2191cb9c999660c01b61366d565b6107976733fbd88f79a02a4360c01b61366d565b83600460008282546107a99190613e37565b925050819055506107c467aa80e0f87b27cf1160c01b61366d565b80600360008282546107d69190613e03565b925050819055506107f16762365b1711defa1860c01b61366d565b6004546003546108019190613d61565b600b8190555061081b677fb1205b9f2ed96060c01b61366d565b61082f679838e86dee449b5560c01b61366d565b600260009054906101000a900473ffffffffffffffffffffffffffffffffffffffff1673ffffffffffffffffffffffffffffffffffffffff1663a9059cbb33836040518363ffffffff1660e01b815260040161088c929190613ff1565b6020604051808303816000875af11580156108ab573d6000803e3d6000fd5b505050506040513d601f19601f820116820180604052508101906108cf9190614052565b5050505050505050565b6108ed67e900820315766b6f60c01b61366d565b61090167f1c3ccaaba6ad9f060c01b61366d565b610915678864ae8269c52a3960c01b61366d565b61092967255b6ff7bf1e775d60c01b61366d565b600060035411801561093d57506000600454115b61097c576040517f08c379a0000000000000000000000000000000000000000000000000000000008152600401610973906140cb565b60405180910390fd5b61099067dc25b10580a3b47c60c01b61366d565b6109a467a8ed0855c95b2d3160c01b61366d565b6109b86758839e31c612657960c01b61366d565b6109cc6760ca033ec1bdfd9260c01b61366d565b6000600560003373ffffffffffffffffffffffffffffffffffffffff1673ffffffffffffffffffffffffffffffffffffffff1681526020019081526020016000205411610a4e576040517f08c379a0000000000000000000000000000000000000000000000000000000008152600401610a4590614137565b60405180910390fd5b610a62679b7b73806e26c7be60c01b61366d565b610a7667f345b9d6e799455160c01b61366d565b610a8a673a1e6bcd35b9383960c01b61366d565b6000600454670de0b6b3a7640000600354610aa59190613d61565b610aaf9190613dd2565b9050610ac5675db06a5bb090b64160c01b61366d565b610ad967a2c2704098fddd0a60c01b61366d565b610aed677f1c0dddfd8eba0360c01b61366d565b818110158015610afd5750828111155b610b3c576040517f08c379a0000000000000000000000000000000000000000000000000000000008152600401610b33906141a3565b60405180910390fd5b610b5067f982b4384368cead60c01b61366d565b610b64678e3825ff98000de060c01b61366d565b610b786718386c06111fee8660c01b61366d565b6000600560003373ffffffffffffffffffffffffffffffffffffffff1673ffffffffffffffffffffffffffffffffffffffff168152602001908152602001600020549050610bd0674f4a4a4169e3fa0060c01b61366d565b610be46721a5c506b82173b260c01b61366d565b600060045460035483610bf79190613d61565b610c019190613dd2565b9050610c17679c376b6c3df042b660c01b61366d565b610c2b677889e896f4a4ec2660c01b61366d565b6000600760003373ffffffffffffffffffffffffffffffffffffffff1673ffffffffffffffffffffffffffffffffffffffff168152602001908152602001600020549050610c8367ff3cc62ac47bc2dd60c01b61366d565b610c9767eb8931048b3cc19b60c01b61366d565b610cab67e935eccdd8e5bf6c60c01b61366d565b826004541015610cf0576040517f08c379a0000000000000000000000000000000000000000000000000000000008152600401610ce79061420f565b60405180910390fd5b610d04674dacfa9be23d344f60c01b61366d565b610d18675fa4010d24f5732860c01b61366d565b610d2c6706bbd2cd6aa9133c60c01b61366d565b610d4067f3feaf76c80af2a560c01b61366d565b816003541015610d85576040517f08c379a0000000000000000000000000000000000000000000000000000000008152600401610d7c9061427b565b60405180910390fd5b610d996749fb788d7b5ef0ec60c01b61366d565b610dad6713d37f6b2fd6538f60c01b61366d565b6000600760003373ffffffffffffffffffffffffffffffffffffffff1673ffffffffffffffffffffffffffffffffffffffff16815260200190815260200160002081905550610e06675e2611f1fda147b060c01b61366d565b8060066000828254610e189190613e03565b92505081905550610e33677953c2a939a916bf60c01b61366d565b6000600560003373ffffffffffffffffffffffffffffffffffffffff1673ffffffffffffffffffffffffffffffffffffffff16815260200190815260200160002081905550610e8c67e189e963213a8b4260c01b61366d565b8260046000828254610e9e9190613e03565b92505081905550610eb967f9878b5f3e33d53960c01b61366d565b8160036000828254610ecb9190613e03565b92505081905550610ee6671be771addf7404c560c01b61366d565b600454600354610ef69190613d61565b600b81905550610f106738f0ec71e082f7c960c01b61366d565b610f246732beb04be3cd89bb60c01b61366d565b610f38672aeed77123c07d2660c01b61366d565b600260009054906101000a900473ffffffffffffffffffffffffffffffffffffffff1673ffffffffffffffffffffffffffffffffffffffff1663a9059cbb33846040518363ffffffff1660e01b8152600401610f95929190613ff1565b6020604051808303816000875af1158015610fb4573d6000803e3d6000fd5b505050506040513d601f19601f82011682018060405250810190610fd89190614052565b611017576040517f08c379a000000000000000000000000000000000000000000000000000000000815260040161100e906142e7565b60405180910390fd5b61102b67abb45399b795ae3760c01b61366d565b61103f67e822ed6ddefbf0f360c01b61366d565b611053676a6c023c2b8e4ec660c01b61366d565b60003373ffffffffffffffffffffffffffffffffffffffff168460405161107990614338565b60006040518083038185875af1925050503d80600081146110b6576040519150601f19603f3d011682016040523d82523d6000602084013e6110bb565b606091505b505090506110d367974eeaea9924d2f960c01b61366d565b6110e767907679f0c99f8fb460c01b61366d565b6110fb670e726e4e69c82bf360c01b61366d565b8061113b576040517f08c379a000000000000000000000000000000000000000000000000000000000815260040161113290614399565b60405180910390fd5b61114f678a9e34697857023360c01b61366d565b611163671817ca35c509de3b60c01b61366d565b611177671452dd7865d1427060c01b61366d565b60005b6008805490508110156112a55761119b67649f4271674c5e4760c01b61366d565b6111af67475b6a3b2504e87b60c01b61366d565b3373ffffffffffffffffffffffffffffffffffffffff16600882815481106111da576111d96143b9565b5b9060005260206000200160009054906101000a900473ffffffffffffffffffffffffffffffffffffffff1673ffffffffffffffffffffffffffffffffffffffff160361127e5761123467c930798d135e810160c01b61366d565b611248674de585eeb070a82860c01b61366d565b61125c6795c449cbdf3d9aef60c01b61366d565b61126581613670565b61127967af74b5efdfc3de6560c01b61366d565b6112a5565b61129267350168ff4db45c1f60c01b61366d565b808061129d906143e8565b91505061117a565b5050505050505050565b6112b761384d565b6112c160006138cb565b565b6112d767a61c3313686dafea60c01b61366d565b6112df61384d565b6112f367fecd92f87f286cec60c01b61366d565b6113076749457cb9a110e00560c01b61366d565b61131b67b7aa2ad3f0c55a3660c01b61366d565b61132f67fbc8df0d230857e860c01b61366d565b611343672fda8d16e9c0ce4360c01b61366d565b600060035414611388576040517f08c379a000000000000000000000000000000000000000000000000000000000815260040161137f9061447c565b60405180910390fd5b61139c6760b8334d7a5351ee60c01b61366d565b6113b0678d3716370a9b001060c01b61366d565b6113c46732f78ee4b24635dd60c01b61366d565b6113d8676713a75608c87e1560c01b61366d565b60006004541461141d576040517f08c379a0000000000000000000000000000000000000000000000000000000008152600401611414906144e8565b60405180910390fd5b611431678d506bd5e4ae12b860c01b61366d565b61144567fcde67728356e27960c01b61366d565b61145967e7c27cf463d5b5a360c01b61366d565b61146d67e4c76fcfc578829a60c01b61366d565b600034116114b0576040517f08c379a00000000000000000000000000000000000000000000000000000000081526004016114a790614554565b60405180910390fd5b6114c467c9671463d8b9f80f60c01b61366d565b6114d867887261e5daaf2cc860c01b61366d565b6114ec675b92322889e3568a60c01b61366d565b6000600260009054906101000a900473ffffffffffffffffffffffffffffffffffffffff1673ffffffffffffffffffffffffffffffffffffffff166370a08231336040518263ffffffff1660e01b81526004016115499190613afd565b602060405180830381865afa158015611566573d6000803e3d6000fd5b505050506040513d601f19601f8201168201806040525081019061158a9190613f58565b90506115a0677dc3af3eceac180060c01b61366d565b6115b46748062ca1803eefa960c01b61366d565b6115c8672ddd756d3ddf199160c01b61366d565b8082111561160b576040517f08c379a0000000000000000000000000000000000000000000000000000000008152600401611602906145e6565b60405180910390fd5b61161f677271938e6dfcdff860c01b61366d565b61163367586478308913e62060c01b61366d565b6116476728940982977496e460c01b61366d565b61165b67da9539b8afa3f15c60c01b61366d565b6000821161169e576040517f08c379a000000000000000000000000000000000000000000000000000000000815260040161169590614652565b60405180910390fd5b6116b26746681f9e3e54f17960c01b61366d565b6116c667336033c9dcc2cb1860c01b61366d565b6116da67a606f42028181d5c60c01b61366d565b600260009054906101000a900473ffffffffffffffffffffffffffffffffffffffff1673ffffffffffffffffffffffffffffffffffffffff166323b872dd3330856040518463ffffffff1660e01b815260040161173993929190614672565b6020604051808303816000875af1158015611758573d6000803e3d6000fd5b505050506040513d601f19601f8201168201806040525081019061177c9190614052565b5061179167bc65fe723235ae6460c01b61366d565b600260009054906101000a900473ffffffffffffffffffffffffffffffffffffffff1673ffffffffffffffffffffffffffffffffffffffff166370a08231306040518263ffffffff1660e01b81526004016117ec9190613afd565b602060405180830381865afa158015611809573d6000803e3d6000fd5b505050506040513d601f19601f8201168201806040525081019061182d9190613f58565b600381905550611847676b0f367dac0df14360c01b61366d565b34600481905550611862673a09af723c1f7fe060c01b61366d565b6004546003546118729190613d61565b600b819055505050565b611890673be739aae9e964e260c01b61366d565b6118a46764e48e8c2ce6b76f60c01b61366d565b6118b8673edbec1951b3441360c01b61366d565b6118cc67bdf520963ac2b6ab60c01b61366d565b60006003541180156118e057506000600454115b61191f576040517f08c379a0000000000000000000000000000000000000000000000000000000008152600401611916906140cb565b60405180910390fd5b61193367c96f991256eac4bb60c01b61366d565b611947678ed968d5f45d875960c01b61366d565b61195b6793923df838b5949860c01b61366d565b61196f67105068ce460cc2a860c01b61366d565b6000831180156119be5750600560003373ffffffffffffffffffffffffffffffffffffffff1673ffffffffffffffffffffffffffffffffffffffff168152602001908152602001600020548311155b6119fd576040517f08c379a00000000000000000000000000000000000000000000000000000000081526004016119f4906146f5565b60405180910390fd5b611a11676254fabe1cf14ea260c01b61366d565b611a25675b5823ace1648a1260c01b61366d565b611a39678b91fe99f8dcb7ea60c01b61366d565b6000600454670de0b6b3a7640000600354611a549190613d61565b611a5e9190613dd2565b9050611a7467cffb401d3d94369d60c01b61366d565b611a8867e0935bec2979265e60c01b61366d565b611a9c677b614c13fd1ecbd560c01b61366d565b818110158015611aac5750828111155b611aeb576040517f08c379a0000000000000000000000000000000000000000000000000000000008152600401611ae2906141a3565b60405180910390fd5b611aff678086bf7d7954902760c01b61366d565b611b1367bcf956fa12d45ea960c01b61366d565b611b2767dfadd6586f275d3760c01b61366d565b600060045460035486611b3a9190613d61565b611b449190613dd2565b9050611b5a678e602cfbfab3d92e60c01b61366d565b611b6e6705106aa8681e130360c01b61366d565b600060045460065487611b819190613d61565b611b8b9190613dd2565b9050611ba1676c2e6b111002a06f60c01b61366d565b611bb567c803c842273525c960c01b61366d565b611bc96759019555e1d2c5db60c01b61366d565b856004541015611c0e576040517f08c379a0000000000000000000000000000000000000000000000000000000008152600401611c059061420f565b60405180910390fd5b611c22674b3955fa3594daf560c01b61366d565b611c3667cc1f4d2a2e3f248460c01b61366d565b611c4a679bb399f92ee1b24f60c01b61366d565b611c5e670aceb196d0f4fb6860c01b61366d565b816003541015611ca3576040517f08c379a0000000000000000000000000000000000000000000000000000000008152600401611c9a9061427b565b60405180910390fd5b611cb767291135ef0f459c8660c01b61366d565b611ccb678a3ba81687e93c7560c01b61366d565b611cdf67d62c7672a870f67060c01b61366d565b611cf3673bce030bf0576b7860c01b61366d565b600760003373ffffffffffffffffffffffffffffffffffffffff1673ffffffffffffffffffffffffffffffffffffffff16815260200190815260200160002054811115611d75576040517f08c379a0000000000000000000000000000000000000000000000000000000008152600401611d6c90614761565b60405180910390fd5b611d89674dd22268c937936360c01b61366d565b611d9d67d1dcbc9bdd57660460c01b61366d565b80600760003373ffffffffffffffffffffffffffffffffffffffff1673ffffffffffffffffffffffffffffffffffffffff1681526020019081526020016000206000828254611dec9190613e03565b92505081905550611e07672dcf3f133078528960c01b61366d565b8060066000828254611e199190613e03565b92505081905550611e346759b001b2d19f677260c01b61366d565b85600560003373ffffffffffffffffffffffffffffffffffffffff1673ffffffffffffffffffffffffffffffffffffffff1681526020019081526020016000206000828254611e839190613e03565b92505081905550611e9e675f7508ac5b5ccdb260c01b61366d565b8560046000828254611eb09190613e03565b92505081905550611ecb67e406c2b01564b7fd60c01b61366d565b8160036000828254611edd9190613e03565b92505081905550611ef8675d7b815778b8fd4260c01b61366d565b600454600354611f089190613d61565b600b81905550611f2267b938e438091dbc4460c01b61366d565b611f366785e1b97e1cf0976760c01b61366d565b611f4a67535d85f79ac4609360c01b61366d565b600260009054906101000a900473ffffffffffffffffffffffffffffffffffffffff1673ffffffffffffffffffffffffffffffffffffffff1663a9059cbb33846040518363ffffffff1660e01b8152600401611fa7929190613ff1565b6020604051808303816000875af1158015611fc6573d6000803e3d6000fd5b505050506040513d601f19601f82011682018060405250810190611fea9190614052565b612029576040517f08c379a0000000000000000000000000000000000000000000000000000000008152600401612020906142e7565b60405180910390fd5b61203d670b522e2a321d32b160c01b61366d565b612051674ac4f5ef3d6dc55560c01b61366d565b612065675ed1ba17bcfb14ed60c01b61366d565b60003373ffffffffffffffffffffffffffffffffffffffff168760405161208b90614338565b60006040518083038185875af1925050503d80600081146120c8576040519150601f19603f3d011682016040523d82523d6000602084013e6120cd565b606091505b505090506120e5676453a29076c9929460c01b61366d565b6120f96779d54d916186afec60c01b61366d565b61210d671f5ec205a2af640e60c01b61366d565b8061214d576040517f08c379a000000000000000000000000000000000000000000000000000000000815260040161214490614399565b60405180910390fd5b612161675a483c8819b718a660c01b61366d565b612175679a791b61fb77043d60c01b61366d565b61218967755f41c6823fe59a60c01b61366d565b6000600560003373ffffffffffffffffffffffffffffffffffffffff1673ffffffffffffffffffffffffffffffffffffffff1681526020019081526020016000205403612340576121e46746f8d25c40bda09060c01b61366d565b6121f867a059b5cf534c290660c01b61366d565b61220c6796157e89f730d2a360c01b61366d565b60005b60088054905081101561233a5761223067bdddcbf1a235172960c01b61366d565b612244673c98c9565e90e8d560c01b61366d565b3373ffffffffffffffffffffffffffffffffffffffff166008828154811061226f5761226e6143b9565b5b9060005260206000200160009054906101000a900473ffffffffffffffffffffffffffffffffffffffff1673ffffffffffffffffffffffffffffffffffffffff1603612313576122c967e63a293d52bcf3ba60c01b61366d565b6122dd6756409c5bab70c70060c01b61366d565b6122f1671e9e7a8f2ddb80b460c01b61366d565b6122fa81613670565b61230e67e19f983fdba4b07160c01b61366d565b61233a565b612327677f7b50fc273e11e560c01b61366d565b8080612332906143e8565b91505061220f565b50612355565b61235467fe0abf4db908431260c01b61366d565b5b50505050505050565b60006123746774c0678e6dab63ff60c01b61366d565b6123886752d9c7615f5b100b60c01b61366d565b61239c67f52146d8f1f6225660c01b61366d565b600454905090565b60008060009054906101000a900473ffffffffffffffffffffffffffffffffffffffff16905090565b6123e167e105a280999bbdc360c01b61366d565b6123f567eabb1eabea16629960c01b61366d565b612409679904c99214d5de1560c01b61366d565b61241d6752e7ece852d52eef60c01b61366d565b600060035411801561243157506000600454115b612470576040517f08c379a0000000000000000000000000000000000000000000000000000000008152600401612467906147cd565b60405180910390fd5b61248467802e3172b0aba92860c01b61366d565b61249867121cb30aeea7483960c01b61366d565b6124ac67ca046bf5d4b3bed660c01b61366d565b6124c0675055d700a051d01b60c01b61366d565b60003411612503576040517f08c379a00000000000000000000000000000000000000000000000000000000081526004016124fa90614839565b60405180910390fd5b61251767ebca8e53885a497360c01b61366d565b61252b67aa377f4104f4813d60c01b61366d565b61253f6798492df92dd564ed60c01b61366d565b6000600454670de0b6b3a764000060035461255a9190613d61565b6125649190613dd2565b905061257a672ab56207831087bc60c01b61366d565b61258e67427131d926b3048260c01b61366d565b6125a26722838a4a3c25f9c860c01b61366d565b8181101580156125b25750828111155b6125f1576040517f08c379a00000000000000000000000000000000000000000000000000000000081526004016125e8906141a3565b60405180910390fd5b6126056765e8185cc5f3cee860c01b61366d565b6126196769b806a2412d6bbc60c01b61366d565b61262d67ed7604a46a00d6c960c01b61366d565b6000600454600354346126409190613d61565b61264a9190613dd2565b90506126606737618eae757b426260c01b61366d565b61267467e2738adf125722d060c01b61366d565b61268867392aa94beabede0e60c01b61366d565b600081116126cb576040517f08c379a00000000000000000000000000000000000000000000000000000000081526004016126c2906148a5565b60405180910390fd5b6126df67219daf928b29b2fc60c01b61366d565b6126f3677cd240190512c1de60c01b61366d565b61270767ed3daaf9a7c2372c60c01b61366d565b61271b67ef4ad0f68587b27c60c01b61366d565b80600260009054906101000a900473ffffffffffffffffffffffffffffffffffffffff1673ffffffffffffffffffffffffffffffffffffffff166370a08231336040518263ffffffff1660e01b81526004016127779190613afd565b602060405180830381865afa158015612794573d6000803e3d6000fd5b505050506040513d601f19601f820116820180604052508101906127b89190613f58565b116127f8576040517f08c379a00000000000000000000000000000000000000000000000000000000081526004016127ef90614911565b60405180910390fd5b61280c678109f2e559955d4960c01b61366d565b61282067b449c3735c57e3cd60c01b61366d565b61283467bb4d509f564c259360c01b61366d565b61284867c05eb7b3b6a7169e60c01b61366d565b600260009054906101000a900473ffffffffffffffffffffffffffffffffffffffff1673ffffffffffffffffffffffffffffffffffffffff166323b872dd3330846040518463ffffffff1660e01b81526004016128a793929190614672565b6020604051808303816000875af11580156128c6573d6000803e3d6000fd5b505050506040513d601f19601f820116820180604052508101906128ea9190614052565b612929576040517f08c379a0000000000000000000000000000000000000000000000000000000008152600401612920906142e7565b60405180910390fd5b61293d67459724e94835ff9660c01b61366d565b612951672177cbaec33e067f60c01b61366d565b6129656797207136156a963b60c01b61366d565b600061297b679500a4e9c413ee4260c01b61366d565b61298f67d92ebff332e1315760c01b61366d565b6000600654036129c9576129ad675d9dd8f971e0b5cc60c01b61366d565b6129c1675743ed399b09a0e260c01b61366d565b349050612a0f565b6129dd67505ceb6cf5cdfab160c01b61366d565b6129f167546222d900c3814160c01b61366d565b60045460065434612a029190613d61565b612a0c9190613dd2565b90505b612a2367eb9eedc45df4d3ca60c01b61366d565b612a37671a1edaf427cc797560c01b61366d565b612a4b6707c7c9b7a5da223460c01b61366d565b60008111612a8e576040517f08c379a0000000000000000000000000000000000000000000000000000000008152600401612a859061497d565b60405180910390fd5b612aa26761ac3d1e64c7767560c01b61366d565b612ab6670c789c7977ad1b4f60c01b61366d565b80600760003373ffffffffffffffffffffffffffffffffffffffff1673ffffffffffffffffffffffffffffffffffffffff1681526020019081526020016000206000828254612b059190613e37565b92505081905550612b206764074e6be523de6860c01b61366d565b8060066000828254612b329190613e37565b92505081905550612b4d6797a696a859ce60bb60c01b61366d565b8160036000828254612b5f9190613e37565b92505081905550612b7a6754b63dd98369373160c01b61366d565b3460046000828254612b8c9190613e37565b92505081905550612ba7670a71071fce4f7d6260c01b61366d565b600454600354612bb79190613d61565b600b81905550612bd1678c89fe528add713560c01b61366d565b612be567d80e3c43658c26f960c01b61366d565b6000612bfb6787fca2f7c46b364760c01b61366d565b612c0f677846b5d9ba08e30e60c01b61366d565b60005b600880549050811015612d2457612c3367bc1f41e274df4d8460c01b61366d565b612c4767197d85c20f35a28260c01b61366d565b3373ffffffffffffffffffffffffffffffffffffffff1660088281548110612c7257612c716143b9565b5b9060005260206000200160009054906101000a900473ffffffffffffffffffffffffffffffffffffffff1673ffffffffffffffffffffffffffffffffffffffff1603612cfd57612ccc6725002c085ea67c1860c01b61366d565b612ce067226a8fd0a04aa81960c01b61366d565b60019150612cf8677aa1f636f15819d960c01b61366d565b612d24565b612d1167af734c85f862ab0160c01b61366d565b8080612d1c906143e8565b915050612c12565b50612d3967544b7b0e44f1874560c01b61366d565b612d4d67c1b3981984a22a2360c01b61366d565b80612df657612d66676a2e7827c5caa1a960c01b61366d565b612d7a678942797b2fed8a0160c01b61366d565b612d8e6763cbe2081541e1ae60c01b61366d565b6008339080600181540180825580915050600190039060005260206000200160009091909190916101000a81548173ffffffffffffffffffffffffffffffffffffffff021916908373ffffffffffffffffffffffffffffffffffffffff160217905550612e0b565b612e0a67fc8de19df9acbd3260c01b61366d565b5b612e1f6775a150e6212f2ea060c01b61366d565b34600560003373ffffffffffffffffffffffffffffffffffffffff1673ffffffffffffffffffffffffffffffffffffffff1681526020019081526020016000206000828254612e6e9190613e37565b92505081905550505050505050565b612e9167a4aa3cc90444c83760c01b61366d565b612ea567bb9adf704f7a218160c01b61366d565b612eb967cc6bd57fdadf724860c01b61366d565b612ecd67d9939cf19c1c812860c01b61366d565b600082118015612f78575081600260009054906101000a900473ffffffffffffffffffffffffffffffffffffffff1673ffffffffffffffffffffffffffffffffffffffff166370a08231336040518263ffffffff1660e01b8152600401612f349190613afd565b602060405180830381865afa158015612f51573d6000803e3d6000fd5b505050506040513d601f19601f82011682018060405250810190612f759190613f58565b10155b612fb7576040517f08c379a0000000000000000000000000000000000000000000000000000000008152600401612fae906148a5565b60405180910390fd5b612fcb677d10bda257898cdb60c01b61366d565b612fdf67a8ce69b45068536760c01b61366d565b612ff367f28c6b2436a6412260c01b61366d565b6000600a54600954846130069190613d61565b6130109190613dd2565b9050613026670a0e5ae52a5ea18e60c01b61366d565b61303a671c1aaaea3b576a5560c01b61366d565b600081846130489190613e03565b905061305e67d053055a914f0d4d60c01b61366d565b6130716601dbc4376c0bd160c01b61366d565b6000816003546130819190613e37565b9050613097677cf640c6bcd886a560c01b61366d565b6130ab671485bd1eb8d1b7e460c01b61366d565b600081600b546130bb9190613dd2565b90506130d1678b7e8a149f80f4a160c01b61366d565b6130e567492914558568079260c01b61366d565b6000816004546130f59190613e03565b905061310b6772ba57be755a0da560c01b61366d565b61311f673fb213942022dd7160c01b61366d565b61313367a178f374c8bb033a60c01b61366d565b60016004546131429190613e03565b8110613183576040517f08c379a000000000000000000000000000000000000000000000000000000000815260040161317a906149e9565b60405180910390fd5b61319767119510c1890d941a60c01b61366d565b6131ab6791a781259e3ef82f60c01b61366d565b6131bf67641c6131f81949e260c01b61366d565b6131d367f33536168359043260c01b61366d565b8587670de0b6b3a7640000836131e99190613d61565b6131f39190613dd2565b1115613234576040517f08c379a000000000000000000000000000000000000000000000000000000000815260040161322b90613f23565b60405180910390fd5b613248676d5f85656c76ad9b60c01b61366d565b61325c67814140b6d024e01860c01b61366d565b61327067d1235422c106f31260c01b61366d565b600260009054906101000a900473ffffffffffffffffffffffffffffffffffffffff1673ffffffffffffffffffffffffffffffffffffffff166323b872dd33308a6040518463ffffffff1660e01b81526004016132cf93929190614672565b6020604051808303816000875af11580156132ee573d6000803e3d6000fd5b505050506040513d601f19601f820116820180604052508101906133129190614052565b506133276797eb631fb41a3af760c01b61366d565b61333b670487ae0720d7631660c01b61366d565b3373ffffffffffffffffffffffffffffffffffffffff166108fc829081150290604051600060405180830381858888f19350505050158015613381573d6000803e3d6000fd5b5061339667b85e06244b603b3a60c01b61366d565b83600360008282546133a89190613e37565b925050819055506133c36782bb28a37b38000e60c01b61366d565b80600460008282546133d59190613e03565b925050819055506133f06733640afb8c73b54960c01b61366d565b6004546003546134009190613d61565b600b8190555050505050505050565b60006134256746fbf45c24f76d1160c01b61366d565b61343967662a9a8391b3597160c01b61366d565b61344d67a85055e0e73d028760c01b61366d565b600354905090565b60008061346c67cd68dcadccb885a860c01b61366d565b61348067706de76300b0572060c01b61366d565b61349467cc2544483712a6e360c01b61366d565b600954600a54915091509091565b6134aa61384d565b600073ffffffffffffffffffffffffffffffffffffffff168173ffffffffffffffffffffffffffffffffffffffff1603613519576040517f08c379a000000000000000000000000000000000000000000000000000000000815260040161351090614a7b565b60405180910390fd5b613522816138cb565b50565b6001805461353290614aca565b80601f016020809104026020016040519081016040528092919081815260200182805461355e90614aca565b80156135ab5780601f10613580576101008083540402835291602001916135ab565b820191906000526020600020905b81548152906001019060200180831161358e57829003601f168201915b505050505081565b60006135c967215b745757e21b5f60c01b61366d565b6135dd67028c51d42e15b01660c01b61366d565b6135f1674ef276e2084904ab60c01b61366d565b6000600454670de0b6b3a764000060035461360c9190613d61565b6136169190613dd2565b905061362c677235c5498db6428e60c01b61366d565b61364067bd92486742d74ab660c01b61366d565b8091505090565b600260009054906101000a900473ffffffffffffffffffffffffffffffffffffffff1681565b50565b61368467a271fa2fe8926a3e60c01b61366d565b61369867bc3c91374a048aae60c01b61366d565b6136ac67644ea5b3828718b360c01b61366d565b6136c06771e0dfeba5691ecd60c01b61366d565b6008805490508110613707576040517f08c379a00000000000000000000000000000000000000000000000000000000081526004016136fe90614b6d565b60405180910390fd5b61371b67e50392b0fb6414e260c01b61366d565b61372f67437930fa4c96b9d560c01b61366d565b600860016008805490506137439190613e03565b81548110613754576137536143b9565b5b9060005260206000200160009054906101000a900473ffffffffffffffffffffffffffffffffffffffff1660088281548110613793576137926143b9565b5b9060005260206000200160006101000a81548173ffffffffffffffffffffffffffffffffffffffff021916908373ffffffffffffffffffffffffffffffffffffffff1602179055506137ef67f813b347e2b39be860c01b61366d565b613803671d8726d997a0bdc360c01b61366d565b600880548061381557613814614b8d565b5b6001900381819060005260206000200160006101000a81549073ffffffffffffffffffffffffffffffffffffffff0219169055905550565b61385561398f565b73ffffffffffffffffffffffffffffffffffffffff166138736123a4565b73ffffffffffffffffffffffffffffffffffffffff16146138c9576040517f08c379a00000000000000000000000000000000000000000000000000000000081526004016138c090614c08565b60405180910390fd5b565b60008060009054906101000a900473ffffffffffffffffffffffffffffffffffffffff169050816000806101000a81548173ffffffffffffffffffffffffffffffffffffffff021916908373ffffffffffffffffffffffffffffffffffffffff1602179055508173ffffffffffffffffffffffffffffffffffffffff168173ffffffffffffffffffffffffffffffffffffffff167f8be0079c531659141344cd1fd0a4f28419497f9722a3daafe3b4186f6b6457e060405160405180910390a35050565b600033905090565b600080fd5b6000819050919050565b6139af8161399c565b81146139ba57600080fd5b50565b6000813590506139cc816139a6565b92915050565b6000602082840312156139e8576139e7613997565b5b60006139f6848285016139bd565b91505092915050565b60008060408385031215613a1657613a15613997565b5b6000613a24858286016139bd565b9250506020613a35858286016139bd565b9150509250929050565b600080600060608486031215613a5857613a57613997565b5b6000613a66868287016139bd565b9350506020613a77868287016139bd565b9250506040613a88868287016139bd565b9150509250925092565b613a9b8161399c565b82525050565b6000602082019050613ab66000830184613a92565b92915050565b600073ffffffffffffffffffffffffffffffffffffffff82169050919050565b6000613ae782613abc565b9050919050565b613af781613adc565b82525050565b6000602082019050613b126000830184613aee565b92915050565b6000604082019050613b2d6000830185613a92565b613b3a6020830184613a92565b9392505050565b613b4a81613adc565b8114613b5557600080fd5b50565b600081359050613b6781613b41565b92915050565b600060208284031215613b8357613b82613997565b5b6000613b9184828501613b58565b91505092915050565b600081519050919050565b600082825260208201905092915050565b60005b83811015613bd4578082015181840152602081019050613bb9565b60008484015250505050565b6000601f19601f8301169050919050565b6000613bfc82613b9a565b613c068185613ba5565b9350613c16818560208601613bb6565b613c1f81613be0565b840191505092915050565b60006020820190508181036000830152613c448184613bf1565b905092915050565b6000819050919050565b6000613c71613c6c613c6784613abc565b613c4c565b613abc565b9050919050565b6000613c8382613c56565b9050919050565b6000613c9582613c78565b9050919050565b613ca581613c8a565b82525050565b6000602082019050613cc06000830184613c9c565b92915050565b7f4d7573742073656e642045544800000000000000000000000000000000000000600082015250565b6000613cfc600d83613ba5565b9150613d0782613cc6565b602082019050919050565b60006020820190508181036000830152613d2b81613cef565b9050919050565b7f4e487b7100000000000000000000000000000000000000000000000000000000600052601160045260246000fd5b6000613d6c8261399c565b9150613d778361399c565b9250828202613d858161399c565b91508282048414831517613d9c57613d9b613d32565b5b5092915050565b7f4e487b7100000000000000000000000000000000000000000000000000000000600052601260045260246000fd5b6000613ddd8261399c565b9150613de88361399c565b925082613df857613df7613da3565b5b828204905092915050565b6000613e0e8261399c565b9150613e198361399c565b9250828203905081811115613e3157613e30613d32565b5b92915050565b6000613e428261399c565b9150613e4d8361399c565b9250828201905080821115613e6557613e64613d32565b5b92915050565b7f4d757374206c65617665206174206c65617374203120746f6b656e0000000000600082015250565b6000613ea1601b83613ba5565b9150613eac82613e6b565b602082019050919050565b60006020820190508181036000830152613ed081613e94565b9050919050565b7f556e61636365707461626c652072617465000000000000000000000000000000600082015250565b6000613f0d601183613ba5565b9150613f1882613ed7565b602082019050919050565b60006020820190508181036000830152613f3c81613f00565b9050919050565b600081519050613f52816139a6565b92915050565b600060208284031215613f6e57613f6d613997565b5b6000613f7c84828501613f43565b91505092915050565b7f4e6f7420656e6f75676820746f6b656e7320696e20706f6f6c00000000000000600082015250565b6000613fbb601983613ba5565b9150613fc682613f85565b602082019050919050565b60006020820190508181036000830152613fea81613fae565b9050919050565b60006040820190506140066000830185613aee565b6140136020830184613a92565b9392505050565b60008115159050919050565b61402f8161401a565b811461403a57600080fd5b50565b60008151905061404c81614026565b92915050565b60006020828403121561406857614067613997565b5b60006140768482850161403d565b91505092915050565b7f506f6f6c20646f6573206e6f7420657869737400000000000000000000000000600082015250565b60006140b5601383613ba5565b91506140c08261407f565b602082019050919050565b600060208201905081810360008301526140e4816140a8565b9050919050565b7f4e6f206c697175696469747920746f2072656d6f766500000000000000000000600082015250565b6000614121601683613ba5565b915061412c826140eb565b602082019050919050565b6000602082019050818103600083015261415081614114565b9050919050565b7f45786368616e67652072617465206f7574206f6620626f756e64730000000000600082015250565b600061418d601b83613ba5565b915061419882614157565b602082019050919050565b600060208201905081810360008301526141bc81614180565b9050919050565b7f45544820726573657276657320746f6f206c6f77000000000000000000000000600082015250565b60006141f9601483613ba5565b9150614204826141c3565b602082019050919050565b60006020820190508181036000830152614228816141ec565b9050919050565b7f546f6b656e20726573657276657320746f6f206c6f7700000000000000000000600082015250565b6000614265601683613ba5565b91506142708261422f565b602082019050919050565b6000602082019050818103600083015261429481614258565b9050919050565b7f546f6b656e207472616e73666572206661696c65640000000000000000000000600082015250565b60006142d1601583613ba5565b91506142dc8261429b565b602082019050919050565b60006020820190508181036000830152614300816142c4565b9050919050565b600081905092915050565b50565b6000614322600083614307565b915061432d82614312565b600082019050919050565b600061434382614315565b9150819050919050565b7f455448207472616e73666572206661696c656400000000000000000000000000600082015250565b6000614383601383613ba5565b915061438e8261434d565b602082019050919050565b600060208201905081810360008301526143b281614376565b9050919050565b7f4e487b7100000000000000000000000000000000000000000000000000000000600052603260045260246000fd5b60006143f38261399c565b91507fffffffffffffffffffffffffffffffffffffffffffffffffffffffffffffffff820361442557614424613d32565b5b600182019050919050565b7f546f6b656e20726573657276657320776173206e6f7420300000000000000000600082015250565b6000614466601883613ba5565b915061447182614430565b602082019050919050565b6000602082019050818103600083015261449581614459565b9050919050565b7f45544820726573657276657320776173206e6f7420302e000000000000000000600082015250565b60006144d2601783613ba5565b91506144dd8261449c565b602082019050919050565b60006020820190508181036000830152614501816144c5565b9050919050565b7f4e6565642065746820746f2063726561746520706f6f6c2e0000000000000000600082015250565b600061453e601883613ba5565b915061454982614508565b602082019050919050565b6000602082019050818103600083015261456d81614531565b9050919050565b7f4e6f74206861766520656e6f75676820746f6b656e7320746f2063726561746560008201527f2074686520706f6f6c0000000000000000000000000000000000000000000000602082015250565b60006145d0602983613ba5565b91506145db82614574565b604082019050919050565b600060208201905081810360008301526145ff816145c3565b9050919050565b7f4e65656420746f6b656e7320746f2063726561746520706f6f6c2e0000000000600082015250565b600061463c601b83613ba5565b915061464782614606565b602082019050919050565b6000602082019050818103600083015261466b8161462f565b9050919050565b60006060820190506146876000830186613aee565b6146946020830185613aee565b6146a16040830184613a92565b949350505050565b7f496e76616c69642045544820616d6f756e740000000000000000000000000000600082015250565b60006146df601283613ba5565b91506146ea826146a9565b602082019050919050565b6000602082019050818103600083015261470e816146d2565b9050919050565b7f496e73756666696369656e742073686172657300000000000000000000000000600082015250565b600061474b601383613ba5565b915061475682614715565b602082019050919050565b6000602082019050818103600083015261477a8161473e565b9050919050565b7f506f6f6c206973206e6f74206578697374000000000000000000000000000000600082015250565b60006147b7601183613ba5565b91506147c282614781565b602082019050919050565b600060208201905081810360008301526147e6816147aa565b9050919050565b7f455448206973206e6f742073656e740000000000000000000000000000000000600082015250565b6000614823600f83613ba5565b915061482e826147ed565b602082019050919050565b6000602082019050818103600083015261485281614816565b9050919050565b7f496e76616c696420746f6b656e20616d6f756e74000000000000000000000000600082015250565b600061488f601483613ba5565b915061489a82614859565b602082019050919050565b600060208201905081810360008301526148be81614882565b9050919050565b7f53656e64657220686173206e6f7420656e6f75676820746f6b656e7300000000600082015250565b60006148fb601c83613ba5565b9150614906826148c5565b602082019050919050565b6000602082019050818103600083015261492a816148ee565b9050919050565b7f5a65726f20736861726573000000000000000000000000000000000000000000600082015250565b6000614967600b83613ba5565b915061497282614931565b602082019050919050565b600060208201905081810360008301526149968161495a565b9050919050565b7f4d757374206c65617665206174206c6561737420312077656920455448000000600082015250565b60006149d3601d83613ba5565b91506149de8261499d565b602082019050919050565b60006020820190508181036000830152614a02816149c6565b9050919050565b7f4f776e61626c653a206e6577206f776e657220697320746865207a65726f206160008201527f6464726573730000000000000000000000000000000000000000000000000000602082015250565b6000614a65602683613ba5565b9150614a7082614a09565b604082019050919050565b60006020820190508181036000830152614a9481614a58565b9050919050565b7f4e487b7100000000000000000000000000000000000000000000000000000000600052602260045260246000fd5b60006002820490506001821680614ae257607f821691505b602082108103614af557614af4614a9b565b5b50919050565b7f73706563696669656420696e646578206973206c6172676572207468616e207460008201527f6865206e756d626572206f66206c707300000000000000000000000000000000602082015250565b6000614b57603083613ba5565b9150614b6282614afb565b604082019050919050565b60006020820190508181036000830152614b8681614b4a565b9050919050565b7f4e487b7100000000000000000000000000000000000000000000000000000000600052603160045260246000fd5b7f4f776e61626c653a2063616c6c6572206973206e6f7420746865206f776e6572600082015250565b6000614bf2602083613ba5565b9150614bfd82614bbc565b602082019050919050565b60006020820190508181036000830152614c2181614be5565b905091905056fea264697066735822122094ff2115c5a84e62ac875bcc32e56dddbdb7196e9d2c5bfdd6eec6eb7848fed464736f6c63430008110033",
  "linkReferences": {},
  "deployedLinkReferences": {}
}