{
  "_format": "hh-sol-artifact-1",
  "contractName": "TokenExchange",
  "sourceName": "contracts/exchange.sol",
  "abi": [
    {
      "inputs": [],
      "stateMutability": "nonpayable",
      "type": "constructor"
    },
    {
      "anonymous": false,
      "inputs": [
        {
          "indexed": true,
          "internalType": "address",
          "name": "previousOwner",
          "type": "address"
        },
        {
          "indexed": true,
          "internalType": "address",
          "name": "newOwner",
          "type": "address"
        }
      ],
      "name": "OwnershipTransferred",
      "type": "event"
    },
    {
      "inputs": [
        {
          "internalType": "uint256",
          "name": "max_exchange_rate",
          "type": "uint256"
        },
        {
          "internalType": "uint256",
          "name": "min_exchange_rate",
          "type": "uint256"
        }
      ],
      "name": "addLiquidity",
      "outputs": [],
      "stateMutability": "payable",
      "type": "function"
    },
    {
      "inputs": [
        {
          "internalType": "uint256",
          "name": "amountTokens",
          "type": "uint256"
        }
      ],
      "name": "createPool",
      "outputs": [],
      "stateMutability": "payable",
      "type": "function"
    },
    {
      "inputs": [],
      "name": "exchange_name",
      "outputs": [
        {
          "internalType": "string",
          "name": "",
          "type": "string"
        }
      ],
      "stateMutability": "view",
      "type": "function"
    },
    {
      "inputs": [],
      "name": "getSwapFee",
      "outputs": [
        {
          "internalType": "uint256",
          "name": "",
          "type": "uint256"
        },
        {
          "internalType": "uint256",
          "name": "",
          "type": "uint256"
        }
      ],
      "stateMutability": "view",
      "type": "function"
    },
    {
      "inputs": [],
      "name": "owner",
      "outputs": [
        {
          "internalType": "address",
          "name": "",
          "type": "address"
        }
      ],
      "stateMutability": "view",
      "type": "function"
    },
    {
      "inputs": [
        {
          "internalType": "uint256",
          "name": "max_exchange_rate",
          "type": "uint256"
        },
        {
          "internalType": "uint256",
          "name": "min_exchange_rate",
          "type": "uint256"
        }
      ],
      "name": "removeAllLiquidity",
      "outputs": [],
      "stateMutability": "payable",
      "type": "function"
    },
    {
      "inputs": [
        {
          "internalType": "uint256",
          "name": "amountETH",
          "type": "uint256"
        },
        {
          "internalType": "uint256",
          "name": "max_exchange_rate",
          "type": "uint256"
        },
        {
          "internalType": "uint256",
          "name": "min_exchange_rate",
          "type": "uint256"
        }
      ],
      "name": "removeLiquidity",
      "outputs": [],
      "stateMutability": "payable",
      "type": "function"
    },
    {
      "inputs": [],
      "name": "renounceOwnership",
      "outputs": [],
      "stateMutability": "nonpayable",
      "type": "function"
    },
    {
      "inputs": [
        {
          "internalType": "uint256",
          "name": "max_exchange_rate",
          "type": "uint256"
        }
      ],
      "name": "swapETHForTokens",
      "outputs": [],
      "stateMutability": "payable",
      "type": "function"
    },
    {
      "inputs": [
        {
          "internalType": "uint256",
          "name": "amountTokens",
          "type": "uint256"
        },
        {
          "internalType": "uint256",
          "name": "max_exchange_rate",
          "type": "uint256"
        }
      ],
      "name": "swapTokensForETH",
      "outputs": [],
      "stateMutability": "payable",
      "type": "function"
    },
    {
      "inputs": [],
      "name": "token",
      "outputs": [
        {
          "internalType": "contract Token",
          "name": "",
          "type": "address"
        }
      ],
      "stateMutability": "view",
      "type": "function"
    },
    {
      "inputs": [
        {
          "internalType": "address",
          "name": "newOwner",
          "type": "address"
        }
      ],
      "name": "transferOwnership",
      "outputs": [],
      "stateMutability": "nonpayable",
      "type": "function"
    }
  ],
  "bytecode": "0x608060405260405180602001604052806000815250600190816200002491906200046b565b50735fbdb2315678afecb367f032d93f642f64180aa3600260006101000a81548173ffffffffffffffffffffffffffffffffffffffff021916908373ffffffffffffffffffffffffffffffffffffffff160217905550600260009054906101000a900473ffffffffffffffffffffffffffffffffffffffff16600360006101000a81548173ffffffffffffffffffffffffffffffffffffffff021916908373ffffffffffffffffffffffffffffffffffffffff1602179055506000600455600060055560036008556064600955348015620000fe57600080fd5b506200011f620001136200012560201b60201c565b6200012d60201b60201c565b62000552565b600033905090565b60008060009054906101000a900473ffffffffffffffffffffffffffffffffffffffff169050816000806101000a81548173ffffffffffffffffffffffffffffffffffffffff021916908373ffffffffffffffffffffffffffffffffffffffff1602179055508173ffffffffffffffffffffffffffffffffffffffff168173ffffffffffffffffffffffffffffffffffffffff167f8be0079c531659141344cd1fd0a4f28419497f9722a3daafe3b4186f6b6457e060405160405180910390a35050565b600081519050919050565b7f4e487b7100000000000000000000000000000000000000000000000000000000600052604160045260246000fd5b7f4e487b7100000000000000000000000000000000000000000000000000000000600052602260045260246000fd5b600060028204905060018216806200027357607f821691505b6020821081036200028957620002886200022b565b5b50919050565b60008190508160005260206000209050919050565b60006020601f8301049050919050565b600082821b905092915050565b600060088302620002f37fffffffffffffffffffffffffffffffffffffffffffffffffffffffffffffffff82620002b4565b620002ff8683620002b4565b95508019841693508086168417925050509392505050565b6000819050919050565b6000819050919050565b60006200034c62000346620003408462000317565b62000321565b62000317565b9050919050565b6000819050919050565b62000368836200032b565b62000380620003778262000353565b848454620002c1565b825550505050565b600090565b6200039762000388565b620003a48184846200035d565b505050565b5b81811015620003cc57620003c06000826200038d565b600181019050620003aa565b5050565b601f8211156200041b57620003e5816200028f565b620003f084620002a4565b8101602085101562000400578190505b620004186200040f85620002a4565b830182620003a9565b50505b505050565b600082821c905092915050565b6000620004406000198460080262000420565b1980831691505092915050565b60006200045b83836200042d565b9150826002028217905092915050565b6200047682620001f1565b67ffffffffffffffff811115620004925762000491620001fc565b5b6200049e82546200025a565b620004ab828285620003d0565b600060209050601f831160018114620004e35760008415620004ce578287015190505b620004da85826200044d565b8655506200054a565b601f198416620004f3866200028f565b60005b828110156200051d57848901518255600182019150602085019450602081019050620004f6565b868310156200053d578489015162000539601f8916826200042d565b8355505b6001600288020188555050505b505050505050565b6130c680620005626000396000f3fe6080604052600436106100a75760003560e01c80639cd441da116100645780639cd441da1461015e578063a22280a61461017a578063d4cadf6814610196578063f2fde38b146101c2578063f694f7d1146101eb578063fc0c546a14610216576100a7565b80632eab2841146100ac57806358ad6de4146100c8578063715018a6146100e45780638259e6a0146100fb578063857620e1146101175780638da5cb5b14610133575b600080fd5b6100c660048036038101906100c19190612005565b610241565b005b6100e260048036038101906100dd9190612032565b6104f8565b005b3480156100f057600080fd5b506100f9610a0b565b005b61011560048036038101906101109190612005565b610a1f565b005b610131600480360381019061012c9190612072565b610d80565b005b34801561013f57600080fd5b506101486112b4565b6040516101559190612106565b60405180910390f35b61017860048036038101906101739190612032565b6112dd565b005b610194600480360381019061018f9190612032565b6117b6565b005b3480156101a257600080fd5b506101ab611bfb565b6040516101b9929190612130565b60405180910390f35b3480156101ce57600080fd5b506101e960048036038101906101e49190612185565b611c0c565b005b3480156101f757600080fd5b50610200611c8f565b60405161020d9190612242565b60405180910390f35b34801561022257600080fd5b5061022b611d1d565b60405161023891906122c3565b60405180910390f35b600060045411801561025557506000600554115b610294576040517f08c379a000000000000000000000000000000000000000000000000000000000815260040161028b9061232a565b60405180910390fd5b600034116102d7576040517f08c379a00000000000000000000000000000000000000000000000000000000081526004016102ce90612396565b60405180910390fd5b6000346005546102e791906123e5565b600454346102f59190612419565b6102ff919061248a565b905060095460085460095461031491906124bb565b8261031f9190612419565b610329919061248a565b905060018160045461033b91906124bb565b101561037c576040517f08c379a00000000000000000000000000000000000000000000000000000000081526004016103739061253b565b60405180910390fd5b600081670de0b6b3a7640000346103939190612419565b61039d919061248a565b9050828111156103e2576040517f08c379a00000000000000000000000000000000000000000000000000000000081526004016103d9906125a7565b60405180910390fd5b600360009054906101000a900473ffffffffffffffffffffffffffffffffffffffff1673ffffffffffffffffffffffffffffffffffffffff1663a9059cbb33846040518363ffffffff1660e01b815260040161043f9291906125c7565b6020604051808303816000875af115801561045e573d6000803e3d6000fd5b505050506040513d601f19601f820116820180604052508101906104829190612628565b6104c1576040517f08c379a00000000000000000000000000000000000000000000000000000000081526004016104b8906126a1565b60405180910390fd5b34600560008282546104d391906123e5565b9250508190555081600460008282546104ec91906124bb565b92505081905550505050565b600060045411801561050c57506000600554115b61054b576040517f08c379a00000000000000000000000000000000000000000000000000000000081526004016105429061232a565b60405180910390fd5b6000600660003373ffffffffffffffffffffffffffffffffffffffff1673ffffffffffffffffffffffffffffffffffffffff16815260200190815260200160002054116105cd576040517f08c379a00000000000000000000000000000000000000000000000000000000081526004016105c49061270d565b60405180910390fd5b6000600554670de0b6b3a76400006004546105e89190612419565b6105f2919061248a565b90508181101580156106045750828111155b610643576040517f08c379a000000000000000000000000000000000000000000000000000000000815260040161063a90612779565b60405180910390fd5b6000600660003373ffffffffffffffffffffffffffffffffffffffff1673ffffffffffffffffffffffffffffffffffffffff16815260200190815260200160002054905060006005546004548361069a9190612419565b6106a4919061248a565b90506001826005546106b691906124bb565b10156106f7576040517f08c379a00000000000000000000000000000000000000000000000000000000081526004016106ee906127e5565b60405180910390fd5b60018160045461070791906124bb565b1015610748576040517f08c379a000000000000000000000000000000000000000000000000000000000815260040161073f9061253b565b60405180910390fd5b60003373ffffffffffffffffffffffffffffffffffffffff168360405161076e90612836565b60006040518083038185875af1925050503d80600081146107ab576040519150601f19603f3d011682016040523d82523d6000602084013e6107b0565b606091505b50509050806107f4576040517f08c379a00000000000000000000000000000000000000000000000000000000081526004016107eb90612897565b60405180910390fd5b600360009054906101000a900473ffffffffffffffffffffffffffffffffffffffff1673ffffffffffffffffffffffffffffffffffffffff1663a9059cbb33846040518363ffffffff1660e01b81526004016108519291906125c7565b6020604051808303816000875af1158015610870573d6000803e3d6000fd5b505050506040513d601f19601f820116820180604052508101906108949190612628565b6108d3576040517f08c379a00000000000000000000000000000000000000000000000000000000081526004016108ca906126a1565b60405180910390fd5b82600560008282546108e591906124bb565b9250508190555081600460008282546108fe91906124bb565b925050819055506005546004546109159190612419565b600a819055506000600660003373ffffffffffffffffffffffffffffffffffffffff1673ffffffffffffffffffffffffffffffffffffffff1681526020019081526020016000208190555060005b600780549050811015610a02573373ffffffffffffffffffffffffffffffffffffffff166007828154811061099b5761099a6128b7565b5b9060005260206000200160009054906101000a900473ffffffffffffffffffffffffffffffffffffffff1673ffffffffffffffffffffffffffffffffffffffff16036109ef576109ea81611d43565b610a02565b80806109fa906128e6565b915050610963565b50505050505050565b610a13611e80565b610a1d6000611efe565b565b610a27611e80565b600060045414610a6c576040517f08c379a0000000000000000000000000000000000000000000000000000000008152600401610a639061297a565b60405180910390fd5b600060055414610ab1576040517f08c379a0000000000000000000000000000000000000000000000000000000008152600401610aa8906129e6565b60405180910390fd5b60003411610af4576040517f08c379a0000000000000000000000000000000000000000000000000000000008152600401610aeb90612a52565b60405180910390fd5b6000600360009054906101000a900473ffffffffffffffffffffffffffffffffffffffff1673ffffffffffffffffffffffffffffffffffffffff166370a08231336040518263ffffffff1660e01b8152600401610b519190612106565b602060405180830381865afa158015610b6e573d6000803e3d6000fd5b505050506040513d601f19601f82011682018060405250810190610b929190612a87565b905080821115610bd7576040517f08c379a0000000000000000000000000000000000000000000000000000000008152600401610bce90612b26565b60405180910390fd5b60008211610c1a576040517f08c379a0000000000000000000000000000000000000000000000000000000008152600401610c1190612b92565b60405180910390fd5b600360009054906101000a900473ffffffffffffffffffffffffffffffffffffffff1673ffffffffffffffffffffffffffffffffffffffff166323b872dd3330856040518463ffffffff1660e01b8152600401610c7993929190612bb2565b6020604051808303816000875af1158015610c98573d6000803e3d6000fd5b505050506040513d601f19601f82011682018060405250810190610cbc9190612628565b50600360009054906101000a900473ffffffffffffffffffffffffffffffffffffffff1673ffffffffffffffffffffffffffffffffffffffff166370a08231306040518263ffffffff1660e01b8152600401610d189190612106565b602060405180830381865afa158015610d35573d6000803e3d6000fd5b505050506040513d601f19601f82011682018060405250810190610d599190612a87565b60048190555034600581905550600554600454610d769190612419565b600a819055505050565b6000600454118015610d9457506000600554115b610dd3576040517f08c379a0000000000000000000000000000000000000000000000000000000008152600401610dca9061232a565b60405180910390fd5b600083118015610e225750600660003373ffffffffffffffffffffffffffffffffffffffff1673ffffffffffffffffffffffffffffffffffffffff168152602001908152602001600020548311155b610e61576040517f08c379a0000000000000000000000000000000000000000000000000000000008152600401610e5890612c35565b60405180910390fd5b6000600554670de0b6b3a7640000600454610e7c9190612419565b610e86919061248a565b9050818110158015610e985750828111155b610ed7576040517f08c379a0000000000000000000000000000000000000000000000000000000008152600401610ece90612779565b60405180910390fd5b600060055460045486610eea9190612419565b610ef4919061248a565b9050600185600554610f0691906124bb565b1015610f47576040517f08c379a0000000000000000000000000000000000000000000000000000000008152600401610f3e906127e5565b60405180910390fd5b600181600454610f5791906124bb565b1015610f98576040517f08c379a0000000000000000000000000000000000000000000000000000000008152600401610f8f9061253b565b60405180910390fd5b60003373ffffffffffffffffffffffffffffffffffffffff1686604051610fbe90612836565b60006040518083038185875af1925050503d8060008114610ffb576040519150601f19603f3d011682016040523d82523d6000602084013e611000565b606091505b5050905080611044576040517f08c379a000000000000000000000000000000000000000000000000000000000815260040161103b90612897565b60405180910390fd5b600360009054906101000a900473ffffffffffffffffffffffffffffffffffffffff1673ffffffffffffffffffffffffffffffffffffffff1663a9059cbb33846040518363ffffffff1660e01b81526004016110a19291906125c7565b6020604051808303816000875af11580156110c0573d6000803e3d6000fd5b505050506040513d601f19601f820116820180604052508101906110e49190612628565b611123576040517f08c379a000000000000000000000000000000000000000000000000000000000815260040161111a906126a1565b60405180910390fd5b856005600082825461113591906124bb565b92505081905550816004600082825461114e91906124bb565b925050819055506005546004546111659190612419565b600a8190555085600660003373ffffffffffffffffffffffffffffffffffffffff1673ffffffffffffffffffffffffffffffffffffffff16815260200190815260200160002060008282546111ba91906124bb565b925050819055506000600660003373ffffffffffffffffffffffffffffffffffffffff1673ffffffffffffffffffffffffffffffffffffffff16815260200190815260200160002054036112ac5760005b6007805490508110156112aa573373ffffffffffffffffffffffffffffffffffffffff1660078281548110611243576112426128b7565b5b9060005260206000200160009054906101000a900473ffffffffffffffffffffffffffffffffffffffff1673ffffffffffffffffffffffffffffffffffffffff16036112975761129281611d43565b6112aa565b80806112a2906128e6565b91505061120b565b505b505050505050565b60008060009054906101000a900473ffffffffffffffffffffffffffffffffffffffff16905090565b60006004541180156112f157506000600554115b611330576040517f08c379a000000000000000000000000000000000000000000000000000000000815260040161132790612ca1565b60405180910390fd5b60003411611373576040517f08c379a000000000000000000000000000000000000000000000000000000000815260040161136a90612d0d565b60405180910390fd5b6000600554670de0b6b3a764000060045461138e9190612419565b611398919061248a565b90508181101580156113aa5750828111155b6113e9576040517f08c379a00000000000000000000000000000000000000000000000000000000081526004016113e090612779565b60405180910390fd5b6000600554600454346113fc9190612419565b611406919061248a565b90506000811161144b576040517f08c379a000000000000000000000000000000000000000000000000000000000815260040161144290612d79565b60405180910390fd5b80600360009054906101000a900473ffffffffffffffffffffffffffffffffffffffff1673ffffffffffffffffffffffffffffffffffffffff166370a08231336040518263ffffffff1660e01b81526004016114a79190612106565b602060405180830381865afa1580156114c4573d6000803e3d6000fd5b505050506040513d601f19601f820116820180604052508101906114e89190612a87565b11611528576040517f08c379a000000000000000000000000000000000000000000000000000000000815260040161151f90612de5565b60405180910390fd5b600360009054906101000a900473ffffffffffffffffffffffffffffffffffffffff1673ffffffffffffffffffffffffffffffffffffffff166323b872dd3330846040518463ffffffff1660e01b815260040161158793929190612bb2565b6020604051808303816000875af11580156115a6573d6000803e3d6000fd5b505050506040513d601f19601f820116820180604052508101906115ca9190612628565b611609576040517f08c379a0000000000000000000000000000000000000000000000000000000008152600401611600906126a1565b60405180910390fd5b806004600082825461161b91906123e5565b92505081905550346005600082825461163491906123e5565b9250508190555060055460045461164b9190612419565b600a819055506000805b6007805490508110156116ef573373ffffffffffffffffffffffffffffffffffffffff166007828154811061168d5761168c6128b7565b5b9060005260206000200160009054906101000a900473ffffffffffffffffffffffffffffffffffffffff1673ffffffffffffffffffffffffffffffffffffffff16036116dc57600191506116ef565b80806116e7906128e6565b915050611655565b5080611759576007339080600181540180825580915050600190039060005260206000200160009091909190916101000a81548173ffffffffffffffffffffffffffffffffffffffff021916908373ffffffffffffffffffffffffffffffffffffffff1602179055505b34600660003373ffffffffffffffffffffffffffffffffffffffff1673ffffffffffffffffffffffffffffffffffffffff16815260200190815260200160002060008282546117a891906123e5565b925050819055505050505050565b60006004541180156117ca57506000600554115b611809576040517f08c379a00000000000000000000000000000000000000000000000000000000081526004016118009061232a565b60405180910390fd5b6000821161184c576040517f08c379a000000000000000000000000000000000000000000000000000000000815260040161184390612d79565b60405180910390fd5b81600360009054906101000a900473ffffffffffffffffffffffffffffffffffffffff1673ffffffffffffffffffffffffffffffffffffffff166370a08231336040518263ffffffff1660e01b81526004016118a89190612106565b602060405180830381865afa1580156118c5573d6000803e3d6000fd5b505050506040513d601f19601f820116820180604052508101906118e99190612a87565b101561192a576040517f08c379a000000000000000000000000000000000000000000000000000000000815260040161192190612e51565b60405180910390fd5b60008260045461193a91906123e5565b600554846119489190612419565b611952919061248a565b905060095460085460095461196791906124bb565b826119729190612419565b61197c919061248a565b905060018160055461198e91906124bb565b10156119cf576040517f08c379a00000000000000000000000000000000000000000000000000000000081526004016119c6906127e5565b60405180910390fd5b600081670de0b6b3a7640000856119e69190612419565b6119f0919061248a565b905082811115611a35576040517f08c379a0000000000000000000000000000000000000000000000000000000008152600401611a2c906125a7565b60405180910390fd5b600360009054906101000a900473ffffffffffffffffffffffffffffffffffffffff1673ffffffffffffffffffffffffffffffffffffffff166323b872dd3330876040518463ffffffff1660e01b8152600401611a9493929190612bb2565b6020604051808303816000875af1158015611ab3573d6000803e3d6000fd5b505050506040513d601f19601f82011682018060405250810190611ad79190612628565b611b16576040517f08c379a0000000000000000000000000000000000000000000000000000000008152600401611b0d906126a1565b60405180910390fd5b60003373ffffffffffffffffffffffffffffffffffffffff1683604051611b3c90612836565b60006040518083038185875af1925050503d8060008114611b79576040519150601f19603f3d011682016040523d82523d6000602084013e611b7e565b606091505b5050905080611bc2576040517f08c379a0000000000000000000000000000000000000000000000000000000008152600401611bb990612897565b60405180910390fd5b8460046000828254611bd491906123e5565b925050819055508260056000828254611bed91906124bb565b925050819055505050505050565b600080600854600954915091509091565b611c14611e80565b600073ffffffffffffffffffffffffffffffffffffffff168173ffffffffffffffffffffffffffffffffffffffff1603611c83576040517f08c379a0000000000000000000000000000000000000000000000000000000008152600401611c7a90612ee3565b60405180910390fd5b611c8c81611efe565b50565b60018054611c9c90612f32565b80601f0160208091040260200160405190810160405280929190818152602001828054611cc890612f32565b8015611d155780601f10611cea57610100808354040283529160200191611d15565b820191906000526020600020905b815481529060010190602001808311611cf857829003601f168201915b505050505081565b600360009054906101000a900473ffffffffffffffffffffffffffffffffffffffff1681565b6007805490508110611d8a576040517f08c379a0000000000000000000000000000000000000000000000000000000008152600401611d8190612fd5565b60405180910390fd5b60076001600780549050611d9e91906124bb565b81548110611daf57611dae6128b7565b5b9060005260206000200160009054906101000a900473ffffffffffffffffffffffffffffffffffffffff1660078281548110611dee57611ded6128b7565b5b9060005260206000200160006101000a81548173ffffffffffffffffffffffffffffffffffffffff021916908373ffffffffffffffffffffffffffffffffffffffff1602179055506007805480611e4857611e47612ff5565b5b6001900381819060005260206000200160006101000a81549073ffffffffffffffffffffffffffffffffffffffff0219169055905550565b611e88611fc2565b73ffffffffffffffffffffffffffffffffffffffff16611ea66112b4565b73ffffffffffffffffffffffffffffffffffffffff1614611efc576040517f08c379a0000000000000000000000000000000000000000000000000000000008152600401611ef390613070565b60405180910390fd5b565b60008060009054906101000a900473ffffffffffffffffffffffffffffffffffffffff169050816000806101000a81548173ffffffffffffffffffffffffffffffffffffffff021916908373ffffffffffffffffffffffffffffffffffffffff1602179055508173ffffffffffffffffffffffffffffffffffffffff168173ffffffffffffffffffffffffffffffffffffffff167f8be0079c531659141344cd1fd0a4f28419497f9722a3daafe3b4186f6b6457e060405160405180910390a35050565b600033905090565b600080fd5b6000819050919050565b611fe281611fcf565b8114611fed57600080fd5b50565b600081359050611fff81611fd9565b92915050565b60006020828403121561201b5761201a611fca565b5b600061202984828501611ff0565b91505092915050565b6000806040838503121561204957612048611fca565b5b600061205785828601611ff0565b925050602061206885828601611ff0565b9150509250929050565b60008060006060848603121561208b5761208a611fca565b5b600061209986828701611ff0565b93505060206120aa86828701611ff0565b92505060406120bb86828701611ff0565b9150509250925092565b600073ffffffffffffffffffffffffffffffffffffffff82169050919050565b60006120f0826120c5565b9050919050565b612100816120e5565b82525050565b600060208201905061211b60008301846120f7565b92915050565b61212a81611fcf565b82525050565b60006040820190506121456000830185612121565b6121526020830184612121565b9392505050565b612162816120e5565b811461216d57600080fd5b50565b60008135905061217f81612159565b92915050565b60006020828403121561219b5761219a611fca565b5b60006121a984828501612170565b91505092915050565b600081519050919050565b600082825260208201905092915050565b60005b838110156121ec5780820151818401526020810190506121d1565b60008484015250505050565b6000601f19601f8301169050919050565b6000612214826121b2565b61221e81856121bd565b935061222e8185602086016121ce565b612237816121f8565b840191505092915050565b6000602082019050818103600083015261225c8184612209565b905092915050565b6000819050919050565b600061228961228461227f846120c5565b612264565b6120c5565b9050919050565b600061229b8261226e565b9050919050565b60006122ad82612290565b9050919050565b6122bd816122a2565b82525050565b60006020820190506122d860008301846122b4565b92915050565b7f506f6f6c20646f6573206e6f7420657869737400000000000000000000000000600082015250565b60006123146013836121bd565b915061231f826122de565b602082019050919050565b6000602082019050818103600083015261234381612307565b9050919050565b7f4e6f204554482073656e74000000000000000000000000000000000000000000600082015250565b6000612380600b836121bd565b915061238b8261234a565b602082019050919050565b600060208201905081810360008301526123af81612373565b9050919050565b7f4e487b7100000000000000000000000000000000000000000000000000000000600052601160045260246000fd5b60006123f082611fcf565b91506123fb83611fcf565b9250828201905080821115612413576124126123b6565b5b92915050565b600061242482611fcf565b915061242f83611fcf565b925082820261243d81611fcf565b91508282048414831517612454576124536123b6565b5b5092915050565b7f4e487b7100000000000000000000000000000000000000000000000000000000600052601260045260246000fd5b600061249582611fcf565b91506124a083611fcf565b9250826124b0576124af61245b565b5b828204905092915050565b60006124c682611fcf565b91506124d183611fcf565b92508282039050818111156124e9576124e86123b6565b5b92915050565b7f546f6b656e20726573657276657320746f6f206c6f7700000000000000000000600082015250565b60006125256016836121bd565b9150612530826124ef565b602082019050919050565b6000602082019050818103600083015261255481612518565b9050919050565b7f45786368616e6765207261746520746f6f206869676800000000000000000000600082015250565b60006125916016836121bd565b915061259c8261255b565b602082019050919050565b600060208201905081810360008301526125c081612584565b9050919050565b60006040820190506125dc60008301856120f7565b6125e96020830184612121565b9392505050565b60008115159050919050565b612605816125f0565b811461261057600080fd5b50565b600081519050612622816125fc565b92915050565b60006020828403121561263e5761263d611fca565b5b600061264c84828501612613565b91505092915050565b7f546f6b656e207472616e73666572206661696c65640000000000000000000000600082015250565b600061268b6015836121bd565b915061269682612655565b602082019050919050565b600060208201905081810360008301526126ba8161267e565b9050919050565b7f4e6f206c697175696469747920746f2072656d6f766500000000000000000000600082015250565b60006126f76016836121bd565b9150612702826126c1565b602082019050919050565b60006020820190508181036000830152612726816126ea565b9050919050565b7f45786368616e67652072617465206f7574206f6620626f756e64730000000000600082015250565b6000612763601b836121bd565b915061276e8261272d565b602082019050919050565b6000602082019050818103600083015261279281612756565b9050919050565b7f45544820726573657276657320746f6f206c6f77000000000000000000000000600082015250565b60006127cf6014836121bd565b91506127da82612799565b602082019050919050565b600060208201905081810360008301526127fe816127c2565b9050919050565b600081905092915050565b50565b6000612820600083612805565b915061282b82612810565b600082019050919050565b600061284182612813565b9150819050919050565b7f455448207472616e73666572206661696c656400000000000000000000000000600082015250565b60006128816013836121bd565b915061288c8261284b565b602082019050919050565b600060208201905081810360008301526128b081612874565b9050919050565b7f4e487b7100000000000000000000000000000000000000000000000000000000600052603260045260246000fd5b60006128f182611fcf565b91507fffffffffffffffffffffffffffffffffffffffffffffffffffffffffffffffff8203612923576129226123b6565b5b600182019050919050565b7f546f6b656e20726573657276657320776173206e6f7420300000000000000000600082015250565b60006129646018836121bd565b915061296f8261292e565b602082019050919050565b6000602082019050818103600083015261299381612957565b9050919050565b7f45544820726573657276657320776173206e6f7420302e000000000000000000600082015250565b60006129d06017836121bd565b91506129db8261299a565b602082019050919050565b600060208201905081810360008301526129ff816129c3565b9050919050565b7f4e6565642065746820746f2063726561746520706f6f6c2e0000000000000000600082015250565b6000612a3c6018836121bd565b9150612a4782612a06565b602082019050919050565b60006020820190508181036000830152612a6b81612a2f565b9050919050565b600081519050612a8181611fd9565b92915050565b600060208284031215612a9d57612a9c611fca565b5b6000612aab84828501612a72565b91505092915050565b7f4e6f74206861766520656e6f75676820746f6b656e7320746f2063726561746560008201527f2074686520706f6f6c0000000000000000000000000000000000000000000000602082015250565b6000612b106029836121bd565b9150612b1b82612ab4565b604082019050919050565b60006020820190508181036000830152612b3f81612b03565b9050919050565b7f4e65656420746f6b656e7320746f2063726561746520706f6f6c2e0000000000600082015250565b6000612b7c601b836121bd565b9150612b8782612b46565b602082019050919050565b60006020820190508181036000830152612bab81612b6f565b9050919050565b6000606082019050612bc760008301866120f7565b612bd460208301856120f7565b612be16040830184612121565b949350505050565b7f496e76616c69642045544820616d6f756e740000000000000000000000000000600082015250565b6000612c1f6012836121bd565b9150612c2a82612be9565b602082019050919050565b60006020820190508181036000830152612c4e81612c12565b9050919050565b7f506f6f6c206973206e6f74206578697374000000000000000000000000000000600082015250565b6000612c8b6011836121bd565b9150612c9682612c55565b602082019050919050565b60006020820190508181036000830152612cba81612c7e565b9050919050565b7f455448206973206e6f742073656e740000000000000000000000000000000000600082015250565b6000612cf7600f836121bd565b9150612d0282612cc1565b602082019050919050565b60006020820190508181036000830152612d2681612cea565b9050919050565b7f496e76616c696420746f6b656e20616d6f756e74000000000000000000000000600082015250565b6000612d636014836121bd565b9150612d6e82612d2d565b602082019050919050565b60006020820190508181036000830152612d9281612d56565b9050919050565b7f53656e64657220686173206e6f7420656e6f75676820746f6b656e7300000000600082015250565b6000612dcf601c836121bd565b9150612dda82612d99565b602082019050919050565b60006020820190508181036000830152612dfe81612dc2565b9050919050565b7f496e73756666696369656e7420746f6b656e2062616c616e6365000000000000600082015250565b6000612e3b601a836121bd565b9150612e4682612e05565b602082019050919050565b60006020820190508181036000830152612e6a81612e2e565b9050919050565b7f4f776e61626c653a206e6577206f776e657220697320746865207a65726f206160008201527f6464726573730000000000000000000000000000000000000000000000000000602082015250565b6000612ecd6026836121bd565b9150612ed882612e71565b604082019050919050565b60006020820190508181036000830152612efc81612ec0565b9050919050565b7f4e487b7100000000000000000000000000000000000000000000000000000000600052602260045260246000fd5b60006002820490506001821680612f4a57607f821691505b602082108103612f5d57612f5c612f03565b5b50919050565b7f73706563696669656420696e646578206973206c6172676572207468616e207460008201527f6865206e756d626572206f66206c707300000000000000000000000000000000602082015250565b6000612fbf6030836121bd565b9150612fca82612f63565b604082019050919050565b60006020820190508181036000830152612fee81612fb2565b9050919050565b7f4e487b7100000000000000000000000000000000000000000000000000000000600052603160045260246000fd5b7f4f776e61626c653a2063616c6c6572206973206e6f7420746865206f776e6572600082015250565b600061305a6020836121bd565b915061306582613024565b602082019050919050565b600060208201905081810360008301526130898161304d565b905091905056fea264697066735822122069b01abe634e9bdf03e446428d681c2ac89635a8f68bec6478e03fa83c10076364736f6c63430008110033",
  "linkReferences": {},
  "deployedLinkReferences": {}
}