{
  "_format": "hh-sol-artifact-1",
  "contractName": "TokenExchange",
  "sourceName": "contracts/exchange.sol",
  "abi": [
    {
      "inputs": [],
      "stateMutability": "nonpayable",
      "type": "constructor"
    },
    {
      "anonymous": false,
      "inputs": [
        {
          "indexed": true,
          "internalType": "address",
          "name": "previousOwner",
          "type": "address"
        },
        {
          "indexed": true,
          "internalType": "address",
          "name": "newOwner",
          "type": "address"
        }
      ],
      "name": "OwnershipTransferred",
      "type": "event"
    },
    {
      "inputs": [
        {
          "internalType": "uint256",
          "name": "max_exchange_rate",
          "type": "uint256"
        },
        {
          "internalType": "uint256",
          "name": "min_exchange_rate",
          "type": "uint256"
        }
      ],
      "name": "addLiquidity",
      "outputs": [],
      "stateMutability": "payable",
      "type": "function"
    },
    {
      "inputs": [
        {
          "internalType": "uint256",
          "name": "amountTokens",
          "type": "uint256"
        }
      ],
      "name": "createPool",
      "outputs": [],
      "stateMutability": "payable",
      "type": "function"
    },
    {
      "inputs": [],
      "name": "exchange_name",
      "outputs": [
        {
          "internalType": "string",
          "name": "",
          "type": "string"
        }
      ],
      "stateMutability": "view",
      "type": "function"
    },
    {
      "inputs": [],
      "name": "getCurrentRate",
      "outputs": [
        {
          "internalType": "uint256",
          "name": "",
          "type": "uint256"
        }
      ],
      "stateMutability": "view",
      "type": "function"
    },
    {
      "inputs": [],
      "name": "getEthReserves",
      "outputs": [
        {
          "internalType": "uint256",
          "name": "",
          "type": "uint256"
        }
      ],
      "stateMutability": "view",
      "type": "function"
    },
    {
      "inputs": [],
      "name": "getSwapFee",
      "outputs": [
        {
          "internalType": "uint256",
          "name": "",
          "type": "uint256"
        },
        {
          "internalType": "uint256",
          "name": "",
          "type": "uint256"
        }
      ],
      "stateMutability": "view",
      "type": "function"
    },
    {
      "inputs": [],
      "name": "getTokenReserves",
      "outputs": [
        {
          "internalType": "uint256",
          "name": "",
          "type": "uint256"
        }
      ],
      "stateMutability": "view",
      "type": "function"
    },
    {
      "inputs": [],
      "name": "owner",
      "outputs": [
        {
          "internalType": "address",
          "name": "",
          "type": "address"
        }
      ],
      "stateMutability": "view",
      "type": "function"
    },
    {
      "inputs": [
        {
          "internalType": "uint256",
          "name": "max_exchange_rate",
          "type": "uint256"
        },
        {
          "internalType": "uint256",
          "name": "min_exchange_rate",
          "type": "uint256"
        }
      ],
      "name": "removeAllLiquidity",
      "outputs": [],
      "stateMutability": "payable",
      "type": "function"
    },
    {
      "inputs": [
        {
          "internalType": "uint256",
          "name": "amountETH",
          "type": "uint256"
        },
        {
          "internalType": "uint256",
          "name": "max_exchange_rate",
          "type": "uint256"
        },
        {
          "internalType": "uint256",
          "name": "min_exchange_rate",
          "type": "uint256"
        }
      ],
      "name": "removeLiquidity",
      "outputs": [],
      "stateMutability": "payable",
      "type": "function"
    },
    {
      "inputs": [],
      "name": "renounceOwnership",
      "outputs": [],
      "stateMutability": "nonpayable",
      "type": "function"
    },
    {
      "inputs": [
        {
          "internalType": "uint256",
          "name": "max_exchange_rate",
          "type": "uint256"
        }
      ],
      "name": "swapETHForTokens",
      "outputs": [],
      "stateMutability": "payable",
      "type": "function"
    },
    {
      "inputs": [
        {
          "internalType": "uint256",
          "name": "amountTokens",
          "type": "uint256"
        },
        {
          "internalType": "uint256",
          "name": "max_exchange_rate",
          "type": "uint256"
        }
      ],
      "name": "swapTokensForETH",
      "outputs": [],
      "stateMutability": "payable",
      "type": "function"
    },
    {
      "inputs": [],
      "name": "token",
      "outputs": [
        {
          "internalType": "contract Token",
          "name": "",
          "type": "address"
        }
      ],
      "stateMutability": "view",
      "type": "function"
    },
    {
      "inputs": [
        {
          "internalType": "address",
          "name": "newOwner",
          "type": "address"
        }
      ],
      "name": "transferOwnership",
      "outputs": [],
      "stateMutability": "nonpayable",
      "type": "function"
    }
  ],
  "bytecode": "0x6080604052604051806020016040528060008152506001908162000024919062000470565b50735fbdb2315678afecb367f032d93f642f64180aa3600260006101000a81548173ffffffffffffffffffffffffffffffffffffffff021916908373ffffffffffffffffffffffffffffffffffffffff160217905550600260009054906101000a900473ffffffffffffffffffffffffffffffffffffffff16600360006101000a81548173ffffffffffffffffffffffffffffffffffffffff021916908373ffffffffffffffffffffffffffffffffffffffff1602179055506000600455600060055560006007556003600a556064600b553480156200010357600080fd5b5062000124620001186200012a60201b60201c565b6200013260201b60201c565b62000557565b600033905090565b60008060009054906101000a900473ffffffffffffffffffffffffffffffffffffffff169050816000806101000a81548173ffffffffffffffffffffffffffffffffffffffff021916908373ffffffffffffffffffffffffffffffffffffffff1602179055508173ffffffffffffffffffffffffffffffffffffffff168173ffffffffffffffffffffffffffffffffffffffff167f8be0079c531659141344cd1fd0a4f28419497f9722a3daafe3b4186f6b6457e060405160405180910390a35050565b600081519050919050565b7f4e487b7100000000000000000000000000000000000000000000000000000000600052604160045260246000fd5b7f4e487b7100000000000000000000000000000000000000000000000000000000600052602260045260246000fd5b600060028204905060018216806200027857607f821691505b6020821081036200028e576200028d62000230565b5b50919050565b60008190508160005260206000209050919050565b60006020601f8301049050919050565b600082821b905092915050565b600060088302620002f87fffffffffffffffffffffffffffffffffffffffffffffffffffffffffffffffff82620002b9565b620003048683620002b9565b95508019841693508086168417925050509392505050565b6000819050919050565b6000819050919050565b6000620003516200034b62000345846200031c565b62000326565b6200031c565b9050919050565b6000819050919050565b6200036d8362000330565b620003856200037c8262000358565b848454620002c6565b825550505050565b600090565b6200039c6200038d565b620003a981848462000362565b505050565b5b81811015620003d157620003c560008262000392565b600181019050620003af565b5050565b601f8211156200042057620003ea8162000294565b620003f584620002a9565b8101602085101562000405578190505b6200041d6200041485620002a9565b830182620003ae565b50505b505050565b600082821c905092915050565b6000620004456000198460080262000425565b1980831691505092915050565b600062000460838362000432565b9150826002028217905092915050565b6200047b82620001f6565b67ffffffffffffffff81111562000497576200049662000201565b5b620004a382546200025f565b620004b0828285620003d5565b600060209050601f831160018114620004e85760008415620004d3578287015190505b620004df858262000452565b8655506200054f565b601f198416620004f88662000294565b60005b828110156200052257848901518255600182019150602085019450602081019050620004fb565b868310156200054257848901516200053e601f89168262000432565b8355505b6001600288020188555050505b505050505050565b61356b80620005676000396000f3fe6080604052600436106100e85760003560e01c80639cd441da1161008a578063f2fde38b11610059578063f2fde38b14610259578063f694f7d114610282578063f7fb07b0146102ad578063fc0c546a146102d8576100e8565b80639cd441da146101ca578063a22280a6146101e6578063b9cf500514610202578063d4cadf681461022d576100e8565b80638259e6a0116100c65780638259e6a01461013c578063857620e1146101585780638c330969146101745780638da5cb5b1461019f576100e8565b80632eab2841146100ed57806358ad6de414610109578063715018a614610125575b600080fd5b610107600480360381019061010291906122df565b610303565b005b610123600480360381019061011e919061230c565b610631565b005b34801561013157600080fd5b5061013a610bcf565b005b610156600480360381019061015191906122df565b610be3565b005b610172600480360381019061016d919061234c565b610f44565b005b34801561018057600080fd5b50610189611571565b60405161019691906123ae565b60405180910390f35b3480156101ab57600080fd5b506101b461157b565b6040516101c1919061240a565b60405180910390f35b6101e460048036038101906101df919061230c565b6115a4565b005b61020060048036038101906101fb919061230c565b611b61565b005b34801561020e57600080fd5b50610217611e9c565b60405161022491906123ae565b60405180910390f35b34801561023957600080fd5b50610242611ea6565b604051610250929190612425565b60405180910390f35b34801561026557600080fd5b50610280600480360381019061027b919061247a565b611eb7565b005b34801561028e57600080fd5b50610297611f3a565b6040516102a49190612537565b60405180910390f35b3480156102b957600080fd5b506102c2611fc8565b6040516102cf91906123ae565b60405180910390f35b3480156102e457600080fd5b506102ed611ff7565b6040516102fa91906125b8565b60405180910390f35b60003411610346576040517f08c379a000000000000000000000000000000000000000000000000000000000815260040161033d9061261f565b60405180910390fd5b60003490506000600b54600a548361035e919061266e565b61036891906126df565b9050600081836103789190612710565b905060008160055461038a9190612744565b9050600081600c5461039c91906126df565b90506000816004546103ae9190612710565b905060016004546103bf9190612710565b8110610400576040517f08c379a00000000000000000000000000000000000000000000000000000000081526004016103f7906127c4565b60405180910390fd5b8686670de0b6b3a764000083610416919061266e565b61042091906126df565b1115610461576040517f08c379a000000000000000000000000000000000000000000000000000000000815260040161045890612830565b60405180910390fd5b80600360009054906101000a900473ffffffffffffffffffffffffffffffffffffffff1673ffffffffffffffffffffffffffffffffffffffff166370a08231306040518263ffffffff1660e01b81526004016104bd919061240a565b602060405180830381865afa1580156104da573d6000803e3d6000fd5b505050506040513d601f19601f820116820180604052508101906104fe9190612865565b101561053f576040517f08c379a0000000000000000000000000000000000000000000000000000000008152600401610536906128de565b60405180910390fd5b83600560008282546105519190612744565b92505081905550806004600082825461056a9190612710565b92505081905550600554600454610581919061266e565b600c81905550600360009054906101000a900473ffffffffffffffffffffffffffffffffffffffff1673ffffffffffffffffffffffffffffffffffffffff1663a9059cbb33836040518363ffffffff1660e01b81526004016105e49291906128fe565b6020604051808303816000875af1158015610603573d6000803e3d6000fd5b505050506040513d601f19601f82011682018060405250810190610627919061295f565b5050505050505050565b600060045411801561064557506000600554115b610684576040517f08c379a000000000000000000000000000000000000000000000000000000000815260040161067b906129d8565b60405180910390fd5b6000600660003373ffffffffffffffffffffffffffffffffffffffff1673ffffffffffffffffffffffffffffffffffffffff1681526020019081526020016000205411610706576040517f08c379a00000000000000000000000000000000000000000000000000000000081526004016106fd90612a44565b60405180910390fd5b6000600554670de0b6b3a7640000600454610721919061266e565b61072b91906126df565b905081811015801561073d5750828111155b61077c576040517f08c379a000000000000000000000000000000000000000000000000000000000815260040161077390612ab0565b60405180910390fd5b6000600660003373ffffffffffffffffffffffffffffffffffffffff1673ffffffffffffffffffffffffffffffffffffffff1681526020019081526020016000205490506000600554600454836107d3919061266e565b6107dd91906126df565b90506000600860003373ffffffffffffffffffffffffffffffffffffffff1673ffffffffffffffffffffffffffffffffffffffff168152602001908152602001600020549050826005541015610868576040517f08c379a000000000000000000000000000000000000000000000000000000000815260040161085f90612b1c565b60405180910390fd5b8160045410156108ad576040517f08c379a00000000000000000000000000000000000000000000000000000000081526004016108a490612b88565b60405180910390fd5b6000600860003373ffffffffffffffffffffffffffffffffffffffff1673ffffffffffffffffffffffffffffffffffffffff1681526020019081526020016000208190555080600760008282546109049190612710565b925050819055506000600660003373ffffffffffffffffffffffffffffffffffffffff1673ffffffffffffffffffffffffffffffffffffffff1681526020019081526020016000208190555082600560008282546109629190612710565b92505081905550816004600082825461097b9190612710565b92505081905550600554600454610992919061266e565b600c81905550600360009054906101000a900473ffffffffffffffffffffffffffffffffffffffff1673ffffffffffffffffffffffffffffffffffffffff1663a9059cbb33846040518363ffffffff1660e01b81526004016109f59291906128fe565b6020604051808303816000875af1158015610a14573d6000803e3d6000fd5b505050506040513d601f19601f82011682018060405250810190610a38919061295f565b610a77576040517f08c379a0000000000000000000000000000000000000000000000000000000008152600401610a6e90612bf4565b60405180910390fd5b60003373ffffffffffffffffffffffffffffffffffffffff1684604051610a9d90612c45565b60006040518083038185875af1925050503d8060008114610ada576040519150601f19603f3d011682016040523d82523d6000602084013e610adf565b606091505b5050905080610b23576040517f08c379a0000000000000000000000000000000000000000000000000000000008152600401610b1a90612ca6565b60405180910390fd5b60005b600980549050811015610bc5573373ffffffffffffffffffffffffffffffffffffffff1660098281548110610b5e57610b5d612cc6565b5b9060005260206000200160009054906101000a900473ffffffffffffffffffffffffffffffffffffffff1673ffffffffffffffffffffffffffffffffffffffff1603610bb257610bad8161201d565b610bc5565b8080610bbd90612cf5565b915050610b26565b5050505050505050565b610bd761215a565b610be160006121d8565b565b610beb61215a565b600060045414610c30576040517f08c379a0000000000000000000000000000000000000000000000000000000008152600401610c2790612d89565b60405180910390fd5b600060055414610c75576040517f08c379a0000000000000000000000000000000000000000000000000000000008152600401610c6c90612df5565b60405180910390fd5b60003411610cb8576040517f08c379a0000000000000000000000000000000000000000000000000000000008152600401610caf90612e61565b60405180910390fd5b6000600360009054906101000a900473ffffffffffffffffffffffffffffffffffffffff1673ffffffffffffffffffffffffffffffffffffffff166370a08231336040518263ffffffff1660e01b8152600401610d15919061240a565b602060405180830381865afa158015610d32573d6000803e3d6000fd5b505050506040513d601f19601f82011682018060405250810190610d569190612865565b905080821115610d9b576040517f08c379a0000000000000000000000000000000000000000000000000000000008152600401610d9290612ef3565b60405180910390fd5b60008211610dde576040517f08c379a0000000000000000000000000000000000000000000000000000000008152600401610dd590612f5f565b60405180910390fd5b600360009054906101000a900473ffffffffffffffffffffffffffffffffffffffff1673ffffffffffffffffffffffffffffffffffffffff166323b872dd3330856040518463ffffffff1660e01b8152600401610e3d93929190612f7f565b6020604051808303816000875af1158015610e5c573d6000803e3d6000fd5b505050506040513d601f19601f82011682018060405250810190610e80919061295f565b50600360009054906101000a900473ffffffffffffffffffffffffffffffffffffffff1673ffffffffffffffffffffffffffffffffffffffff166370a08231306040518263ffffffff1660e01b8152600401610edc919061240a565b602060405180830381865afa158015610ef9573d6000803e3d6000fd5b505050506040513d601f19601f82011682018060405250810190610f1d9190612865565b60048190555034600581905550600554600454610f3a919061266e565b600c819055505050565b6000600454118015610f5857506000600554115b610f97576040517f08c379a0000000000000000000000000000000000000000000000000000000008152600401610f8e906129d8565b60405180910390fd5b600083118015610fe65750600660003373ffffffffffffffffffffffffffffffffffffffff1673ffffffffffffffffffffffffffffffffffffffff168152602001908152602001600020548311155b611025576040517f08c379a000000000000000000000000000000000000000000000000000000000815260040161101c90613002565b60405180910390fd5b6000600554670de0b6b3a7640000600454611040919061266e565b61104a91906126df565b905081811015801561105c5750828111155b61109b576040517f08c379a000000000000000000000000000000000000000000000000000000000815260040161109290612ab0565b60405180910390fd5b6000600554600454866110ae919061266e565b6110b891906126df565b90506000600554600754876110cd919061266e565b6110d791906126df565b905085600554101561111e576040517f08c379a000000000000000000000000000000000000000000000000000000000815260040161111590612b1c565b60405180910390fd5b816004541015611163576040517f08c379a000000000000000000000000000000000000000000000000000000000815260040161115a90612b88565b60405180910390fd5b600860003373ffffffffffffffffffffffffffffffffffffffff1673ffffffffffffffffffffffffffffffffffffffff168152602001908152602001600020548111156111e5576040517f08c379a00000000000000000000000000000000000000000000000000000000081526004016111dc9061306e565b60405180910390fd5b80600860003373ffffffffffffffffffffffffffffffffffffffff1673ffffffffffffffffffffffffffffffffffffffff16815260200190815260200160002060008282546112349190612710565b92505081905550806007600082825461124d9190612710565b9250508190555085600660003373ffffffffffffffffffffffffffffffffffffffff1673ffffffffffffffffffffffffffffffffffffffff16815260200190815260200160002060008282546112a39190612710565b9250508190555085600560008282546112bc9190612710565b9250508190555081600460008282546112d59190612710565b925050819055506005546004546112ec919061266e565b600c81905550600360009054906101000a900473ffffffffffffffffffffffffffffffffffffffff1673ffffffffffffffffffffffffffffffffffffffff1663a9059cbb33846040518363ffffffff1660e01b815260040161134f9291906128fe565b6020604051808303816000875af115801561136e573d6000803e3d6000fd5b505050506040513d601f19601f82011682018060405250810190611392919061295f565b6113d1576040517f08c379a00000000000000000000000000000000000000000000000000000000081526004016113c890612bf4565b60405180910390fd5b60003373ffffffffffffffffffffffffffffffffffffffff16876040516113f790612c45565b60006040518083038185875af1925050503d8060008114611434576040519150601f19603f3d011682016040523d82523d6000602084013e611439565b606091505b505090508061147d576040517f08c379a000000000000000000000000000000000000000000000000000000000815260040161147490612ca6565b60405180910390fd5b6000600660003373ffffffffffffffffffffffffffffffffffffffff1673ffffffffffffffffffffffffffffffffffffffff16815260200190815260200160002054036115685760005b600980549050811015611566573373ffffffffffffffffffffffffffffffffffffffff16600982815481106114ff576114fe612cc6565b5b9060005260206000200160009054906101000a900473ffffffffffffffffffffffffffffffffffffffff1673ffffffffffffffffffffffffffffffffffffffff16036115535761154e8161201d565b611566565b808061155e90612cf5565b9150506114c7565b505b50505050505050565b6000600554905090565b60008060009054906101000a900473ffffffffffffffffffffffffffffffffffffffff16905090565b60006004541180156115b857506000600554115b6115f7576040517f08c379a00000000000000000000000000000000000000000000000000000000081526004016115ee906130da565b60405180910390fd5b6000341161163a576040517f08c379a000000000000000000000000000000000000000000000000000000000815260040161163190613146565b60405180910390fd5b6000600554670de0b6b3a7640000600454611655919061266e565b61165f91906126df565b90508181101580156116715750828111155b6116b0576040517f08c379a00000000000000000000000000000000000000000000000000000000081526004016116a790612ab0565b60405180910390fd5b6000600554600454346116c3919061266e565b6116cd91906126df565b905060008111611712576040517f08c379a0000000000000000000000000000000000000000000000000000000008152600401611709906131b2565b60405180910390fd5b80600360009054906101000a900473ffffffffffffffffffffffffffffffffffffffff1673ffffffffffffffffffffffffffffffffffffffff166370a08231336040518263ffffffff1660e01b815260040161176e919061240a565b602060405180830381865afa15801561178b573d6000803e3d6000fd5b505050506040513d601f19601f820116820180604052508101906117af9190612865565b116117ef576040517f08c379a00000000000000000000000000000000000000000000000000000000081526004016117e69061321e565b60405180910390fd5b600360009054906101000a900473ffffffffffffffffffffffffffffffffffffffff1673ffffffffffffffffffffffffffffffffffffffff166323b872dd3330846040518463ffffffff1660e01b815260040161184e93929190612f7f565b6020604051808303816000875af115801561186d573d6000803e3d6000fd5b505050506040513d601f19601f82011682018060405250810190611891919061295f565b6118d0576040517f08c379a00000000000000000000000000000000000000000000000000000000081526004016118c790612bf4565b60405180910390fd5b600080600754036118e357349050611901565b600554600754346118f4919061266e565b6118fe91906126df565b90505b60008111611944576040517f08c379a000000000000000000000000000000000000000000000000000000000815260040161193b9061328a565b60405180910390fd5b80600860003373ffffffffffffffffffffffffffffffffffffffff1673ffffffffffffffffffffffffffffffffffffffff16815260200190815260200160002060008282546119939190612744565b9250508190555080600760008282546119ac9190612744565b9250508190555081600460008282546119c59190612744565b9250508190555034600560008282546119de9190612744565b925050819055506005546004546119f5919061266e565b600c819055506000805b600980549050811015611a99573373ffffffffffffffffffffffffffffffffffffffff1660098281548110611a3757611a36612cc6565b5b9060005260206000200160009054906101000a900473ffffffffffffffffffffffffffffffffffffffff1673ffffffffffffffffffffffffffffffffffffffff1603611a865760019150611a99565b8080611a9190612cf5565b9150506119ff565b5080611b03576009339080600181540180825580915050600190039060005260206000200160009091909190916101000a81548173ffffffffffffffffffffffffffffffffffffffff021916908373ffffffffffffffffffffffffffffffffffffffff1602179055505b34600660003373ffffffffffffffffffffffffffffffffffffffff1673ffffffffffffffffffffffffffffffffffffffff1681526020019081526020016000206000828254611b529190612744565b92505081905550505050505050565b600082118015611c0c575081600360009054906101000a900473ffffffffffffffffffffffffffffffffffffffff1673ffffffffffffffffffffffffffffffffffffffff166370a08231336040518263ffffffff1660e01b8152600401611bc8919061240a565b602060405180830381865afa158015611be5573d6000803e3d6000fd5b505050506040513d601f19601f82011682018060405250810190611c099190612865565b10155b611c4b576040517f08c379a0000000000000000000000000000000000000000000000000000000008152600401611c42906131b2565b60405180910390fd5b6000600b54600a5484611c5e919061266e565b611c6891906126df565b905060008184611c789190612710565b9050600081600454611c8a9190612744565b9050600081600c54611c9c91906126df565b9050600081600554611cae9190612710565b90506001600554611cbf9190612710565b8110611d00576040517f08c379a0000000000000000000000000000000000000000000000000000000008152600401611cf7906132f6565b60405180910390fd5b8587670de0b6b3a764000083611d16919061266e565b611d2091906126df565b1115611d61576040517f08c379a0000000000000000000000000000000000000000000000000000000008152600401611d5890612830565b60405180910390fd5b600360009054906101000a900473ffffffffffffffffffffffffffffffffffffffff1673ffffffffffffffffffffffffffffffffffffffff166323b872dd33308a6040518463ffffffff1660e01b8152600401611dc093929190612f7f565b6020604051808303816000875af1158015611ddf573d6000803e3d6000fd5b505050506040513d601f19601f82011682018060405250810190611e03919061295f565b503373ffffffffffffffffffffffffffffffffffffffff166108fc829081150290604051600060405180830381858888f19350505050158015611e4a573d6000803e3d6000fd5b508360046000828254611e5d9190612744565b925050819055508060056000828254611e769190612710565b92505081905550600554600454611e8d919061266e565b600c8190555050505050505050565b6000600454905090565b600080600a54600b54915091509091565b611ebf61215a565b600073ffffffffffffffffffffffffffffffffffffffff168173ffffffffffffffffffffffffffffffffffffffff1603611f2e576040517f08c379a0000000000000000000000000000000000000000000000000000000008152600401611f2590613388565b60405180910390fd5b611f37816121d8565b50565b60018054611f47906133d7565b80601f0160208091040260200160405190810160405280929190818152602001828054611f73906133d7565b8015611fc05780601f10611f9557610100808354040283529160200191611fc0565b820191906000526020600020905b815481529060010190602001808311611fa357829003601f168201915b505050505081565b600080600554670de0b6b3a7640000600454611fe4919061266e565b611fee91906126df565b90508091505090565b600360009054906101000a900473ffffffffffffffffffffffffffffffffffffffff1681565b6009805490508110612064576040517f08c379a000000000000000000000000000000000000000000000000000000000815260040161205b9061347a565b60405180910390fd5b600960016009805490506120789190612710565b8154811061208957612088612cc6565b5b9060005260206000200160009054906101000a900473ffffffffffffffffffffffffffffffffffffffff16600982815481106120c8576120c7612cc6565b5b9060005260206000200160006101000a81548173ffffffffffffffffffffffffffffffffffffffff021916908373ffffffffffffffffffffffffffffffffffffffff16021790555060098054806121225761212161349a565b5b6001900381819060005260206000200160006101000a81549073ffffffffffffffffffffffffffffffffffffffff0219169055905550565b61216261229c565b73ffffffffffffffffffffffffffffffffffffffff1661218061157b565b73ffffffffffffffffffffffffffffffffffffffff16146121d6576040517f08c379a00000000000000000000000000000000000000000000000000000000081526004016121cd90613515565b60405180910390fd5b565b60008060009054906101000a900473ffffffffffffffffffffffffffffffffffffffff169050816000806101000a81548173ffffffffffffffffffffffffffffffffffffffff021916908373ffffffffffffffffffffffffffffffffffffffff1602179055508173ffffffffffffffffffffffffffffffffffffffff168173ffffffffffffffffffffffffffffffffffffffff167f8be0079c531659141344cd1fd0a4f28419497f9722a3daafe3b4186f6b6457e060405160405180910390a35050565b600033905090565b600080fd5b6000819050919050565b6122bc816122a9565b81146122c757600080fd5b50565b6000813590506122d9816122b3565b92915050565b6000602082840312156122f5576122f46122a4565b5b6000612303848285016122ca565b91505092915050565b60008060408385031215612323576123226122a4565b5b6000612331858286016122ca565b9250506020612342858286016122ca565b9150509250929050565b600080600060608486031215612365576123646122a4565b5b6000612373868287016122ca565b9350506020612384868287016122ca565b9250506040612395868287016122ca565b9150509250925092565b6123a8816122a9565b82525050565b60006020820190506123c3600083018461239f565b92915050565b600073ffffffffffffffffffffffffffffffffffffffff82169050919050565b60006123f4826123c9565b9050919050565b612404816123e9565b82525050565b600060208201905061241f60008301846123fb565b92915050565b600060408201905061243a600083018561239f565b612447602083018461239f565b9392505050565b612457816123e9565b811461246257600080fd5b50565b6000813590506124748161244e565b92915050565b6000602082840312156124905761248f6122a4565b5b600061249e84828501612465565b91505092915050565b600081519050919050565b600082825260208201905092915050565b60005b838110156124e15780820151818401526020810190506124c6565b60008484015250505050565b6000601f19601f8301169050919050565b6000612509826124a7565b61251381856124b2565b93506125238185602086016124c3565b61252c816124ed565b840191505092915050565b6000602082019050818103600083015261255181846124fe565b905092915050565b6000819050919050565b600061257e612579612574846123c9565b612559565b6123c9565b9050919050565b600061259082612563565b9050919050565b60006125a282612585565b9050919050565b6125b281612597565b82525050565b60006020820190506125cd60008301846125a9565b92915050565b7f4d7573742073656e642045544800000000000000000000000000000000000000600082015250565b6000612609600d836124b2565b9150612614826125d3565b602082019050919050565b60006020820190508181036000830152612638816125fc565b9050919050565b7f4e487b7100000000000000000000000000000000000000000000000000000000600052601160045260246000fd5b6000612679826122a9565b9150612684836122a9565b9250828202612692816122a9565b915082820484148315176126a9576126a861263f565b5b5092915050565b7f4e487b7100000000000000000000000000000000000000000000000000000000600052601260045260246000fd5b60006126ea826122a9565b91506126f5836122a9565b925082612705576127046126b0565b5b828204905092915050565b600061271b826122a9565b9150612726836122a9565b925082820390508181111561273e5761273d61263f565b5b92915050565b600061274f826122a9565b915061275a836122a9565b92508282019050808211156127725761277161263f565b5b92915050565b7f4d757374206c65617665206174206c65617374203120746f6b656e0000000000600082015250565b60006127ae601b836124b2565b91506127b982612778565b602082019050919050565b600060208201905081810360008301526127dd816127a1565b9050919050565b7f556e61636365707461626c652072617465000000000000000000000000000000600082015250565b600061281a6011836124b2565b9150612825826127e4565b602082019050919050565b600060208201905081810360008301526128498161280d565b9050919050565b60008151905061285f816122b3565b92915050565b60006020828403121561287b5761287a6122a4565b5b600061288984828501612850565b91505092915050565b7f4e6f7420656e6f75676820746f6b656e7320696e20706f6f6c00000000000000600082015250565b60006128c86019836124b2565b91506128d382612892565b602082019050919050565b600060208201905081810360008301526128f7816128bb565b9050919050565b600060408201905061291360008301856123fb565b612920602083018461239f565b9392505050565b60008115159050919050565b61293c81612927565b811461294757600080fd5b50565b60008151905061295981612933565b92915050565b600060208284031215612975576129746122a4565b5b60006129838482850161294a565b91505092915050565b7f506f6f6c20646f6573206e6f7420657869737400000000000000000000000000600082015250565b60006129c26013836124b2565b91506129cd8261298c565b602082019050919050565b600060208201905081810360008301526129f1816129b5565b9050919050565b7f4e6f206c697175696469747920746f2072656d6f766500000000000000000000600082015250565b6000612a2e6016836124b2565b9150612a39826129f8565b602082019050919050565b60006020820190508181036000830152612a5d81612a21565b9050919050565b7f45786368616e67652072617465206f7574206f6620626f756e64730000000000600082015250565b6000612a9a601b836124b2565b9150612aa582612a64565b602082019050919050565b60006020820190508181036000830152612ac981612a8d565b9050919050565b7f45544820726573657276657320746f6f206c6f77000000000000000000000000600082015250565b6000612b066014836124b2565b9150612b1182612ad0565b602082019050919050565b60006020820190508181036000830152612b3581612af9565b9050919050565b7f546f6b656e20726573657276657320746f6f206c6f7700000000000000000000600082015250565b6000612b726016836124b2565b9150612b7d82612b3c565b602082019050919050565b60006020820190508181036000830152612ba181612b65565b9050919050565b7f546f6b656e207472616e73666572206661696c65640000000000000000000000600082015250565b6000612bde6015836124b2565b9150612be982612ba8565b602082019050919050565b60006020820190508181036000830152612c0d81612bd1565b9050919050565b600081905092915050565b50565b6000612c2f600083612c14565b9150612c3a82612c1f565b600082019050919050565b6000612c5082612c22565b9150819050919050565b7f455448207472616e73666572206661696c656400000000000000000000000000600082015250565b6000612c906013836124b2565b9150612c9b82612c5a565b602082019050919050565b60006020820190508181036000830152612cbf81612c83565b9050919050565b7f4e487b7100000000000000000000000000000000000000000000000000000000600052603260045260246000fd5b6000612d00826122a9565b91507fffffffffffffffffffffffffffffffffffffffffffffffffffffffffffffffff8203612d3257612d3161263f565b5b600182019050919050565b7f546f6b656e20726573657276657320776173206e6f7420300000000000000000600082015250565b6000612d736018836124b2565b9150612d7e82612d3d565b602082019050919050565b60006020820190508181036000830152612da281612d66565b9050919050565b7f45544820726573657276657320776173206e6f7420302e000000000000000000600082015250565b6000612ddf6017836124b2565b9150612dea82612da9565b602082019050919050565b60006020820190508181036000830152612e0e81612dd2565b9050919050565b7f4e6565642065746820746f2063726561746520706f6f6c2e0000000000000000600082015250565b6000612e4b6018836124b2565b9150612e5682612e15565b602082019050919050565b60006020820190508181036000830152612e7a81612e3e565b9050919050565b7f4e6f74206861766520656e6f75676820746f6b656e7320746f2063726561746560008201527f2074686520706f6f6c0000000000000000000000000000000000000000000000602082015250565b6000612edd6029836124b2565b9150612ee882612e81565b604082019050919050565b60006020820190508181036000830152612f0c81612ed0565b9050919050565b7f4e65656420746f6b656e7320746f2063726561746520706f6f6c2e0000000000600082015250565b6000612f49601b836124b2565b9150612f5482612f13565b602082019050919050565b60006020820190508181036000830152612f7881612f3c565b9050919050565b6000606082019050612f9460008301866123fb565b612fa160208301856123fb565b612fae604083018461239f565b949350505050565b7f496e76616c69642045544820616d6f756e740000000000000000000000000000600082015250565b6000612fec6012836124b2565b9150612ff782612fb6565b602082019050919050565b6000602082019050818103600083015261301b81612fdf565b9050919050565b7f496e73756666696369656e742073686172657300000000000000000000000000600082015250565b60006130586013836124b2565b915061306382613022565b602082019050919050565b600060208201905081810360008301526130878161304b565b9050919050565b7f506f6f6c206973206e6f74206578697374000000000000000000000000000000600082015250565b60006130c46011836124b2565b91506130cf8261308e565b602082019050919050565b600060208201905081810360008301526130f3816130b7565b9050919050565b7f455448206973206e6f742073656e740000000000000000000000000000000000600082015250565b6000613130600f836124b2565b915061313b826130fa565b602082019050919050565b6000602082019050818103600083015261315f81613123565b9050919050565b7f496e76616c696420746f6b656e20616d6f756e74000000000000000000000000600082015250565b600061319c6014836124b2565b91506131a782613166565b602082019050919050565b600060208201905081810360008301526131cb8161318f565b9050919050565b7f53656e64657220686173206e6f7420656e6f75676820746f6b656e7300000000600082015250565b6000613208601c836124b2565b9150613213826131d2565b602082019050919050565b60006020820190508181036000830152613237816131fb565b9050919050565b7f5a65726f20736861726573000000000000000000000000000000000000000000600082015250565b6000613274600b836124b2565b915061327f8261323e565b602082019050919050565b600060208201905081810360008301526132a381613267565b9050919050565b7f4d757374206c65617665206174206c6561737420312077656920455448000000600082015250565b60006132e0601d836124b2565b91506132eb826132aa565b602082019050919050565b6000602082019050818103600083015261330f816132d3565b9050919050565b7f4f776e61626c653a206e6577206f776e657220697320746865207a65726f206160008201527f6464726573730000000000000000000000000000000000000000000000000000602082015250565b60006133726026836124b2565b915061337d82613316565b604082019050919050565b600060208201905081810360008301526133a181613365565b9050919050565b7f4e487b7100000000000000000000000000000000000000000000000000000000600052602260045260246000fd5b600060028204905060018216806133ef57607f821691505b602082108103613402576134016133a8565b5b50919050565b7f73706563696669656420696e646578206973206c6172676572207468616e207460008201527f6865206e756d626572206f66206c707300000000000000000000000000000000602082015250565b60006134646030836124b2565b915061346f82613408565b604082019050919050565b6000602082019050818103600083015261349381613457565b9050919050565b7f4e487b7100000000000000000000000000000000000000000000000000000000600052603160045260246000fd5b7f4f776e61626c653a2063616c6c6572206973206e6f7420746865206f776e6572600082015250565b60006134ff6020836124b2565b915061350a826134c9565b602082019050919050565b6000602082019050818103600083015261352e816134f2565b905091905056fea2646970667358221220c9d4cba99f1201c5d58615d45da42c19f3dbf0e612be891bd84d1e18793317b464736f6c63430008110033",
  "linkReferences": {},
  "deployedLinkReferences": {}
}