{"contracts/exchange.sol":{"TokenExchange":{"abi":[{"inputs":[],"stateMutability":"nonpayable","type":"constructor"},{"anonymous":false,"inputs":[{"indexed":true,"internalType":"address","name":"previousOwner","type":"address"},{"indexed":true,"internalType":"address","name":"newOwner","type":"address"}],"name":"OwnershipTransferred","type":"event"},{"inputs":[{"internalType":"uint256","name":"max_exchange_rate","type":"uint256"},{"internalType":"uint256","name":"min_exchange_rate","type":"uint256"}],"name":"addLiquidity","outputs":[],"stateMutability":"payable","type":"function"},{"inputs":[{"internalType":"uint256","name":"amountTokens","type":"uint256"}],"name":"createPool","outputs":[],"stateMutability":"payable","type":"function"},{"inputs":[],"name":"exchange_name","outputs":[{"internalType":"string","name":"","type":"string"}],"stateMutability":"view","type":"function"},{"inputs":[],"name":"getSwapFee","outputs":[{"internalType":"uint256","name":"","type":"uint256"},{"internalType":"uint256","name":"","type":"uint256"}],"stateMutability":"view","type":"function"},{"inputs":[],"name":"owner","outputs":[{"internalType":"address","name":"","type":"address"}],"stateMutability":"view","type":"function"},{"inputs":[{"internalType":"uint256","name":"max_exchange_rate","type":"uint256"},{"internalType":"uint256","name":"min_exchange_rate","type":"uint256"}],"name":"removeAllLiquidity","outputs":[],"stateMutability":"payable","type":"function"},{"inputs":[{"internalType":"uint256","name":"amountETH","type":"uint256"},{"internalType":"uint256","name":"max_exchange_rate","type":"uint256"},{"internalType":"uint256","name":"min_exchange_rate","type":"uint256"}],"name":"removeLiquidity","outputs":[],"stateMutability":"payable","type":"function"},{"inputs":[],"name":"renounceOwnership","outputs":[],"stateMutability":"nonpayable","type":"function"},{"inputs":[{"internalType":"uint256","name":"max_exchange_rate","type":"uint256"}],"name":"swapETHForTokens","outputs":[],"stateMutability":"payable","type":"function"},{"inputs":[{"internalType":"uint256","name":"amountTokens","type":"uint256"},{"internalType":"uint256","name":"max_exchange_rate","type":"uint256"}],"name":"swapTokensForETH","outputs":[],"stateMutability":"payable","type":"function"},{"inputs":[],"name":"token","outputs":[{"internalType":"contract Token","name":"","type":"address"}],"stateMutability":"view","type":"function"},{"inputs":[{"internalType":"address","name":"newOwner","type":"address"}],"name":"transferOwnership","outputs":[],"stateMutability":"nonpayable","type":"function"}],"evm":{"bytecode":{"linkReferences":{},"object":"608060405260405180602001604052806000815250600190816200002491906200046b565b50735fbdb2315678afecb367f032d93f642f64180aa3600260006101000a81548173ffffffffffffffffffffffffffffffffffffffff021916908373ffffffffffffffffffffffffffffffffffffffff160217905550600260009054906101000a900473ffffffffffffffffffffffffffffffffffffffff16600360006101000a81548173ffffffffffffffffffffffffffffffffffffffff021916908373ffffffffffffffffffffffffffffffffffffffff1602179055506000600455600060055560036008556064600955348015620000fe57600080fd5b506200011f620001136200012560201b60201c565b6200012d60201b60201c565b62000552565b600033905090565b60008060009054906101000a900473ffffffffffffffffffffffffffffffffffffffff169050816000806101000a81548173ffffffffffffffffffffffffffffffffffffffff021916908373ffffffffffffffffffffffffffffffffffffffff1602179055508173ffffffffffffffffffffffffffffffffffffffff168173ffffffffffffffffffffffffffffffffffffffff167f8be0079c531659141344cd1fd0a4f28419497f9722a3daafe3b4186f6b6457e060405160405180910390a35050565b600081519050919050565b7f4e487b7100000000000000000000000000000000000000000000000000000000600052604160045260246000fd5b7f4e487b7100000000000000000000000000000000000000000000000000000000600052602260045260246000fd5b600060028204905060018216806200027357607f821691505b6020821081036200028957620002886200022b565b5b50919050565b60008190508160005260206000209050919050565b60006020601f8301049050919050565b600082821b905092915050565b600060088302620002f37fffffffffffffffffffffffffffffffffffffffffffffffffffffffffffffffff82620002b4565b620002ff8683620002b4565b95508019841693508086168417925050509392505050565b6000819050919050565b6000819050919050565b60006200034c62000346620003408462000317565b62000321565b62000317565b9050919050565b6000819050919050565b62000368836200032b565b62000380620003778262000353565b848454620002c1565b825550505050565b600090565b6200039762000388565b620003a48184846200035d565b505050565b5b81811015620003cc57620003c06000826200038d565b600181019050620003aa565b5050565b601f8211156200041b57620003e5816200028f565b620003f084620002a4565b8101602085101562000400578190505b620004186200040f85620002a4565b830182620003a9565b50505b505050565b600082821c905092915050565b6000620004406000198460080262000420565b1980831691505092915050565b60006200045b83836200042d565b9150826002028217905092915050565b6200047682620001f1565b67ffffffffffffffff811115620004925762000491620001fc565b5b6200049e82546200025a565b620004ab828285620003d0565b600060209050601f831160018114620004e35760008415620004ce578287015190505b620004da85826200044d565b8655506200054a565b601f198416620004f3866200028f565b60005b828110156200051d57848901518255600182019150602085019450602081019050620004f6565b868310156200053d578489015162000539601f8916826200042d565b8355505b6001600288020188555050505b505050505050565b6130c680620005626000396000f3fe6080604052600436106100a75760003560e01c80639cd441da116100645780639cd441da1461015e578063a22280a61461017a578063d4cadf6814610196578063f2fde38b146101c2578063f694f7d1146101eb578063fc0c546a14610216576100a7565b80632eab2841146100ac57806358ad6de4146100c8578063715018a6146100e45780638259e6a0146100fb578063857620e1146101175780638da5cb5b14610133575b600080fd5b6100c660048036038101906100c19190612005565b610241565b005b6100e260048036038101906100dd9190612032565b6104f8565b005b3480156100f057600080fd5b506100f9610a0b565b005b61011560048036038101906101109190612005565b610a1f565b005b610131600480360381019061012c9190612072565b610d80565b005b34801561013f57600080fd5b506101486112b4565b6040516101559190612106565b60405180910390f35b61017860048036038101906101739190612032565b6112dd565b005b610194600480360381019061018f9190612032565b6117b6565b005b3480156101a257600080fd5b506101ab611bfb565b6040516101b9929190612130565b60405180910390f35b3480156101ce57600080fd5b506101e960048036038101906101e49190612185565b611c0c565b005b3480156101f757600080fd5b50610200611c8f565b60405161020d9190612242565b60405180910390f35b34801561022257600080fd5b5061022b611d1d565b60405161023891906122c3565b60405180910390f35b600060045411801561025557506000600554115b610294576040517f08c379a000000000000000000000000000000000000000000000000000000000815260040161028b9061232a565b60405180910390fd5b600034116102d7576040517f08c379a00000000000000000000000000000000000000000000000000000000081526004016102ce90612396565b60405180910390fd5b6000346005546102e791906123e5565b600454346102f59190612419565b6102ff919061248a565b905060095460085460095461031491906124bb565b8261031f9190612419565b610329919061248a565b905060018160045461033b91906124bb565b101561037c576040517f08c379a00000000000000000000000000000000000000000000000000000000081526004016103739061253b565b60405180910390fd5b600081670de0b6b3a7640000346103939190612419565b61039d919061248a565b9050828111156103e2576040517f08c379a00000000000000000000000000000000000000000000000000000000081526004016103d9906125a7565b60405180910390fd5b600360009054906101000a900473ffffffffffffffffffffffffffffffffffffffff1673ffffffffffffffffffffffffffffffffffffffff1663a9059cbb33846040518363ffffffff1660e01b815260040161043f9291906125c7565b6020604051808303816000875af115801561045e573d6000803e3d6000fd5b505050506040513d601f19601f820116820180604052508101906104829190612628565b6104c1576040517f08c379a00000000000000000000000000000000000000000000000000000000081526004016104b8906126a1565b60405180910390fd5b34600560008282546104d391906123e5565b9250508190555081600460008282546104ec91906124bb565b92505081905550505050565b600060045411801561050c57506000600554115b61054b576040517f08c379a00000000000000000000000000000000000000000000000000000000081526004016105429061232a565b60405180910390fd5b6000600660003373ffffffffffffffffffffffffffffffffffffffff1673ffffffffffffffffffffffffffffffffffffffff16815260200190815260200160002054116105cd576040517f08c379a00000000000000000000000000000000000000000000000000000000081526004016105c49061270d565b60405180910390fd5b6000600554670de0b6b3a76400006004546105e89190612419565b6105f2919061248a565b90508181101580156106045750828111155b610643576040517f08c379a000000000000000000000000000000000000000000000000000000000815260040161063a90612779565b60405180910390fd5b6000600660003373ffffffffffffffffffffffffffffffffffffffff1673ffffffffffffffffffffffffffffffffffffffff16815260200190815260200160002054905060006005546004548361069a9190612419565b6106a4919061248a565b90506001826005546106b691906124bb565b10156106f7576040517f08c379a00000000000000000000000000000000000000000000000000000000081526004016106ee906127e5565b60405180910390fd5b60018160045461070791906124bb565b1015610748576040517f08c379a000000000000000000000000000000000000000000000000000000000815260040161073f9061253b565b60405180910390fd5b60003373ffffffffffffffffffffffffffffffffffffffff168360405161076e90612836565b60006040518083038185875af1925050503d80600081146107ab576040519150601f19603f3d011682016040523d82523d6000602084013e6107b0565b606091505b50509050806107f4576040517f08c379a00000000000000000000000000000000000000000000000000000000081526004016107eb90612897565b60405180910390fd5b600360009054906101000a900473ffffffffffffffffffffffffffffffffffffffff1673ffffffffffffffffffffffffffffffffffffffff1663a9059cbb33846040518363ffffffff1660e01b81526004016108519291906125c7565b6020604051808303816000875af1158015610870573d6000803e3d6000fd5b505050506040513d601f19601f820116820180604052508101906108949190612628565b6108d3576040517f08c379a00000000000000000000000000000000000000000000000000000000081526004016108ca906126a1565b60405180910390fd5b82600560008282546108e591906124bb565b9250508190555081600460008282546108fe91906124bb565b925050819055506005546004546109159190612419565b600a819055506000600660003373ffffffffffffffffffffffffffffffffffffffff1673ffffffffffffffffffffffffffffffffffffffff1681526020019081526020016000208190555060005b600780549050811015610a02573373ffffffffffffffffffffffffffffffffffffffff166007828154811061099b5761099a6128b7565b5b9060005260206000200160009054906101000a900473ffffffffffffffffffffffffffffffffffffffff1673ffffffffffffffffffffffffffffffffffffffff16036109ef576109ea81611d43565b610a02565b80806109fa906128e6565b915050610963565b50505050505050565b610a13611e80565b610a1d6000611efe565b565b610a27611e80565b600060045414610a6c576040517f08c379a0000000000000000000000000000000000000000000000000000000008152600401610a639061297a565b60405180910390fd5b600060055414610ab1576040517f08c379a0000000000000000000000000000000000000000000000000000000008152600401610aa8906129e6565b60405180910390fd5b60003411610af4576040517f08c379a0000000000000000000000000000000000000000000000000000000008152600401610aeb90612a52565b60405180910390fd5b6000600360009054906101000a900473ffffffffffffffffffffffffffffffffffffffff1673ffffffffffffffffffffffffffffffffffffffff166370a08231336040518263ffffffff1660e01b8152600401610b519190612106565b602060405180830381865afa158015610b6e573d6000803e3d6000fd5b505050506040513d601f19601f82011682018060405250810190610b929190612a87565b905080821115610bd7576040517f08c379a0000000000000000000000000000000000000000000000000000000008152600401610bce90612b26565b60405180910390fd5b60008211610c1a576040517f08c379a0000000000000000000000000000000000000000000000000000000008152600401610c1190612b92565b60405180910390fd5b600360009054906101000a900473ffffffffffffffffffffffffffffffffffffffff1673ffffffffffffffffffffffffffffffffffffffff166323b872dd3330856040518463ffffffff1660e01b8152600401610c7993929190612bb2565b6020604051808303816000875af1158015610c98573d6000803e3d6000fd5b505050506040513d601f19601f82011682018060405250810190610cbc9190612628565b50600360009054906101000a900473ffffffffffffffffffffffffffffffffffffffff1673ffffffffffffffffffffffffffffffffffffffff166370a08231306040518263ffffffff1660e01b8152600401610d189190612106565b602060405180830381865afa158015610d35573d6000803e3d6000fd5b505050506040513d601f19601f82011682018060405250810190610d599190612a87565b60048190555034600581905550600554600454610d769190612419565b600a819055505050565b6000600454118015610d9457506000600554115b610dd3576040517f08c379a0000000000000000000000000000000000000000000000000000000008152600401610dca9061232a565b60405180910390fd5b600083118015610e225750600660003373ffffffffffffffffffffffffffffffffffffffff1673ffffffffffffffffffffffffffffffffffffffff168152602001908152602001600020548311155b610e61576040517f08c379a0000000000000000000000000000000000000000000000000000000008152600401610e5890612c35565b60405180910390fd5b6000600554670de0b6b3a7640000600454610e7c9190612419565b610e86919061248a565b9050818110158015610e985750828111155b610ed7576040517f08c379a0000000000000000000000000000000000000000000000000000000008152600401610ece90612779565b60405180910390fd5b600060055460045486610eea9190612419565b610ef4919061248a565b9050600185600554610f0691906124bb565b1015610f47576040517f08c379a0000000000000000000000000000000000000000000000000000000008152600401610f3e906127e5565b60405180910390fd5b600181600454610f5791906124bb565b1015610f98576040517f08c379a0000000000000000000000000000000000000000000000000000000008152600401610f8f9061253b565b60405180910390fd5b60003373ffffffffffffffffffffffffffffffffffffffff1686604051610fbe90612836565b60006040518083038185875af1925050503d8060008114610ffb576040519150601f19603f3d011682016040523d82523d6000602084013e611000565b606091505b5050905080611044576040517f08c379a000000000000000000000000000000000000000000000000000000000815260040161103b90612897565b60405180910390fd5b600360009054906101000a900473ffffffffffffffffffffffffffffffffffffffff1673ffffffffffffffffffffffffffffffffffffffff1663a9059cbb33846040518363ffffffff1660e01b81526004016110a19291906125c7565b6020604051808303816000875af11580156110c0573d6000803e3d6000fd5b505050506040513d601f19601f820116820180604052508101906110e49190612628565b611123576040517f08c379a000000000000000000000000000000000000000000000000000000000815260040161111a906126a1565b60405180910390fd5b856005600082825461113591906124bb565b92505081905550816004600082825461114e91906124bb565b925050819055506005546004546111659190612419565b600a8190555085600660003373ffffffffffffffffffffffffffffffffffffffff1673ffffffffffffffffffffffffffffffffffffffff16815260200190815260200160002060008282546111ba91906124bb565b925050819055506000600660003373ffffffffffffffffffffffffffffffffffffffff1673ffffffffffffffffffffffffffffffffffffffff16815260200190815260200160002054036112ac5760005b6007805490508110156112aa573373ffffffffffffffffffffffffffffffffffffffff1660078281548110611243576112426128b7565b5b9060005260206000200160009054906101000a900473ffffffffffffffffffffffffffffffffffffffff1673ffffffffffffffffffffffffffffffffffffffff16036112975761129281611d43565b6112aa565b80806112a2906128e6565b91505061120b565b505b505050505050565b60008060009054906101000a900473ffffffffffffffffffffffffffffffffffffffff16905090565b60006004541180156112f157506000600554115b611330576040517f08c379a000000000000000000000000000000000000000000000000000000000815260040161132790612ca1565b60405180910390fd5b60003411611373576040517f08c379a000000000000000000000000000000000000000000000000000000000815260040161136a90612d0d565b60405180910390fd5b6000600554670de0b6b3a764000060045461138e9190612419565b611398919061248a565b90508181101580156113aa5750828111155b6113e9576040517f08c379a00000000000000000000000000000000000000000000000000000000081526004016113e090612779565b60405180910390fd5b6000600554600454346113fc9190612419565b611406919061248a565b90506000811161144b576040517f08c379a000000000000000000000000000000000000000000000000000000000815260040161144290612d79565b60405180910390fd5b80600360009054906101000a900473ffffffffffffffffffffffffffffffffffffffff1673ffffffffffffffffffffffffffffffffffffffff166370a08231336040518263ffffffff1660e01b81526004016114a79190612106565b602060405180830381865afa1580156114c4573d6000803e3d6000fd5b505050506040513d601f19601f820116820180604052508101906114e89190612a87565b11611528576040517f08c379a000000000000000000000000000000000000000000000000000000000815260040161151f90612de5565b60405180910390fd5b600360009054906101000a900473ffffffffffffffffffffffffffffffffffffffff1673ffffffffffffffffffffffffffffffffffffffff166323b872dd3330846040518463ffffffff1660e01b815260040161158793929190612bb2565b6020604051808303816000875af11580156115a6573d6000803e3d6000fd5b505050506040513d601f19601f820116820180604052508101906115ca9190612628565b611609576040517f08c379a0000000000000000000000000000000000000000000000000000000008152600401611600906126a1565b60405180910390fd5b806004600082825461161b91906123e5565b92505081905550346005600082825461163491906123e5565b9250508190555060055460045461164b9190612419565b600a819055506000805b6007805490508110156116ef573373ffffffffffffffffffffffffffffffffffffffff166007828154811061168d5761168c6128b7565b5b9060005260206000200160009054906101000a900473ffffffffffffffffffffffffffffffffffffffff1673ffffffffffffffffffffffffffffffffffffffff16036116dc57600191506116ef565b80806116e7906128e6565b915050611655565b5080611759576007339080600181540180825580915050600190039060005260206000200160009091909190916101000a81548173ffffffffffffffffffffffffffffffffffffffff021916908373ffffffffffffffffffffffffffffffffffffffff1602179055505b34600660003373ffffffffffffffffffffffffffffffffffffffff1673ffffffffffffffffffffffffffffffffffffffff16815260200190815260200160002060008282546117a891906123e5565b925050819055505050505050565b60006004541180156117ca57506000600554115b611809576040517f08c379a00000000000000000000000000000000000000000000000000000000081526004016118009061232a565b60405180910390fd5b6000821161184c576040517f08c379a000000000000000000000000000000000000000000000000000000000815260040161184390612d79565b60405180910390fd5b81600360009054906101000a900473ffffffffffffffffffffffffffffffffffffffff1673ffffffffffffffffffffffffffffffffffffffff166370a08231336040518263ffffffff1660e01b81526004016118a89190612106565b602060405180830381865afa1580156118c5573d6000803e3d6000fd5b505050506040513d601f19601f820116820180604052508101906118e99190612a87565b101561192a576040517f08c379a000000000000000000000000000000000000000000000000000000000815260040161192190612e51565b60405180910390fd5b60008260045461193a91906123e5565b600554846119489190612419565b611952919061248a565b905060095460085460095461196791906124bb565b826119729190612419565b61197c919061248a565b905060018160055461198e91906124bb565b10156119cf576040517f08c379a00000000000000000000000000000000000000000000000000000000081526004016119c6906127e5565b60405180910390fd5b600081670de0b6b3a7640000856119e69190612419565b6119f0919061248a565b905082811115611a35576040517f08c379a0000000000000000000000000000000000000000000000000000000008152600401611a2c906125a7565b60405180910390fd5b600360009054906101000a900473ffffffffffffffffffffffffffffffffffffffff1673ffffffffffffffffffffffffffffffffffffffff166323b872dd3330876040518463ffffffff1660e01b8152600401611a9493929190612bb2565b6020604051808303816000875af1158015611ab3573d6000803e3d6000fd5b505050506040513d601f19601f82011682018060405250810190611ad79190612628565b611b16576040517f08c379a0000000000000000000000000000000000000000000000000000000008152600401611b0d906126a1565b60405180910390fd5b60003373ffffffffffffffffffffffffffffffffffffffff1683604051611b3c90612836565b60006040518083038185875af1925050503d8060008114611b79576040519150601f19603f3d011682016040523d82523d6000602084013e611b7e565b606091505b5050905080611bc2576040517f08c379a0000000000000000000000000000000000000000000000000000000008152600401611bb990612897565b60405180910390fd5b8460046000828254611bd491906123e5565b925050819055508260056000828254611bed91906124bb565b925050819055505050505050565b600080600854600954915091509091565b611c14611e80565b600073ffffffffffffffffffffffffffffffffffffffff168173ffffffffffffffffffffffffffffffffffffffff1603611c83576040517f08c379a0000000000000000000000000000000000000000000000000000000008152600401611c7a90612ee3565b60405180910390fd5b611c8c81611efe565b50565b60018054611c9c90612f32565b80601f0160208091040260200160405190810160405280929190818152602001828054611cc890612f32565b8015611d155780601f10611cea57610100808354040283529160200191611d15565b820191906000526020600020905b815481529060010190602001808311611cf857829003601f168201915b505050505081565b600360009054906101000a900473ffffffffffffffffffffffffffffffffffffffff1681565b6007805490508110611d8a576040517f08c379a0000000000000000000000000000000000000000000000000000000008152600401611d8190612fd5565b60405180910390fd5b60076001600780549050611d9e91906124bb565b81548110611daf57611dae6128b7565b5b9060005260206000200160009054906101000a900473ffffffffffffffffffffffffffffffffffffffff1660078281548110611dee57611ded6128b7565b5b9060005260206000200160006101000a81548173ffffffffffffffffffffffffffffffffffffffff021916908373ffffffffffffffffffffffffffffffffffffffff1602179055506007805480611e4857611e47612ff5565b5b6001900381819060005260206000200160006101000a81549073ffffffffffffffffffffffffffffffffffffffff0219169055905550565b611e88611fc2565b73ffffffffffffffffffffffffffffffffffffffff16611ea66112b4565b73ffffffffffffffffffffffffffffffffffffffff1614611efc576040517f08c379a0000000000000000000000000000000000000000000000000000000008152600401611ef390613070565b60405180910390fd5b565b60008060009054906101000a900473ffffffffffffffffffffffffffffffffffffffff169050816000806101000a81548173ffffffffffffffffffffffffffffffffffffffff021916908373ffffffffffffffffffffffffffffffffffffffff1602179055508173ffffffffffffffffffffffffffffffffffffffff168173ffffffffffffffffffffffffffffffffffffffff167f8be0079c531659141344cd1fd0a4f28419497f9722a3daafe3b4186f6b6457e060405160405180910390a35050565b600033905090565b600080fd5b6000819050919050565b611fe281611fcf565b8114611fed57600080fd5b50565b600081359050611fff81611fd9565b92915050565b60006020828403121561201b5761201a611fca565b5b600061202984828501611ff0565b91505092915050565b6000806040838503121561204957612048611fca565b5b600061205785828601611ff0565b925050602061206885828601611ff0565b9150509250929050565b60008060006060848603121561208b5761208a611fca565b5b600061209986828701611ff0565b93505060206120aa86828701611ff0565b92505060406120bb86828701611ff0565b9150509250925092565b600073ffffffffffffffffffffffffffffffffffffffff82169050919050565b60006120f0826120c5565b9050919050565b612100816120e5565b82525050565b600060208201905061211b60008301846120f7565b92915050565b61212a81611fcf565b82525050565b60006040820190506121456000830185612121565b6121526020830184612121565b9392505050565b612162816120e5565b811461216d57600080fd5b50565b60008135905061217f81612159565b92915050565b60006020828403121561219b5761219a611fca565b5b60006121a984828501612170565b91505092915050565b600081519050919050565b600082825260208201905092915050565b60005b838110156121ec5780820151818401526020810190506121d1565b60008484015250505050565b6000601f19601f8301169050919050565b6000612214826121b2565b61221e81856121bd565b935061222e8185602086016121ce565b612237816121f8565b840191505092915050565b6000602082019050818103600083015261225c8184612209565b905092915050565b6000819050919050565b600061228961228461227f846120c5565b612264565b6120c5565b9050919050565b600061229b8261226e565b9050919050565b60006122ad82612290565b9050919050565b6122bd816122a2565b82525050565b60006020820190506122d860008301846122b4565b92915050565b7f506f6f6c20646f6573206e6f7420657869737400000000000000000000000000600082015250565b60006123146013836121bd565b915061231f826122de565b602082019050919050565b6000602082019050818103600083015261234381612307565b9050919050565b7f4e6f204554482073656e74000000000000000000000000000000000000000000600082015250565b6000612380600b836121bd565b915061238b8261234a565b602082019050919050565b600060208201905081810360008301526123af81612373565b9050919050565b7f4e487b7100000000000000000000000000000000000000000000000000000000600052601160045260246000fd5b60006123f082611fcf565b91506123fb83611fcf565b9250828201905080821115612413576124126123b6565b5b92915050565b600061242482611fcf565b915061242f83611fcf565b925082820261243d81611fcf565b91508282048414831517612454576124536123b6565b5b5092915050565b7f4e487b7100000000000000000000000000000000000000000000000000000000600052601260045260246000fd5b600061249582611fcf565b91506124a083611fcf565b9250826124b0576124af61245b565b5b828204905092915050565b60006124c682611fcf565b91506124d183611fcf565b92508282039050818111156124e9576124e86123b6565b5b92915050565b7f546f6b656e20726573657276657320746f6f206c6f7700000000000000000000600082015250565b60006125256016836121bd565b9150612530826124ef565b602082019050919050565b6000602082019050818103600083015261255481612518565b9050919050565b7f45786368616e6765207261746520746f6f206869676800000000000000000000600082015250565b60006125916016836121bd565b915061259c8261255b565b602082019050919050565b600060208201905081810360008301526125c081612584565b9050919050565b60006040820190506125dc60008301856120f7565b6125e96020830184612121565b9392505050565b60008115159050919050565b612605816125f0565b811461261057600080fd5b50565b600081519050612622816125fc565b92915050565b60006020828403121561263e5761263d611fca565b5b600061264c84828501612613565b91505092915050565b7f546f6b656e207472616e73666572206661696c65640000000000000000000000600082015250565b600061268b6015836121bd565b915061269682612655565b602082019050919050565b600060208201905081810360008301526126ba8161267e565b9050919050565b7f4e6f206c697175696469747920746f2072656d6f766500000000000000000000600082015250565b60006126f76016836121bd565b9150612702826126c1565b602082019050919050565b60006020820190508181036000830152612726816126ea565b9050919050565b7f45786368616e67652072617465206f7574206f6620626f756e64730000000000600082015250565b6000612763601b836121bd565b915061276e8261272d565b602082019050919050565b6000602082019050818103600083015261279281612756565b9050919050565b7f45544820726573657276657320746f6f206c6f77000000000000000000000000600082015250565b60006127cf6014836121bd565b91506127da82612799565b602082019050919050565b600060208201905081810360008301526127fe816127c2565b9050919050565b600081905092915050565b50565b6000612820600083612805565b915061282b82612810565b600082019050919050565b600061284182612813565b9150819050919050565b7f455448207472616e73666572206661696c656400000000000000000000000000600082015250565b60006128816013836121bd565b915061288c8261284b565b602082019050919050565b600060208201905081810360008301526128b081612874565b9050919050565b7f4e487b7100000000000000000000000000000000000000000000000000000000600052603260045260246000fd5b60006128f182611fcf565b91507fffffffffffffffffffffffffffffffffffffffffffffffffffffffffffffffff8203612923576129226123b6565b5b600182019050919050565b7f546f6b656e20726573657276657320776173206e6f7420300000000000000000600082015250565b60006129646018836121bd565b915061296f8261292e565b602082019050919050565b6000602082019050818103600083015261299381612957565b9050919050565b7f45544820726573657276657320776173206e6f7420302e000000000000000000600082015250565b60006129d06017836121bd565b91506129db8261299a565b602082019050919050565b600060208201905081810360008301526129ff816129c3565b9050919050565b7f4e6565642065746820746f2063726561746520706f6f6c2e0000000000000000600082015250565b6000612a3c6018836121bd565b9150612a4782612a06565b602082019050919050565b60006020820190508181036000830152612a6b81612a2f565b9050919050565b600081519050612a8181611fd9565b92915050565b600060208284031215612a9d57612a9c611fca565b5b6000612aab84828501612a72565b91505092915050565b7f4e6f74206861766520656e6f75676820746f6b656e7320746f2063726561746560008201527f2074686520706f6f6c0000000000000000000000000000000000000000000000602082015250565b6000612b106029836121bd565b9150612b1b82612ab4565b604082019050919050565b60006020820190508181036000830152612b3f81612b03565b9050919050565b7f4e65656420746f6b656e7320746f2063726561746520706f6f6c2e0000000000600082015250565b6000612b7c601b836121bd565b9150612b8782612b46565b602082019050919050565b60006020820190508181036000830152612bab81612b6f565b9050919050565b6000606082019050612bc760008301866120f7565b612bd460208301856120f7565b612be16040830184612121565b949350505050565b7f496e76616c69642045544820616d6f756e740000000000000000000000000000600082015250565b6000612c1f6012836121bd565b9150612c2a82612be9565b602082019050919050565b60006020820190508181036000830152612c4e81612c12565b9050919050565b7f506f6f6c206973206e6f74206578697374000000000000000000000000000000600082015250565b6000612c8b6011836121bd565b9150612c9682612c55565b602082019050919050565b60006020820190508181036000830152612cba81612c7e565b9050919050565b7f455448206973206e6f742073656e740000000000000000000000000000000000600082015250565b6000612cf7600f836121bd565b9150612d0282612cc1565b602082019050919050565b60006020820190508181036000830152612d2681612cea565b9050919050565b7f496e76616c696420746f6b656e20616d6f756e74000000000000000000000000600082015250565b6000612d636014836121bd565b9150612d6e82612d2d565b602082019050919050565b60006020820190508181036000830152612d9281612d56565b9050919050565b7f53656e64657220686173206e6f7420656e6f75676820746f6b656e7300000000600082015250565b6000612dcf601c836121bd565b9150612dda82612d99565b602082019050919050565b60006020820190508181036000830152612dfe81612dc2565b9050919050565b7f496e73756666696369656e7420746f6b656e2062616c616e6365000000000000600082015250565b6000612e3b601a836121bd565b9150612e4682612e05565b602082019050919050565b60006020820190508181036000830152612e6a81612e2e565b9050919050565b7f4f776e61626c653a206e6577206f776e657220697320746865207a65726f206160008201527f6464726573730000000000000000000000000000000000000000000000000000602082015250565b6000612ecd6026836121bd565b9150612ed882612e71565b604082019050919050565b60006020820190508181036000830152612efc81612ec0565b9050919050565b7f4e487b7100000000000000000000000000000000000000000000000000000000600052602260045260246000fd5b60006002820490506001821680612f4a57607f821691505b602082108103612f5d57612f5c612f03565b5b50919050565b7f73706563696669656420696e646578206973206c6172676572207468616e207460008201527f6865206e756d626572206f66206c707300000000000000000000000000000000602082015250565b6000612fbf6030836121bd565b9150612fca82612f63565b604082019050919050565b60006020820190508181036000830152612fee81612fb2565b9050919050565b7f4e487b7100000000000000000000000000000000000000000000000000000000600052603160045260246000fd5b7f4f776e61626c653a2063616c6c6572206973206e6f7420746865206f776e6572600082015250565b600061305a6020836121bd565b915061306582613024565b602082019050919050565b600060208201905081810360008301526130898161304d565b905091905056fea26469706673582212204bbfa67a5527488f99b4488669ba8580c15fc46b00be55da33e750591a0a3d5d64736f6c63430008110033","opcodes":"PUSH1 0x80 PUSH1 0x40 MSTORE PUSH1 0x40 MLOAD DUP1 PUSH1 0x20 ADD PUSH1 0x40 MSTORE DUP1 PUSH1 0x0 DUP2 MSTORE POP PUSH1 0x1 SWAP1 DUP2 PUSH3 0x24 SWAP2 SWAP1 PUSH3 0x46B JUMP JUMPDEST POP PUSH20 0x5FBDB2315678AFECB367F032D93F642F64180AA3 PUSH1 0x2 PUSH1 0x0 PUSH2 0x100 EXP DUP2 SLOAD DUP2 PUSH20 0xFFFFFFFFFFFFFFFFFFFFFFFFFFFFFFFFFFFFFFFF MUL NOT AND SWAP1 DUP4 PUSH20 0xFFFFFFFFFFFFFFFFFFFFFFFFFFFFFFFFFFFFFFFF AND MUL OR SWAP1 SSTORE POP PUSH1 0x2 PUSH1 0x0 SWAP1 SLOAD SWAP1 PUSH2 0x100 EXP SWAP1 DIV PUSH20 0xFFFFFFFFFFFFFFFFFFFFFFFFFFFFFFFFFFFFFFFF AND PUSH1 0x3 PUSH1 0x0 PUSH2 0x100 EXP DUP2 SLOAD DUP2 PUSH20 0xFFFFFFFFFFFFFFFFFFFFFFFFFFFFFFFFFFFFFFFF MUL NOT AND SWAP1 DUP4 PUSH20 0xFFFFFFFFFFFFFFFFFFFFFFFFFFFFFFFFFFFFFFFF AND MUL OR SWAP1 SSTORE POP PUSH1 0x0 PUSH1 0x4 SSTORE PUSH1 0x0 PUSH1 0x5 SSTORE PUSH1 0x3 PUSH1 0x8 SSTORE PUSH1 0x64 PUSH1 0x9 SSTORE CALLVALUE DUP1 ISZERO PUSH3 0xFE JUMPI PUSH1 0x0 DUP1 REVERT JUMPDEST POP PUSH3 0x11F PUSH3 0x113 PUSH3 0x125 PUSH1 0x20 SHL PUSH1 0x20 SHR JUMP JUMPDEST PUSH3 0x12D PUSH1 0x20 SHL PUSH1 0x20 SHR JUMP JUMPDEST PUSH3 0x552 JUMP JUMPDEST PUSH1 0x0 CALLER SWAP1 POP SWAP1 JUMP JUMPDEST PUSH1 0x0 DUP1 PUSH1 0x0 SWAP1 SLOAD SWAP1 PUSH2 0x100 EXP SWAP1 DIV PUSH20 0xFFFFFFFFFFFFFFFFFFFFFFFFFFFFFFFFFFFFFFFF AND SWAP1 POP DUP2 PUSH1 0x0 DUP1 PUSH2 0x100 EXP DUP2 SLOAD DUP2 PUSH20 0xFFFFFFFFFFFFFFFFFFFFFFFFFFFFFFFFFFFFFFFF MUL NOT AND SWAP1 DUP4 PUSH20 0xFFFFFFFFFFFFFFFFFFFFFFFFFFFFFFFFFFFFFFFF AND MUL OR SWAP1 SSTORE POP DUP2 PUSH20 0xFFFFFFFFFFFFFFFFFFFFFFFFFFFFFFFFFFFFFFFF AND DUP2 PUSH20 0xFFFFFFFFFFFFFFFFFFFFFFFFFFFFFFFFFFFFFFFF AND PUSH32 0x8BE0079C531659141344CD1FD0A4F28419497F9722A3DAAFE3B4186F6B6457E0 PUSH1 0x40 MLOAD PUSH1 0x40 MLOAD DUP1 SWAP2 SUB SWAP1 LOG3 POP POP JUMP JUMPDEST PUSH1 0x0 DUP2 MLOAD SWAP1 POP SWAP2 SWAP1 POP JUMP JUMPDEST PUSH32 0x4E487B7100000000000000000000000000000000000000000000000000000000 PUSH1 0x0 MSTORE PUSH1 0x41 PUSH1 0x4 MSTORE PUSH1 0x24 PUSH1 0x0 REVERT JUMPDEST PUSH32 0x4E487B7100000000000000000000000000000000000000000000000000000000 PUSH1 0x0 MSTORE PUSH1 0x22 PUSH1 0x4 MSTORE PUSH1 0x24 PUSH1 0x0 REVERT JUMPDEST PUSH1 0x0 PUSH1 0x2 DUP3 DIV SWAP1 POP PUSH1 0x1 DUP3 AND DUP1 PUSH3 0x273 JUMPI PUSH1 0x7F DUP3 AND SWAP2 POP JUMPDEST PUSH1 0x20 DUP3 LT DUP2 SUB PUSH3 0x289 JUMPI PUSH3 0x288 PUSH3 0x22B JUMP JUMPDEST JUMPDEST POP SWAP2 SWAP1 POP JUMP JUMPDEST PUSH1 0x0 DUP2 SWAP1 POP DUP2 PUSH1 0x0 MSTORE PUSH1 0x20 PUSH1 0x0 KECCAK256 SWAP1 POP SWAP2 SWAP1 POP JUMP JUMPDEST PUSH1 0x0 PUSH1 0x20 PUSH1 0x1F DUP4 ADD DIV SWAP1 POP SWAP2 SWAP1 POP JUMP JUMPDEST PUSH1 0x0 DUP3 DUP3 SHL SWAP1 POP SWAP3 SWAP2 POP POP JUMP JUMPDEST PUSH1 0x0 PUSH1 0x8 DUP4 MUL PUSH3 0x2F3 PUSH32 0xFFFFFFFFFFFFFFFFFFFFFFFFFFFFFFFFFFFFFFFFFFFFFFFFFFFFFFFFFFFFFFFF DUP3 PUSH3 0x2B4 JUMP JUMPDEST PUSH3 0x2FF DUP7 DUP4 PUSH3 0x2B4 JUMP JUMPDEST SWAP6 POP DUP1 NOT DUP5 AND SWAP4 POP DUP1 DUP7 AND DUP5 OR SWAP3 POP POP POP SWAP4 SWAP3 POP POP POP JUMP JUMPDEST PUSH1 0x0 DUP2 SWAP1 POP SWAP2 SWAP1 POP JUMP JUMPDEST PUSH1 0x0 DUP2 SWAP1 POP SWAP2 SWAP1 POP JUMP JUMPDEST PUSH1 0x0 PUSH3 0x34C PUSH3 0x346 PUSH3 0x340 DUP5 PUSH3 0x317 JUMP JUMPDEST PUSH3 0x321 JUMP JUMPDEST PUSH3 0x317 JUMP JUMPDEST SWAP1 POP SWAP2 SWAP1 POP JUMP JUMPDEST PUSH1 0x0 DUP2 SWAP1 POP SWAP2 SWAP1 POP JUMP JUMPDEST PUSH3 0x368 DUP4 PUSH3 0x32B JUMP JUMPDEST PUSH3 0x380 PUSH3 0x377 DUP3 PUSH3 0x353 JUMP JUMPDEST DUP5 DUP5 SLOAD PUSH3 0x2C1 JUMP JUMPDEST DUP3 SSTORE POP POP POP POP JUMP JUMPDEST PUSH1 0x0 SWAP1 JUMP JUMPDEST PUSH3 0x397 PUSH3 0x388 JUMP JUMPDEST PUSH3 0x3A4 DUP2 DUP5 DUP5 PUSH3 0x35D JUMP JUMPDEST POP POP POP JUMP JUMPDEST JUMPDEST DUP2 DUP2 LT ISZERO PUSH3 0x3CC JUMPI PUSH3 0x3C0 PUSH1 0x0 DUP3 PUSH3 0x38D JUMP JUMPDEST PUSH1 0x1 DUP2 ADD SWAP1 POP PUSH3 0x3AA JUMP JUMPDEST POP POP JUMP JUMPDEST PUSH1 0x1F DUP3 GT ISZERO PUSH3 0x41B JUMPI PUSH3 0x3E5 DUP2 PUSH3 0x28F JUMP JUMPDEST PUSH3 0x3F0 DUP5 PUSH3 0x2A4 JUMP JUMPDEST DUP2 ADD PUSH1 0x20 DUP6 LT ISZERO PUSH3 0x400 JUMPI DUP2 SWAP1 POP JUMPDEST PUSH3 0x418 PUSH3 0x40F DUP6 PUSH3 0x2A4 JUMP JUMPDEST DUP4 ADD DUP3 PUSH3 0x3A9 JUMP JUMPDEST POP POP JUMPDEST POP POP POP JUMP JUMPDEST PUSH1 0x0 DUP3 DUP3 SHR SWAP1 POP SWAP3 SWAP2 POP POP JUMP JUMPDEST PUSH1 0x0 PUSH3 0x440 PUSH1 0x0 NOT DUP5 PUSH1 0x8 MUL PUSH3 0x420 JUMP JUMPDEST NOT DUP1 DUP4 AND SWAP2 POP POP SWAP3 SWAP2 POP POP JUMP JUMPDEST PUSH1 0x0 PUSH3 0x45B DUP4 DUP4 PUSH3 0x42D JUMP JUMPDEST SWAP2 POP DUP3 PUSH1 0x2 MUL DUP3 OR SWAP1 POP SWAP3 SWAP2 POP POP JUMP JUMPDEST PUSH3 0x476 DUP3 PUSH3 0x1F1 JUMP JUMPDEST PUSH8 0xFFFFFFFFFFFFFFFF DUP2 GT ISZERO PUSH3 0x492 JUMPI PUSH3 0x491 PUSH3 0x1FC JUMP JUMPDEST JUMPDEST PUSH3 0x49E DUP3 SLOAD PUSH3 0x25A JUMP JUMPDEST PUSH3 0x4AB DUP3 DUP3 DUP6 PUSH3 0x3D0 JUMP JUMPDEST PUSH1 0x0 PUSH1 0x20 SWAP1 POP PUSH1 0x1F DUP4 GT PUSH1 0x1 DUP2 EQ PUSH3 0x4E3 JUMPI PUSH1 0x0 DUP5 ISZERO PUSH3 0x4CE JUMPI DUP3 DUP8 ADD MLOAD SWAP1 POP JUMPDEST PUSH3 0x4DA DUP6 DUP3 PUSH3 0x44D JUMP JUMPDEST DUP7 SSTORE POP PUSH3 0x54A JUMP JUMPDEST PUSH1 0x1F NOT DUP5 AND PUSH3 0x4F3 DUP7 PUSH3 0x28F JUMP JUMPDEST PUSH1 0x0 JUMPDEST DUP3 DUP2 LT ISZERO PUSH3 0x51D JUMPI DUP5 DUP10 ADD MLOAD DUP3 SSTORE PUSH1 0x1 DUP3 ADD SWAP2 POP PUSH1 0x20 DUP6 ADD SWAP5 POP PUSH1 0x20 DUP2 ADD SWAP1 POP PUSH3 0x4F6 JUMP JUMPDEST DUP7 DUP4 LT ISZERO PUSH3 0x53D JUMPI DUP5 DUP10 ADD MLOAD PUSH3 0x539 PUSH1 0x1F DUP10 AND DUP3 PUSH3 0x42D JUMP JUMPDEST DUP4 SSTORE POP JUMPDEST PUSH1 0x1 PUSH1 0x2 DUP9 MUL ADD DUP9 SSTORE POP POP POP JUMPDEST POP POP POP POP POP POP JUMP JUMPDEST PUSH2 0x30C6 DUP1 PUSH3 0x562 PUSH1 0x0 CODECOPY PUSH1 0x0 RETURN INVALID PUSH1 0x80 PUSH1 0x40 MSTORE PUSH1 0x4 CALLDATASIZE LT PUSH2 0xA7 JUMPI PUSH1 0x0 CALLDATALOAD PUSH1 0xE0 SHR DUP1 PUSH4 0x9CD441DA GT PUSH2 0x64 JUMPI DUP1 PUSH4 0x9CD441DA EQ PUSH2 0x15E JUMPI DUP1 PUSH4 0xA22280A6 EQ PUSH2 0x17A JUMPI DUP1 PUSH4 0xD4CADF68 EQ PUSH2 0x196 JUMPI DUP1 PUSH4 0xF2FDE38B EQ PUSH2 0x1C2 JUMPI DUP1 PUSH4 0xF694F7D1 EQ PUSH2 0x1EB JUMPI DUP1 PUSH4 0xFC0C546A EQ PUSH2 0x216 JUMPI PUSH2 0xA7 JUMP JUMPDEST DUP1 PUSH4 0x2EAB2841 EQ PUSH2 0xAC JUMPI DUP1 PUSH4 0x58AD6DE4 EQ PUSH2 0xC8 JUMPI DUP1 PUSH4 0x715018A6 EQ PUSH2 0xE4 JUMPI DUP1 PUSH4 0x8259E6A0 EQ PUSH2 0xFB JUMPI DUP1 PUSH4 0x857620E1 EQ PUSH2 0x117 JUMPI DUP1 PUSH4 0x8DA5CB5B EQ PUSH2 0x133 JUMPI JUMPDEST PUSH1 0x0 DUP1 REVERT JUMPDEST PUSH2 0xC6 PUSH1 0x4 DUP1 CALLDATASIZE SUB DUP2 ADD SWAP1 PUSH2 0xC1 SWAP2 SWAP1 PUSH2 0x2005 JUMP JUMPDEST PUSH2 0x241 JUMP JUMPDEST STOP JUMPDEST PUSH2 0xE2 PUSH1 0x4 DUP1 CALLDATASIZE SUB DUP2 ADD SWAP1 PUSH2 0xDD SWAP2 SWAP1 PUSH2 0x2032 JUMP JUMPDEST PUSH2 0x4F8 JUMP JUMPDEST STOP JUMPDEST CALLVALUE DUP1 ISZERO PUSH2 0xF0 JUMPI PUSH1 0x0 DUP1 REVERT JUMPDEST POP PUSH2 0xF9 PUSH2 0xA0B JUMP JUMPDEST STOP JUMPDEST PUSH2 0x115 PUSH1 0x4 DUP1 CALLDATASIZE SUB DUP2 ADD SWAP1 PUSH2 0x110 SWAP2 SWAP1 PUSH2 0x2005 JUMP JUMPDEST PUSH2 0xA1F JUMP JUMPDEST STOP JUMPDEST PUSH2 0x131 PUSH1 0x4 DUP1 CALLDATASIZE SUB DUP2 ADD SWAP1 PUSH2 0x12C SWAP2 SWAP1 PUSH2 0x2072 JUMP JUMPDEST PUSH2 0xD80 JUMP JUMPDEST STOP JUMPDEST CALLVALUE DUP1 ISZERO PUSH2 0x13F JUMPI PUSH1 0x0 DUP1 REVERT JUMPDEST POP PUSH2 0x148 PUSH2 0x12B4 JUMP JUMPDEST PUSH1 0x40 MLOAD PUSH2 0x155 SWAP2 SWAP1 PUSH2 0x2106 JUMP JUMPDEST PUSH1 0x40 MLOAD DUP1 SWAP2 SUB SWAP1 RETURN JUMPDEST PUSH2 0x178 PUSH1 0x4 DUP1 CALLDATASIZE SUB DUP2 ADD SWAP1 PUSH2 0x173 SWAP2 SWAP1 PUSH2 0x2032 JUMP JUMPDEST PUSH2 0x12DD JUMP JUMPDEST STOP JUMPDEST PUSH2 0x194 PUSH1 0x4 DUP1 CALLDATASIZE SUB DUP2 ADD SWAP1 PUSH2 0x18F SWAP2 SWAP1 PUSH2 0x2032 JUMP JUMPDEST PUSH2 0x17B6 JUMP JUMPDEST STOP JUMPDEST CALLVALUE DUP1 ISZERO PUSH2 0x1A2 JUMPI PUSH1 0x0 DUP1 REVERT JUMPDEST POP PUSH2 0x1AB PUSH2 0x1BFB JUMP JUMPDEST PUSH1 0x40 MLOAD PUSH2 0x1B9 SWAP3 SWAP2 SWAP1 PUSH2 0x2130 JUMP JUMPDEST PUSH1 0x40 MLOAD DUP1 SWAP2 SUB SWAP1 RETURN JUMPDEST CALLVALUE DUP1 ISZERO PUSH2 0x1CE JUMPI PUSH1 0x0 DUP1 REVERT JUMPDEST POP PUSH2 0x1E9 PUSH1 0x4 DUP1 CALLDATASIZE SUB DUP2 ADD SWAP1 PUSH2 0x1E4 SWAP2 SWAP1 PUSH2 0x2185 JUMP JUMPDEST PUSH2 0x1C0C JUMP JUMPDEST STOP JUMPDEST CALLVALUE DUP1 ISZERO PUSH2 0x1F7 JUMPI PUSH1 0x0 DUP1 REVERT JUMPDEST POP PUSH2 0x200 PUSH2 0x1C8F JUMP JUMPDEST PUSH1 0x40 MLOAD PUSH2 0x20D SWAP2 SWAP1 PUSH2 0x2242 JUMP JUMPDEST PUSH1 0x40 MLOAD DUP1 SWAP2 SUB SWAP1 RETURN JUMPDEST CALLVALUE DUP1 ISZERO PUSH2 0x222 JUMPI PUSH1 0x0 DUP1 REVERT JUMPDEST POP PUSH2 0x22B PUSH2 0x1D1D JUMP JUMPDEST PUSH1 0x40 MLOAD PUSH2 0x238 SWAP2 SWAP1 PUSH2 0x22C3 JUMP JUMPDEST PUSH1 0x40 MLOAD DUP1 SWAP2 SUB SWAP1 RETURN JUMPDEST PUSH1 0x0 PUSH1 0x4 SLOAD GT DUP1 ISZERO PUSH2 0x255 JUMPI POP PUSH1 0x0 PUSH1 0x5 SLOAD GT JUMPDEST PUSH2 0x294 JUMPI PUSH1 0x40 MLOAD PUSH32 0x8C379A000000000000000000000000000000000000000000000000000000000 DUP2 MSTORE PUSH1 0x4 ADD PUSH2 0x28B SWAP1 PUSH2 0x232A JUMP JUMPDEST PUSH1 0x40 MLOAD DUP1 SWAP2 SUB SWAP1 REVERT JUMPDEST PUSH1 0x0 CALLVALUE GT PUSH2 0x2D7 JUMPI PUSH1 0x40 MLOAD PUSH32 0x8C379A000000000000000000000000000000000000000000000000000000000 DUP2 MSTORE PUSH1 0x4 ADD PUSH2 0x2CE SWAP1 PUSH2 0x2396 JUMP JUMPDEST PUSH1 0x40 MLOAD DUP1 SWAP2 SUB SWAP1 REVERT JUMPDEST PUSH1 0x0 CALLVALUE PUSH1 0x5 SLOAD PUSH2 0x2E7 SWAP2 SWAP1 PUSH2 0x23E5 JUMP JUMPDEST PUSH1 0x4 SLOAD CALLVALUE PUSH2 0x2F5 SWAP2 SWAP1 PUSH2 0x2419 JUMP JUMPDEST PUSH2 0x2FF SWAP2 SWAP1 PUSH2 0x248A JUMP JUMPDEST SWAP1 POP PUSH1 0x9 SLOAD PUSH1 0x8 SLOAD PUSH1 0x9 SLOAD PUSH2 0x314 SWAP2 SWAP1 PUSH2 0x24BB JUMP JUMPDEST DUP3 PUSH2 0x31F SWAP2 SWAP1 PUSH2 0x2419 JUMP JUMPDEST PUSH2 0x329 SWAP2 SWAP1 PUSH2 0x248A JUMP JUMPDEST SWAP1 POP PUSH1 0x1 DUP2 PUSH1 0x4 SLOAD PUSH2 0x33B SWAP2 SWAP1 PUSH2 0x24BB JUMP JUMPDEST LT ISZERO PUSH2 0x37C JUMPI PUSH1 0x40 MLOAD PUSH32 0x8C379A000000000000000000000000000000000000000000000000000000000 DUP2 MSTORE PUSH1 0x4 ADD PUSH2 0x373 SWAP1 PUSH2 0x253B JUMP JUMPDEST PUSH1 0x40 MLOAD DUP1 SWAP2 SUB SWAP1 REVERT JUMPDEST PUSH1 0x0 DUP2 PUSH8 0xDE0B6B3A7640000 CALLVALUE PUSH2 0x393 SWAP2 SWAP1 PUSH2 0x2419 JUMP JUMPDEST PUSH2 0x39D SWAP2 SWAP1 PUSH2 0x248A JUMP JUMPDEST SWAP1 POP DUP3 DUP2 GT ISZERO PUSH2 0x3E2 JUMPI PUSH1 0x40 MLOAD PUSH32 0x8C379A000000000000000000000000000000000000000000000000000000000 DUP2 MSTORE PUSH1 0x4 ADD PUSH2 0x3D9 SWAP1 PUSH2 0x25A7 JUMP JUMPDEST PUSH1 0x40 MLOAD DUP1 SWAP2 SUB SWAP1 REVERT JUMPDEST PUSH1 0x3 PUSH1 0x0 SWAP1 SLOAD SWAP1 PUSH2 0x100 EXP SWAP1 DIV PUSH20 0xFFFFFFFFFFFFFFFFFFFFFFFFFFFFFFFFFFFFFFFF AND PUSH20 0xFFFFFFFFFFFFFFFFFFFFFFFFFFFFFFFFFFFFFFFF AND PUSH4 0xA9059CBB CALLER DUP5 PUSH1 0x40 MLOAD DUP4 PUSH4 0xFFFFFFFF AND PUSH1 0xE0 SHL DUP2 MSTORE PUSH1 0x4 ADD PUSH2 0x43F SWAP3 SWAP2 SWAP1 PUSH2 0x25C7 JUMP JUMPDEST PUSH1 0x20 PUSH1 0x40 MLOAD DUP1 DUP4 SUB DUP2 PUSH1 0x0 DUP8 GAS CALL ISZERO DUP1 ISZERO PUSH2 0x45E JUMPI RETURNDATASIZE PUSH1 0x0 DUP1 RETURNDATACOPY RETURNDATASIZE PUSH1 0x0 REVERT JUMPDEST POP POP POP POP PUSH1 0x40 MLOAD RETURNDATASIZE PUSH1 0x1F NOT PUSH1 0x1F DUP3 ADD AND DUP3 ADD DUP1 PUSH1 0x40 MSTORE POP DUP2 ADD SWAP1 PUSH2 0x482 SWAP2 SWAP1 PUSH2 0x2628 JUMP JUMPDEST PUSH2 0x4C1 JUMPI PUSH1 0x40 MLOAD PUSH32 0x8C379A000000000000000000000000000000000000000000000000000000000 DUP2 MSTORE PUSH1 0x4 ADD PUSH2 0x4B8 SWAP1 PUSH2 0x26A1 JUMP JUMPDEST PUSH1 0x40 MLOAD DUP1 SWAP2 SUB SWAP1 REVERT JUMPDEST CALLVALUE PUSH1 0x5 PUSH1 0x0 DUP3 DUP3 SLOAD PUSH2 0x4D3 SWAP2 SWAP1 PUSH2 0x23E5 JUMP JUMPDEST SWAP3 POP POP DUP2 SWAP1 SSTORE POP DUP2 PUSH1 0x4 PUSH1 0x0 DUP3 DUP3 SLOAD PUSH2 0x4EC SWAP2 SWAP1 PUSH2 0x24BB JUMP JUMPDEST SWAP3 POP POP DUP2 SWAP1 SSTORE POP POP POP POP JUMP JUMPDEST PUSH1 0x0 PUSH1 0x4 SLOAD GT DUP1 ISZERO PUSH2 0x50C JUMPI POP PUSH1 0x0 PUSH1 0x5 SLOAD GT JUMPDEST PUSH2 0x54B JUMPI PUSH1 0x40 MLOAD PUSH32 0x8C379A000000000000000000000000000000000000000000000000000000000 DUP2 MSTORE PUSH1 0x4 ADD PUSH2 0x542 SWAP1 PUSH2 0x232A JUMP JUMPDEST PUSH1 0x40 MLOAD DUP1 SWAP2 SUB SWAP1 REVERT JUMPDEST PUSH1 0x0 PUSH1 0x6 PUSH1 0x0 CALLER PUSH20 0xFFFFFFFFFFFFFFFFFFFFFFFFFFFFFFFFFFFFFFFF AND PUSH20 0xFFFFFFFFFFFFFFFFFFFFFFFFFFFFFFFFFFFFFFFF AND DUP2 MSTORE PUSH1 0x20 ADD SWAP1 DUP2 MSTORE PUSH1 0x20 ADD PUSH1 0x0 KECCAK256 SLOAD GT PUSH2 0x5CD JUMPI PUSH1 0x40 MLOAD PUSH32 0x8C379A000000000000000000000000000000000000000000000000000000000 DUP2 MSTORE PUSH1 0x4 ADD PUSH2 0x5C4 SWAP1 PUSH2 0x270D JUMP JUMPDEST PUSH1 0x40 MLOAD DUP1 SWAP2 SUB SWAP1 REVERT JUMPDEST PUSH1 0x0 PUSH1 0x5 SLOAD PUSH8 0xDE0B6B3A7640000 PUSH1 0x4 SLOAD PUSH2 0x5E8 SWAP2 SWAP1 PUSH2 0x2419 JUMP JUMPDEST PUSH2 0x5F2 SWAP2 SWAP1 PUSH2 0x248A JUMP JUMPDEST SWAP1 POP DUP2 DUP2 LT ISZERO DUP1 ISZERO PUSH2 0x604 JUMPI POP DUP3 DUP2 GT ISZERO JUMPDEST PUSH2 0x643 JUMPI PUSH1 0x40 MLOAD PUSH32 0x8C379A000000000000000000000000000000000000000000000000000000000 DUP2 MSTORE PUSH1 0x4 ADD PUSH2 0x63A SWAP1 PUSH2 0x2779 JUMP JUMPDEST PUSH1 0x40 MLOAD DUP1 SWAP2 SUB SWAP1 REVERT JUMPDEST PUSH1 0x0 PUSH1 0x6 PUSH1 0x0 CALLER PUSH20 0xFFFFFFFFFFFFFFFFFFFFFFFFFFFFFFFFFFFFFFFF AND PUSH20 0xFFFFFFFFFFFFFFFFFFFFFFFFFFFFFFFFFFFFFFFF AND DUP2 MSTORE PUSH1 0x20 ADD SWAP1 DUP2 MSTORE PUSH1 0x20 ADD PUSH1 0x0 KECCAK256 SLOAD SWAP1 POP PUSH1 0x0 PUSH1 0x5 SLOAD PUSH1 0x4 SLOAD DUP4 PUSH2 0x69A SWAP2 SWAP1 PUSH2 0x2419 JUMP JUMPDEST PUSH2 0x6A4 SWAP2 SWAP1 PUSH2 0x248A JUMP JUMPDEST SWAP1 POP PUSH1 0x1 DUP3 PUSH1 0x5 SLOAD PUSH2 0x6B6 SWAP2 SWAP1 PUSH2 0x24BB JUMP JUMPDEST LT ISZERO PUSH2 0x6F7 JUMPI PUSH1 0x40 MLOAD PUSH32 0x8C379A000000000000000000000000000000000000000000000000000000000 DUP2 MSTORE PUSH1 0x4 ADD PUSH2 0x6EE SWAP1 PUSH2 0x27E5 JUMP JUMPDEST PUSH1 0x40 MLOAD DUP1 SWAP2 SUB SWAP1 REVERT JUMPDEST PUSH1 0x1 DUP2 PUSH1 0x4 SLOAD PUSH2 0x707 SWAP2 SWAP1 PUSH2 0x24BB JUMP JUMPDEST LT ISZERO PUSH2 0x748 JUMPI PUSH1 0x40 MLOAD PUSH32 0x8C379A000000000000000000000000000000000000000000000000000000000 DUP2 MSTORE PUSH1 0x4 ADD PUSH2 0x73F SWAP1 PUSH2 0x253B JUMP JUMPDEST PUSH1 0x40 MLOAD DUP1 SWAP2 SUB SWAP1 REVERT JUMPDEST PUSH1 0x0 CALLER PUSH20 0xFFFFFFFFFFFFFFFFFFFFFFFFFFFFFFFFFFFFFFFF AND DUP4 PUSH1 0x40 MLOAD PUSH2 0x76E SWAP1 PUSH2 0x2836 JUMP JUMPDEST PUSH1 0x0 PUSH1 0x40 MLOAD DUP1 DUP4 SUB DUP2 DUP6 DUP8 GAS CALL SWAP3 POP POP POP RETURNDATASIZE DUP1 PUSH1 0x0 DUP2 EQ PUSH2 0x7AB JUMPI PUSH1 0x40 MLOAD SWAP2 POP PUSH1 0x1F NOT PUSH1 0x3F RETURNDATASIZE ADD AND DUP3 ADD PUSH1 0x40 MSTORE RETURNDATASIZE DUP3 MSTORE RETURNDATASIZE PUSH1 0x0 PUSH1 0x20 DUP5 ADD RETURNDATACOPY PUSH2 0x7B0 JUMP JUMPDEST PUSH1 0x60 SWAP2 POP JUMPDEST POP POP SWAP1 POP DUP1 PUSH2 0x7F4 JUMPI PUSH1 0x40 MLOAD PUSH32 0x8C379A000000000000000000000000000000000000000000000000000000000 DUP2 MSTORE PUSH1 0x4 ADD PUSH2 0x7EB SWAP1 PUSH2 0x2897 JUMP JUMPDEST PUSH1 0x40 MLOAD DUP1 SWAP2 SUB SWAP1 REVERT JUMPDEST PUSH1 0x3 PUSH1 0x0 SWAP1 SLOAD SWAP1 PUSH2 0x100 EXP SWAP1 DIV PUSH20 0xFFFFFFFFFFFFFFFFFFFFFFFFFFFFFFFFFFFFFFFF AND PUSH20 0xFFFFFFFFFFFFFFFFFFFFFFFFFFFFFFFFFFFFFFFF AND PUSH4 0xA9059CBB CALLER DUP5 PUSH1 0x40 MLOAD DUP4 PUSH4 0xFFFFFFFF AND PUSH1 0xE0 SHL DUP2 MSTORE PUSH1 0x4 ADD PUSH2 0x851 SWAP3 SWAP2 SWAP1 PUSH2 0x25C7 JUMP JUMPDEST PUSH1 0x20 PUSH1 0x40 MLOAD DUP1 DUP4 SUB DUP2 PUSH1 0x0 DUP8 GAS CALL ISZERO DUP1 ISZERO PUSH2 0x870 JUMPI RETURNDATASIZE PUSH1 0x0 DUP1 RETURNDATACOPY RETURNDATASIZE PUSH1 0x0 REVERT JUMPDEST POP POP POP POP PUSH1 0x40 MLOAD RETURNDATASIZE PUSH1 0x1F NOT PUSH1 0x1F DUP3 ADD AND DUP3 ADD DUP1 PUSH1 0x40 MSTORE POP DUP2 ADD SWAP1 PUSH2 0x894 SWAP2 SWAP1 PUSH2 0x2628 JUMP JUMPDEST PUSH2 0x8D3 JUMPI PUSH1 0x40 MLOAD PUSH32 0x8C379A000000000000000000000000000000000000000000000000000000000 DUP2 MSTORE PUSH1 0x4 ADD PUSH2 0x8CA SWAP1 PUSH2 0x26A1 JUMP JUMPDEST PUSH1 0x40 MLOAD DUP1 SWAP2 SUB SWAP1 REVERT JUMPDEST DUP3 PUSH1 0x5 PUSH1 0x0 DUP3 DUP3 SLOAD PUSH2 0x8E5 SWAP2 SWAP1 PUSH2 0x24BB JUMP JUMPDEST SWAP3 POP POP DUP2 SWAP1 SSTORE POP DUP2 PUSH1 0x4 PUSH1 0x0 DUP3 DUP3 SLOAD PUSH2 0x8FE SWAP2 SWAP1 PUSH2 0x24BB JUMP JUMPDEST SWAP3 POP POP DUP2 SWAP1 SSTORE POP PUSH1 0x5 SLOAD PUSH1 0x4 SLOAD PUSH2 0x915 SWAP2 SWAP1 PUSH2 0x2419 JUMP JUMPDEST PUSH1 0xA DUP2 SWAP1 SSTORE POP PUSH1 0x0 PUSH1 0x6 PUSH1 0x0 CALLER PUSH20 0xFFFFFFFFFFFFFFFFFFFFFFFFFFFFFFFFFFFFFFFF AND PUSH20 0xFFFFFFFFFFFFFFFFFFFFFFFFFFFFFFFFFFFFFFFF AND DUP2 MSTORE PUSH1 0x20 ADD SWAP1 DUP2 MSTORE PUSH1 0x20 ADD PUSH1 0x0 KECCAK256 DUP2 SWAP1 SSTORE POP PUSH1 0x0 JUMPDEST PUSH1 0x7 DUP1 SLOAD SWAP1 POP DUP2 LT ISZERO PUSH2 0xA02 JUMPI CALLER PUSH20 0xFFFFFFFFFFFFFFFFFFFFFFFFFFFFFFFFFFFFFFFF AND PUSH1 0x7 DUP3 DUP2 SLOAD DUP2 LT PUSH2 0x99B JUMPI PUSH2 0x99A PUSH2 0x28B7 JUMP JUMPDEST JUMPDEST SWAP1 PUSH1 0x0 MSTORE PUSH1 0x20 PUSH1 0x0 KECCAK256 ADD PUSH1 0x0 SWAP1 SLOAD SWAP1 PUSH2 0x100 EXP SWAP1 DIV PUSH20 0xFFFFFFFFFFFFFFFFFFFFFFFFFFFFFFFFFFFFFFFF AND PUSH20 0xFFFFFFFFFFFFFFFFFFFFFFFFFFFFFFFFFFFFFFFF AND SUB PUSH2 0x9EF JUMPI PUSH2 0x9EA DUP2 PUSH2 0x1D43 JUMP JUMPDEST PUSH2 0xA02 JUMP JUMPDEST DUP1 DUP1 PUSH2 0x9FA SWAP1 PUSH2 0x28E6 JUMP JUMPDEST SWAP2 POP POP PUSH2 0x963 JUMP JUMPDEST POP POP POP POP POP POP POP JUMP JUMPDEST PUSH2 0xA13 PUSH2 0x1E80 JUMP JUMPDEST PUSH2 0xA1D PUSH1 0x0 PUSH2 0x1EFE JUMP JUMPDEST JUMP JUMPDEST PUSH2 0xA27 PUSH2 0x1E80 JUMP JUMPDEST PUSH1 0x0 PUSH1 0x4 SLOAD EQ PUSH2 0xA6C JUMPI PUSH1 0x40 MLOAD PUSH32 0x8C379A000000000000000000000000000000000000000000000000000000000 DUP2 MSTORE PUSH1 0x4 ADD PUSH2 0xA63 SWAP1 PUSH2 0x297A JUMP JUMPDEST PUSH1 0x40 MLOAD DUP1 SWAP2 SUB SWAP1 REVERT JUMPDEST PUSH1 0x0 PUSH1 0x5 SLOAD EQ PUSH2 0xAB1 JUMPI PUSH1 0x40 MLOAD PUSH32 0x8C379A000000000000000000000000000000000000000000000000000000000 DUP2 MSTORE PUSH1 0x4 ADD PUSH2 0xAA8 SWAP1 PUSH2 0x29E6 JUMP JUMPDEST PUSH1 0x40 MLOAD DUP1 SWAP2 SUB SWAP1 REVERT JUMPDEST PUSH1 0x0 CALLVALUE GT PUSH2 0xAF4 JUMPI PUSH1 0x40 MLOAD PUSH32 0x8C379A000000000000000000000000000000000000000000000000000000000 DUP2 MSTORE PUSH1 0x4 ADD PUSH2 0xAEB SWAP1 PUSH2 0x2A52 JUMP JUMPDEST PUSH1 0x40 MLOAD DUP1 SWAP2 SUB SWAP1 REVERT JUMPDEST PUSH1 0x0 PUSH1 0x3 PUSH1 0x0 SWAP1 SLOAD SWAP1 PUSH2 0x100 EXP SWAP1 DIV PUSH20 0xFFFFFFFFFFFFFFFFFFFFFFFFFFFFFFFFFFFFFFFF AND PUSH20 0xFFFFFFFFFFFFFFFFFFFFFFFFFFFFFFFFFFFFFFFF AND PUSH4 0x70A08231 CALLER PUSH1 0x40 MLOAD DUP3 PUSH4 0xFFFFFFFF AND PUSH1 0xE0 SHL DUP2 MSTORE PUSH1 0x4 ADD PUSH2 0xB51 SWAP2 SWAP1 PUSH2 0x2106 JUMP JUMPDEST PUSH1 0x20 PUSH1 0x40 MLOAD DUP1 DUP4 SUB DUP2 DUP7 GAS STATICCALL ISZERO DUP1 ISZERO PUSH2 0xB6E JUMPI RETURNDATASIZE PUSH1 0x0 DUP1 RETURNDATACOPY RETURNDATASIZE PUSH1 0x0 REVERT JUMPDEST POP POP POP POP PUSH1 0x40 MLOAD RETURNDATASIZE PUSH1 0x1F NOT PUSH1 0x1F DUP3 ADD AND DUP3 ADD DUP1 PUSH1 0x40 MSTORE POP DUP2 ADD SWAP1 PUSH2 0xB92 SWAP2 SWAP1 PUSH2 0x2A87 JUMP JUMPDEST SWAP1 POP DUP1 DUP3 GT ISZERO PUSH2 0xBD7 JUMPI PUSH1 0x40 MLOAD PUSH32 0x8C379A000000000000000000000000000000000000000000000000000000000 DUP2 MSTORE PUSH1 0x4 ADD PUSH2 0xBCE SWAP1 PUSH2 0x2B26 JUMP JUMPDEST PUSH1 0x40 MLOAD DUP1 SWAP2 SUB SWAP1 REVERT JUMPDEST PUSH1 0x0 DUP3 GT PUSH2 0xC1A JUMPI PUSH1 0x40 MLOAD PUSH32 0x8C379A000000000000000000000000000000000000000000000000000000000 DUP2 MSTORE PUSH1 0x4 ADD PUSH2 0xC11 SWAP1 PUSH2 0x2B92 JUMP JUMPDEST PUSH1 0x40 MLOAD DUP1 SWAP2 SUB SWAP1 REVERT JUMPDEST PUSH1 0x3 PUSH1 0x0 SWAP1 SLOAD SWAP1 PUSH2 0x100 EXP SWAP1 DIV PUSH20 0xFFFFFFFFFFFFFFFFFFFFFFFFFFFFFFFFFFFFFFFF AND PUSH20 0xFFFFFFFFFFFFFFFFFFFFFFFFFFFFFFFFFFFFFFFF AND PUSH4 0x23B872DD CALLER ADDRESS DUP6 PUSH1 0x40 MLOAD DUP5 PUSH4 0xFFFFFFFF AND PUSH1 0xE0 SHL DUP2 MSTORE PUSH1 0x4 ADD PUSH2 0xC79 SWAP4 SWAP3 SWAP2 SWAP1 PUSH2 0x2BB2 JUMP JUMPDEST PUSH1 0x20 PUSH1 0x40 MLOAD DUP1 DUP4 SUB DUP2 PUSH1 0x0 DUP8 GAS CALL ISZERO DUP1 ISZERO PUSH2 0xC98 JUMPI RETURNDATASIZE PUSH1 0x0 DUP1 RETURNDATACOPY RETURNDATASIZE PUSH1 0x0 REVERT JUMPDEST POP POP POP POP PUSH1 0x40 MLOAD RETURNDATASIZE PUSH1 0x1F NOT PUSH1 0x1F DUP3 ADD AND DUP3 ADD DUP1 PUSH1 0x40 MSTORE POP DUP2 ADD SWAP1 PUSH2 0xCBC SWAP2 SWAP1 PUSH2 0x2628 JUMP JUMPDEST POP PUSH1 0x3 PUSH1 0x0 SWAP1 SLOAD SWAP1 PUSH2 0x100 EXP SWAP1 DIV PUSH20 0xFFFFFFFFFFFFFFFFFFFFFFFFFFFFFFFFFFFFFFFF AND PUSH20 0xFFFFFFFFFFFFFFFFFFFFFFFFFFFFFFFFFFFFFFFF AND PUSH4 0x70A08231 ADDRESS PUSH1 0x40 MLOAD DUP3 PUSH4 0xFFFFFFFF AND PUSH1 0xE0 SHL DUP2 MSTORE PUSH1 0x4 ADD PUSH2 0xD18 SWAP2 SWAP1 PUSH2 0x2106 JUMP JUMPDEST PUSH1 0x20 PUSH1 0x40 MLOAD DUP1 DUP4 SUB DUP2 DUP7 GAS STATICCALL ISZERO DUP1 ISZERO PUSH2 0xD35 JUMPI RETURNDATASIZE PUSH1 0x0 DUP1 RETURNDATACOPY RETURNDATASIZE PUSH1 0x0 REVERT JUMPDEST POP POP POP POP PUSH1 0x40 MLOAD RETURNDATASIZE PUSH1 0x1F NOT PUSH1 0x1F DUP3 ADD AND DUP3 ADD DUP1 PUSH1 0x40 MSTORE POP DUP2 ADD SWAP1 PUSH2 0xD59 SWAP2 SWAP1 PUSH2 0x2A87 JUMP JUMPDEST PUSH1 0x4 DUP2 SWAP1 SSTORE POP CALLVALUE PUSH1 0x5 DUP2 SWAP1 SSTORE POP PUSH1 0x5 SLOAD PUSH1 0x4 SLOAD PUSH2 0xD76 SWAP2 SWAP1 PUSH2 0x2419 JUMP JUMPDEST PUSH1 0xA DUP2 SWAP1 SSTORE POP POP POP JUMP JUMPDEST PUSH1 0x0 PUSH1 0x4 SLOAD GT DUP1 ISZERO PUSH2 0xD94 JUMPI POP PUSH1 0x0 PUSH1 0x5 SLOAD GT JUMPDEST PUSH2 0xDD3 JUMPI PUSH1 0x40 MLOAD PUSH32 0x8C379A000000000000000000000000000000000000000000000000000000000 DUP2 MSTORE PUSH1 0x4 ADD PUSH2 0xDCA SWAP1 PUSH2 0x232A JUMP JUMPDEST PUSH1 0x40 MLOAD DUP1 SWAP2 SUB SWAP1 REVERT JUMPDEST PUSH1 0x0 DUP4 GT DUP1 ISZERO PUSH2 0xE22 JUMPI POP PUSH1 0x6 PUSH1 0x0 CALLER PUSH20 0xFFFFFFFFFFFFFFFFFFFFFFFFFFFFFFFFFFFFFFFF AND PUSH20 0xFFFFFFFFFFFFFFFFFFFFFFFFFFFFFFFFFFFFFFFF AND DUP2 MSTORE PUSH1 0x20 ADD SWAP1 DUP2 MSTORE PUSH1 0x20 ADD PUSH1 0x0 KECCAK256 SLOAD DUP4 GT ISZERO JUMPDEST PUSH2 0xE61 JUMPI PUSH1 0x40 MLOAD PUSH32 0x8C379A000000000000000000000000000000000000000000000000000000000 DUP2 MSTORE PUSH1 0x4 ADD PUSH2 0xE58 SWAP1 PUSH2 0x2C35 JUMP JUMPDEST PUSH1 0x40 MLOAD DUP1 SWAP2 SUB SWAP1 REVERT JUMPDEST PUSH1 0x0 PUSH1 0x5 SLOAD PUSH8 0xDE0B6B3A7640000 PUSH1 0x4 SLOAD PUSH2 0xE7C SWAP2 SWAP1 PUSH2 0x2419 JUMP JUMPDEST PUSH2 0xE86 SWAP2 SWAP1 PUSH2 0x248A JUMP JUMPDEST SWAP1 POP DUP2 DUP2 LT ISZERO DUP1 ISZERO PUSH2 0xE98 JUMPI POP DUP3 DUP2 GT ISZERO JUMPDEST PUSH2 0xED7 JUMPI PUSH1 0x40 MLOAD PUSH32 0x8C379A000000000000000000000000000000000000000000000000000000000 DUP2 MSTORE PUSH1 0x4 ADD PUSH2 0xECE SWAP1 PUSH2 0x2779 JUMP JUMPDEST PUSH1 0x40 MLOAD DUP1 SWAP2 SUB SWAP1 REVERT JUMPDEST PUSH1 0x0 PUSH1 0x5 SLOAD PUSH1 0x4 SLOAD DUP7 PUSH2 0xEEA SWAP2 SWAP1 PUSH2 0x2419 JUMP JUMPDEST PUSH2 0xEF4 SWAP2 SWAP1 PUSH2 0x248A JUMP JUMPDEST SWAP1 POP PUSH1 0x1 DUP6 PUSH1 0x5 SLOAD PUSH2 0xF06 SWAP2 SWAP1 PUSH2 0x24BB JUMP JUMPDEST LT ISZERO PUSH2 0xF47 JUMPI PUSH1 0x40 MLOAD PUSH32 0x8C379A000000000000000000000000000000000000000000000000000000000 DUP2 MSTORE PUSH1 0x4 ADD PUSH2 0xF3E SWAP1 PUSH2 0x27E5 JUMP JUMPDEST PUSH1 0x40 MLOAD DUP1 SWAP2 SUB SWAP1 REVERT JUMPDEST PUSH1 0x1 DUP2 PUSH1 0x4 SLOAD PUSH2 0xF57 SWAP2 SWAP1 PUSH2 0x24BB JUMP JUMPDEST LT ISZERO PUSH2 0xF98 JUMPI PUSH1 0x40 MLOAD PUSH32 0x8C379A000000000000000000000000000000000000000000000000000000000 DUP2 MSTORE PUSH1 0x4 ADD PUSH2 0xF8F SWAP1 PUSH2 0x253B JUMP JUMPDEST PUSH1 0x40 MLOAD DUP1 SWAP2 SUB SWAP1 REVERT JUMPDEST PUSH1 0x0 CALLER PUSH20 0xFFFFFFFFFFFFFFFFFFFFFFFFFFFFFFFFFFFFFFFF AND DUP7 PUSH1 0x40 MLOAD PUSH2 0xFBE SWAP1 PUSH2 0x2836 JUMP JUMPDEST PUSH1 0x0 PUSH1 0x40 MLOAD DUP1 DUP4 SUB DUP2 DUP6 DUP8 GAS CALL SWAP3 POP POP POP RETURNDATASIZE DUP1 PUSH1 0x0 DUP2 EQ PUSH2 0xFFB JUMPI PUSH1 0x40 MLOAD SWAP2 POP PUSH1 0x1F NOT PUSH1 0x3F RETURNDATASIZE ADD AND DUP3 ADD PUSH1 0x40 MSTORE RETURNDATASIZE DUP3 MSTORE RETURNDATASIZE PUSH1 0x0 PUSH1 0x20 DUP5 ADD RETURNDATACOPY PUSH2 0x1000 JUMP JUMPDEST PUSH1 0x60 SWAP2 POP JUMPDEST POP POP SWAP1 POP DUP1 PUSH2 0x1044 JUMPI PUSH1 0x40 MLOAD PUSH32 0x8C379A000000000000000000000000000000000000000000000000000000000 DUP2 MSTORE PUSH1 0x4 ADD PUSH2 0x103B SWAP1 PUSH2 0x2897 JUMP JUMPDEST PUSH1 0x40 MLOAD DUP1 SWAP2 SUB SWAP1 REVERT JUMPDEST PUSH1 0x3 PUSH1 0x0 SWAP1 SLOAD SWAP1 PUSH2 0x100 EXP SWAP1 DIV PUSH20 0xFFFFFFFFFFFFFFFFFFFFFFFFFFFFFFFFFFFFFFFF AND PUSH20 0xFFFFFFFFFFFFFFFFFFFFFFFFFFFFFFFFFFFFFFFF AND PUSH4 0xA9059CBB CALLER DUP5 PUSH1 0x40 MLOAD DUP4 PUSH4 0xFFFFFFFF AND PUSH1 0xE0 SHL DUP2 MSTORE PUSH1 0x4 ADD PUSH2 0x10A1 SWAP3 SWAP2 SWAP1 PUSH2 0x25C7 JUMP JUMPDEST PUSH1 0x20 PUSH1 0x40 MLOAD DUP1 DUP4 SUB DUP2 PUSH1 0x0 DUP8 GAS CALL ISZERO DUP1 ISZERO PUSH2 0x10C0 JUMPI RETURNDATASIZE PUSH1 0x0 DUP1 RETURNDATACOPY RETURNDATASIZE PUSH1 0x0 REVERT JUMPDEST POP POP POP POP PUSH1 0x40 MLOAD RETURNDATASIZE PUSH1 0x1F NOT PUSH1 0x1F DUP3 ADD AND DUP3 ADD DUP1 PUSH1 0x40 MSTORE POP DUP2 ADD SWAP1 PUSH2 0x10E4 SWAP2 SWAP1 PUSH2 0x2628 JUMP JUMPDEST PUSH2 0x1123 JUMPI PUSH1 0x40 MLOAD PUSH32 0x8C379A000000000000000000000000000000000000000000000000000000000 DUP2 MSTORE PUSH1 0x4 ADD PUSH2 0x111A SWAP1 PUSH2 0x26A1 JUMP JUMPDEST PUSH1 0x40 MLOAD DUP1 SWAP2 SUB SWAP1 REVERT JUMPDEST DUP6 PUSH1 0x5 PUSH1 0x0 DUP3 DUP3 SLOAD PUSH2 0x1135 SWAP2 SWAP1 PUSH2 0x24BB JUMP JUMPDEST SWAP3 POP POP DUP2 SWAP1 SSTORE POP DUP2 PUSH1 0x4 PUSH1 0x0 DUP3 DUP3 SLOAD PUSH2 0x114E SWAP2 SWAP1 PUSH2 0x24BB JUMP JUMPDEST SWAP3 POP POP DUP2 SWAP1 SSTORE POP PUSH1 0x5 SLOAD PUSH1 0x4 SLOAD PUSH2 0x1165 SWAP2 SWAP1 PUSH2 0x2419 JUMP JUMPDEST PUSH1 0xA DUP2 SWAP1 SSTORE POP DUP6 PUSH1 0x6 PUSH1 0x0 CALLER PUSH20 0xFFFFFFFFFFFFFFFFFFFFFFFFFFFFFFFFFFFFFFFF AND PUSH20 0xFFFFFFFFFFFFFFFFFFFFFFFFFFFFFFFFFFFFFFFF AND DUP2 MSTORE PUSH1 0x20 ADD SWAP1 DUP2 MSTORE PUSH1 0x20 ADD PUSH1 0x0 KECCAK256 PUSH1 0x0 DUP3 DUP3 SLOAD PUSH2 0x11BA SWAP2 SWAP1 PUSH2 0x24BB JUMP JUMPDEST SWAP3 POP POP DUP2 SWAP1 SSTORE POP PUSH1 0x0 PUSH1 0x6 PUSH1 0x0 CALLER PUSH20 0xFFFFFFFFFFFFFFFFFFFFFFFFFFFFFFFFFFFFFFFF AND PUSH20 0xFFFFFFFFFFFFFFFFFFFFFFFFFFFFFFFFFFFFFFFF AND DUP2 MSTORE PUSH1 0x20 ADD SWAP1 DUP2 MSTORE PUSH1 0x20 ADD PUSH1 0x0 KECCAK256 SLOAD SUB PUSH2 0x12AC JUMPI PUSH1 0x0 JUMPDEST PUSH1 0x7 DUP1 SLOAD SWAP1 POP DUP2 LT ISZERO PUSH2 0x12AA JUMPI CALLER PUSH20 0xFFFFFFFFFFFFFFFFFFFFFFFFFFFFFFFFFFFFFFFF AND PUSH1 0x7 DUP3 DUP2 SLOAD DUP2 LT PUSH2 0x1243 JUMPI PUSH2 0x1242 PUSH2 0x28B7 JUMP JUMPDEST JUMPDEST SWAP1 PUSH1 0x0 MSTORE PUSH1 0x20 PUSH1 0x0 KECCAK256 ADD PUSH1 0x0 SWAP1 SLOAD SWAP1 PUSH2 0x100 EXP SWAP1 DIV PUSH20 0xFFFFFFFFFFFFFFFFFFFFFFFFFFFFFFFFFFFFFFFF AND PUSH20 0xFFFFFFFFFFFFFFFFFFFFFFFFFFFFFFFFFFFFFFFF AND SUB PUSH2 0x1297 JUMPI PUSH2 0x1292 DUP2 PUSH2 0x1D43 JUMP JUMPDEST PUSH2 0x12AA JUMP JUMPDEST DUP1 DUP1 PUSH2 0x12A2 SWAP1 PUSH2 0x28E6 JUMP JUMPDEST SWAP2 POP POP PUSH2 0x120B JUMP JUMPDEST POP JUMPDEST POP POP POP POP POP POP JUMP JUMPDEST PUSH1 0x0 DUP1 PUSH1 0x0 SWAP1 SLOAD SWAP1 PUSH2 0x100 EXP SWAP1 DIV PUSH20 0xFFFFFFFFFFFFFFFFFFFFFFFFFFFFFFFFFFFFFFFF AND SWAP1 POP SWAP1 JUMP JUMPDEST PUSH1 0x0 PUSH1 0x4 SLOAD GT DUP1 ISZERO PUSH2 0x12F1 JUMPI POP PUSH1 0x0 PUSH1 0x5 SLOAD GT JUMPDEST PUSH2 0x1330 JUMPI PUSH1 0x40 MLOAD PUSH32 0x8C379A000000000000000000000000000000000000000000000000000000000 DUP2 MSTORE PUSH1 0x4 ADD PUSH2 0x1327 SWAP1 PUSH2 0x2CA1 JUMP JUMPDEST PUSH1 0x40 MLOAD DUP1 SWAP2 SUB SWAP1 REVERT JUMPDEST PUSH1 0x0 CALLVALUE GT PUSH2 0x1373 JUMPI PUSH1 0x40 MLOAD PUSH32 0x8C379A000000000000000000000000000000000000000000000000000000000 DUP2 MSTORE PUSH1 0x4 ADD PUSH2 0x136A SWAP1 PUSH2 0x2D0D JUMP JUMPDEST PUSH1 0x40 MLOAD DUP1 SWAP2 SUB SWAP1 REVERT JUMPDEST PUSH1 0x0 PUSH1 0x5 SLOAD PUSH8 0xDE0B6B3A7640000 PUSH1 0x4 SLOAD PUSH2 0x138E SWAP2 SWAP1 PUSH2 0x2419 JUMP JUMPDEST PUSH2 0x1398 SWAP2 SWAP1 PUSH2 0x248A JUMP JUMPDEST SWAP1 POP DUP2 DUP2 LT ISZERO DUP1 ISZERO PUSH2 0x13AA JUMPI POP DUP3 DUP2 GT ISZERO JUMPDEST PUSH2 0x13E9 JUMPI PUSH1 0x40 MLOAD PUSH32 0x8C379A000000000000000000000000000000000000000000000000000000000 DUP2 MSTORE PUSH1 0x4 ADD PUSH2 0x13E0 SWAP1 PUSH2 0x2779 JUMP JUMPDEST PUSH1 0x40 MLOAD DUP1 SWAP2 SUB SWAP1 REVERT JUMPDEST PUSH1 0x0 PUSH1 0x5 SLOAD PUSH1 0x4 SLOAD CALLVALUE PUSH2 0x13FC SWAP2 SWAP1 PUSH2 0x2419 JUMP JUMPDEST PUSH2 0x1406 SWAP2 SWAP1 PUSH2 0x248A JUMP JUMPDEST SWAP1 POP PUSH1 0x0 DUP2 GT PUSH2 0x144B JUMPI PUSH1 0x40 MLOAD PUSH32 0x8C379A000000000000000000000000000000000000000000000000000000000 DUP2 MSTORE PUSH1 0x4 ADD PUSH2 0x1442 SWAP1 PUSH2 0x2D79 JUMP JUMPDEST PUSH1 0x40 MLOAD DUP1 SWAP2 SUB SWAP1 REVERT JUMPDEST DUP1 PUSH1 0x3 PUSH1 0x0 SWAP1 SLOAD SWAP1 PUSH2 0x100 EXP SWAP1 DIV PUSH20 0xFFFFFFFFFFFFFFFFFFFFFFFFFFFFFFFFFFFFFFFF AND PUSH20 0xFFFFFFFFFFFFFFFFFFFFFFFFFFFFFFFFFFFFFFFF AND PUSH4 0x70A08231 CALLER PUSH1 0x40 MLOAD DUP3 PUSH4 0xFFFFFFFF AND PUSH1 0xE0 SHL DUP2 MSTORE PUSH1 0x4 ADD PUSH2 0x14A7 SWAP2 SWAP1 PUSH2 0x2106 JUMP JUMPDEST PUSH1 0x20 PUSH1 0x40 MLOAD DUP1 DUP4 SUB DUP2 DUP7 GAS STATICCALL ISZERO DUP1 ISZERO PUSH2 0x14C4 JUMPI RETURNDATASIZE PUSH1 0x0 DUP1 RETURNDATACOPY RETURNDATASIZE PUSH1 0x0 REVERT JUMPDEST POP POP POP POP PUSH1 0x40 MLOAD RETURNDATASIZE PUSH1 0x1F NOT PUSH1 0x1F DUP3 ADD AND DUP3 ADD DUP1 PUSH1 0x40 MSTORE POP DUP2 ADD SWAP1 PUSH2 0x14E8 SWAP2 SWAP1 PUSH2 0x2A87 JUMP JUMPDEST GT PUSH2 0x1528 JUMPI PUSH1 0x40 MLOAD PUSH32 0x8C379A000000000000000000000000000000000000000000000000000000000 DUP2 MSTORE PUSH1 0x4 ADD PUSH2 0x151F SWAP1 PUSH2 0x2DE5 JUMP JUMPDEST PUSH1 0x40 MLOAD DUP1 SWAP2 SUB SWAP1 REVERT JUMPDEST PUSH1 0x3 PUSH1 0x0 SWAP1 SLOAD SWAP1 PUSH2 0x100 EXP SWAP1 DIV PUSH20 0xFFFFFFFFFFFFFFFFFFFFFFFFFFFFFFFFFFFFFFFF AND PUSH20 0xFFFFFFFFFFFFFFFFFFFFFFFFFFFFFFFFFFFFFFFF AND PUSH4 0x23B872DD CALLER ADDRESS DUP5 PUSH1 0x40 MLOAD DUP5 PUSH4 0xFFFFFFFF AND PUSH1 0xE0 SHL DUP2 MSTORE PUSH1 0x4 ADD PUSH2 0x1587 SWAP4 SWAP3 SWAP2 SWAP1 PUSH2 0x2BB2 JUMP JUMPDEST PUSH1 0x20 PUSH1 0x40 MLOAD DUP1 DUP4 SUB DUP2 PUSH1 0x0 DUP8 GAS CALL ISZERO DUP1 ISZERO PUSH2 0x15A6 JUMPI RETURNDATASIZE PUSH1 0x0 DUP1 RETURNDATACOPY RETURNDATASIZE PUSH1 0x0 REVERT JUMPDEST POP POP POP POP PUSH1 0x40 MLOAD RETURNDATASIZE PUSH1 0x1F NOT PUSH1 0x1F DUP3 ADD AND DUP3 ADD DUP1 PUSH1 0x40 MSTORE POP DUP2 ADD SWAP1 PUSH2 0x15CA SWAP2 SWAP1 PUSH2 0x2628 JUMP JUMPDEST PUSH2 0x1609 JUMPI PUSH1 0x40 MLOAD PUSH32 0x8C379A000000000000000000000000000000000000000000000000000000000 DUP2 MSTORE PUSH1 0x4 ADD PUSH2 0x1600 SWAP1 PUSH2 0x26A1 JUMP JUMPDEST PUSH1 0x40 MLOAD DUP1 SWAP2 SUB SWAP1 REVERT JUMPDEST DUP1 PUSH1 0x4 PUSH1 0x0 DUP3 DUP3 SLOAD PUSH2 0x161B SWAP2 SWAP1 PUSH2 0x23E5 JUMP JUMPDEST SWAP3 POP POP DUP2 SWAP1 SSTORE POP CALLVALUE PUSH1 0x5 PUSH1 0x0 DUP3 DUP3 SLOAD PUSH2 0x1634 SWAP2 SWAP1 PUSH2 0x23E5 JUMP JUMPDEST SWAP3 POP POP DUP2 SWAP1 SSTORE POP PUSH1 0x5 SLOAD PUSH1 0x4 SLOAD PUSH2 0x164B SWAP2 SWAP1 PUSH2 0x2419 JUMP JUMPDEST PUSH1 0xA DUP2 SWAP1 SSTORE POP PUSH1 0x0 DUP1 JUMPDEST PUSH1 0x7 DUP1 SLOAD SWAP1 POP DUP2 LT ISZERO PUSH2 0x16EF JUMPI CALLER PUSH20 0xFFFFFFFFFFFFFFFFFFFFFFFFFFFFFFFFFFFFFFFF AND PUSH1 0x7 DUP3 DUP2 SLOAD DUP2 LT PUSH2 0x168D JUMPI PUSH2 0x168C PUSH2 0x28B7 JUMP JUMPDEST JUMPDEST SWAP1 PUSH1 0x0 MSTORE PUSH1 0x20 PUSH1 0x0 KECCAK256 ADD PUSH1 0x0 SWAP1 SLOAD SWAP1 PUSH2 0x100 EXP SWAP1 DIV PUSH20 0xFFFFFFFFFFFFFFFFFFFFFFFFFFFFFFFFFFFFFFFF AND PUSH20 0xFFFFFFFFFFFFFFFFFFFFFFFFFFFFFFFFFFFFFFFF AND SUB PUSH2 0x16DC JUMPI PUSH1 0x1 SWAP2 POP PUSH2 0x16EF JUMP JUMPDEST DUP1 DUP1 PUSH2 0x16E7 SWAP1 PUSH2 0x28E6 JUMP JUMPDEST SWAP2 POP POP PUSH2 0x1655 JUMP JUMPDEST POP DUP1 PUSH2 0x1759 JUMPI PUSH1 0x7 CALLER SWAP1 DUP1 PUSH1 0x1 DUP2 SLOAD ADD DUP1 DUP3 SSTORE DUP1 SWAP2 POP POP PUSH1 0x1 SWAP1 SUB SWAP1 PUSH1 0x0 MSTORE PUSH1 0x20 PUSH1 0x0 KECCAK256 ADD PUSH1 0x0 SWAP1 SWAP2 SWAP1 SWAP2 SWAP1 SWAP2 PUSH2 0x100 EXP DUP2 SLOAD DUP2 PUSH20 0xFFFFFFFFFFFFFFFFFFFFFFFFFFFFFFFFFFFFFFFF MUL NOT AND SWAP1 DUP4 PUSH20 0xFFFFFFFFFFFFFFFFFFFFFFFFFFFFFFFFFFFFFFFF AND MUL OR SWAP1 SSTORE POP JUMPDEST CALLVALUE PUSH1 0x6 PUSH1 0x0 CALLER PUSH20 0xFFFFFFFFFFFFFFFFFFFFFFFFFFFFFFFFFFFFFFFF AND PUSH20 0xFFFFFFFFFFFFFFFFFFFFFFFFFFFFFFFFFFFFFFFF AND DUP2 MSTORE PUSH1 0x20 ADD SWAP1 DUP2 MSTORE PUSH1 0x20 ADD PUSH1 0x0 KECCAK256 PUSH1 0x0 DUP3 DUP3 SLOAD PUSH2 0x17A8 SWAP2 SWAP1 PUSH2 0x23E5 JUMP JUMPDEST SWAP3 POP POP DUP2 SWAP1 SSTORE POP POP POP POP POP POP JUMP JUMPDEST PUSH1 0x0 PUSH1 0x4 SLOAD GT DUP1 ISZERO PUSH2 0x17CA JUMPI POP PUSH1 0x0 PUSH1 0x5 SLOAD GT JUMPDEST PUSH2 0x1809 JUMPI PUSH1 0x40 MLOAD PUSH32 0x8C379A000000000000000000000000000000000000000000000000000000000 DUP2 MSTORE PUSH1 0x4 ADD PUSH2 0x1800 SWAP1 PUSH2 0x232A JUMP JUMPDEST PUSH1 0x40 MLOAD DUP1 SWAP2 SUB SWAP1 REVERT JUMPDEST PUSH1 0x0 DUP3 GT PUSH2 0x184C JUMPI PUSH1 0x40 MLOAD PUSH32 0x8C379A000000000000000000000000000000000000000000000000000000000 DUP2 MSTORE PUSH1 0x4 ADD PUSH2 0x1843 SWAP1 PUSH2 0x2D79 JUMP JUMPDEST PUSH1 0x40 MLOAD DUP1 SWAP2 SUB SWAP1 REVERT JUMPDEST DUP2 PUSH1 0x3 PUSH1 0x0 SWAP1 SLOAD SWAP1 PUSH2 0x100 EXP SWAP1 DIV PUSH20 0xFFFFFFFFFFFFFFFFFFFFFFFFFFFFFFFFFFFFFFFF AND PUSH20 0xFFFFFFFFFFFFFFFFFFFFFFFFFFFFFFFFFFFFFFFF AND PUSH4 0x70A08231 CALLER PUSH1 0x40 MLOAD DUP3 PUSH4 0xFFFFFFFF AND PUSH1 0xE0 SHL DUP2 MSTORE PUSH1 0x4 ADD PUSH2 0x18A8 SWAP2 SWAP1 PUSH2 0x2106 JUMP JUMPDEST PUSH1 0x20 PUSH1 0x40 MLOAD DUP1 DUP4 SUB DUP2 DUP7 GAS STATICCALL ISZERO DUP1 ISZERO PUSH2 0x18C5 JUMPI RETURNDATASIZE PUSH1 0x0 DUP1 RETURNDATACOPY RETURNDATASIZE PUSH1 0x0 REVERT JUMPDEST POP POP POP POP PUSH1 0x40 MLOAD RETURNDATASIZE PUSH1 0x1F NOT PUSH1 0x1F DUP3 ADD AND DUP3 ADD DUP1 PUSH1 0x40 MSTORE POP DUP2 ADD SWAP1 PUSH2 0x18E9 SWAP2 SWAP1 PUSH2 0x2A87 JUMP JUMPDEST LT ISZERO PUSH2 0x192A JUMPI PUSH1 0x40 MLOAD PUSH32 0x8C379A000000000000000000000000000000000000000000000000000000000 DUP2 MSTORE PUSH1 0x4 ADD PUSH2 0x1921 SWAP1 PUSH2 0x2E51 JUMP JUMPDEST PUSH1 0x40 MLOAD DUP1 SWAP2 SUB SWAP1 REVERT JUMPDEST PUSH1 0x0 DUP3 PUSH1 0x4 SLOAD PUSH2 0x193A SWAP2 SWAP1 PUSH2 0x23E5 JUMP JUMPDEST PUSH1 0x5 SLOAD DUP5 PUSH2 0x1948 SWAP2 SWAP1 PUSH2 0x2419 JUMP JUMPDEST PUSH2 0x1952 SWAP2 SWAP1 PUSH2 0x248A JUMP JUMPDEST SWAP1 POP PUSH1 0x9 SLOAD PUSH1 0x8 SLOAD PUSH1 0x9 SLOAD PUSH2 0x1967 SWAP2 SWAP1 PUSH2 0x24BB JUMP JUMPDEST DUP3 PUSH2 0x1972 SWAP2 SWAP1 PUSH2 0x2419 JUMP JUMPDEST PUSH2 0x197C SWAP2 SWAP1 PUSH2 0x248A JUMP JUMPDEST SWAP1 POP PUSH1 0x1 DUP2 PUSH1 0x5 SLOAD PUSH2 0x198E SWAP2 SWAP1 PUSH2 0x24BB JUMP JUMPDEST LT ISZERO PUSH2 0x19CF JUMPI PUSH1 0x40 MLOAD PUSH32 0x8C379A000000000000000000000000000000000000000000000000000000000 DUP2 MSTORE PUSH1 0x4 ADD PUSH2 0x19C6 SWAP1 PUSH2 0x27E5 JUMP JUMPDEST PUSH1 0x40 MLOAD DUP1 SWAP2 SUB SWAP1 REVERT JUMPDEST PUSH1 0x0 DUP2 PUSH8 0xDE0B6B3A7640000 DUP6 PUSH2 0x19E6 SWAP2 SWAP1 PUSH2 0x2419 JUMP JUMPDEST PUSH2 0x19F0 SWAP2 SWAP1 PUSH2 0x248A JUMP JUMPDEST SWAP1 POP DUP3 DUP2 GT ISZERO PUSH2 0x1A35 JUMPI PUSH1 0x40 MLOAD PUSH32 0x8C379A000000000000000000000000000000000000000000000000000000000 DUP2 MSTORE PUSH1 0x4 ADD PUSH2 0x1A2C SWAP1 PUSH2 0x25A7 JUMP JUMPDEST PUSH1 0x40 MLOAD DUP1 SWAP2 SUB SWAP1 REVERT JUMPDEST PUSH1 0x3 PUSH1 0x0 SWAP1 SLOAD SWAP1 PUSH2 0x100 EXP SWAP1 DIV PUSH20 0xFFFFFFFFFFFFFFFFFFFFFFFFFFFFFFFFFFFFFFFF AND PUSH20 0xFFFFFFFFFFFFFFFFFFFFFFFFFFFFFFFFFFFFFFFF AND PUSH4 0x23B872DD CALLER ADDRESS DUP8 PUSH1 0x40 MLOAD DUP5 PUSH4 0xFFFFFFFF AND PUSH1 0xE0 SHL DUP2 MSTORE PUSH1 0x4 ADD PUSH2 0x1A94 SWAP4 SWAP3 SWAP2 SWAP1 PUSH2 0x2BB2 JUMP JUMPDEST PUSH1 0x20 PUSH1 0x40 MLOAD DUP1 DUP4 SUB DUP2 PUSH1 0x0 DUP8 GAS CALL ISZERO DUP1 ISZERO PUSH2 0x1AB3 JUMPI RETURNDATASIZE PUSH1 0x0 DUP1 RETURNDATACOPY RETURNDATASIZE PUSH1 0x0 REVERT JUMPDEST POP POP POP POP PUSH1 0x40 MLOAD RETURNDATASIZE PUSH1 0x1F NOT PUSH1 0x1F DUP3 ADD AND DUP3 ADD DUP1 PUSH1 0x40 MSTORE POP DUP2 ADD SWAP1 PUSH2 0x1AD7 SWAP2 SWAP1 PUSH2 0x2628 JUMP JUMPDEST PUSH2 0x1B16 JUMPI PUSH1 0x40 MLOAD PUSH32 0x8C379A000000000000000000000000000000000000000000000000000000000 DUP2 MSTORE PUSH1 0x4 ADD PUSH2 0x1B0D SWAP1 PUSH2 0x26A1 JUMP JUMPDEST PUSH1 0x40 MLOAD DUP1 SWAP2 SUB SWAP1 REVERT JUMPDEST PUSH1 0x0 CALLER PUSH20 0xFFFFFFFFFFFFFFFFFFFFFFFFFFFFFFFFFFFFFFFF AND DUP4 PUSH1 0x40 MLOAD PUSH2 0x1B3C SWAP1 PUSH2 0x2836 JUMP JUMPDEST PUSH1 0x0 PUSH1 0x40 MLOAD DUP1 DUP4 SUB DUP2 DUP6 DUP8 GAS CALL SWAP3 POP POP POP RETURNDATASIZE DUP1 PUSH1 0x0 DUP2 EQ PUSH2 0x1B79 JUMPI PUSH1 0x40 MLOAD SWAP2 POP PUSH1 0x1F NOT PUSH1 0x3F RETURNDATASIZE ADD AND DUP3 ADD PUSH1 0x40 MSTORE RETURNDATASIZE DUP3 MSTORE RETURNDATASIZE PUSH1 0x0 PUSH1 0x20 DUP5 ADD RETURNDATACOPY PUSH2 0x1B7E JUMP JUMPDEST PUSH1 0x60 SWAP2 POP JUMPDEST POP POP SWAP1 POP DUP1 PUSH2 0x1BC2 JUMPI PUSH1 0x40 MLOAD PUSH32 0x8C379A000000000000000000000000000000000000000000000000000000000 DUP2 MSTORE PUSH1 0x4 ADD PUSH2 0x1BB9 SWAP1 PUSH2 0x2897 JUMP JUMPDEST PUSH1 0x40 MLOAD DUP1 SWAP2 SUB SWAP1 REVERT JUMPDEST DUP5 PUSH1 0x4 PUSH1 0x0 DUP3 DUP3 SLOAD PUSH2 0x1BD4 SWAP2 SWAP1 PUSH2 0x23E5 JUMP JUMPDEST SWAP3 POP POP DUP2 SWAP1 SSTORE POP DUP3 PUSH1 0x5 PUSH1 0x0 DUP3 DUP3 SLOAD PUSH2 0x1BED SWAP2 SWAP1 PUSH2 0x24BB JUMP JUMPDEST SWAP3 POP POP DUP2 SWAP1 SSTORE POP POP POP POP POP POP JUMP JUMPDEST PUSH1 0x0 DUP1 PUSH1 0x8 SLOAD PUSH1 0x9 SLOAD SWAP2 POP SWAP2 POP SWAP1 SWAP2 JUMP JUMPDEST PUSH2 0x1C14 PUSH2 0x1E80 JUMP JUMPDEST PUSH1 0x0 PUSH20 0xFFFFFFFFFFFFFFFFFFFFFFFFFFFFFFFFFFFFFFFF AND DUP2 PUSH20 0xFFFFFFFFFFFFFFFFFFFFFFFFFFFFFFFFFFFFFFFF AND SUB PUSH2 0x1C83 JUMPI PUSH1 0x40 MLOAD PUSH32 0x8C379A000000000000000000000000000000000000000000000000000000000 DUP2 MSTORE PUSH1 0x4 ADD PUSH2 0x1C7A SWAP1 PUSH2 0x2EE3 JUMP JUMPDEST PUSH1 0x40 MLOAD DUP1 SWAP2 SUB SWAP1 REVERT JUMPDEST PUSH2 0x1C8C DUP2 PUSH2 0x1EFE JUMP JUMPDEST POP JUMP JUMPDEST PUSH1 0x1 DUP1 SLOAD PUSH2 0x1C9C SWAP1 PUSH2 0x2F32 JUMP JUMPDEST DUP1 PUSH1 0x1F ADD PUSH1 0x20 DUP1 SWAP2 DIV MUL PUSH1 0x20 ADD PUSH1 0x40 MLOAD SWAP1 DUP2 ADD PUSH1 0x40 MSTORE DUP1 SWAP3 SWAP2 SWAP1 DUP2 DUP2 MSTORE PUSH1 0x20 ADD DUP3 DUP1 SLOAD PUSH2 0x1CC8 SWAP1 PUSH2 0x2F32 JUMP JUMPDEST DUP1 ISZERO PUSH2 0x1D15 JUMPI DUP1 PUSH1 0x1F LT PUSH2 0x1CEA JUMPI PUSH2 0x100 DUP1 DUP4 SLOAD DIV MUL DUP4 MSTORE SWAP2 PUSH1 0x20 ADD SWAP2 PUSH2 0x1D15 JUMP JUMPDEST DUP3 ADD SWAP2 SWAP1 PUSH1 0x0 MSTORE PUSH1 0x20 PUSH1 0x0 KECCAK256 SWAP1 JUMPDEST DUP2 SLOAD DUP2 MSTORE SWAP1 PUSH1 0x1 ADD SWAP1 PUSH1 0x20 ADD DUP1 DUP4 GT PUSH2 0x1CF8 JUMPI DUP3 SWAP1 SUB PUSH1 0x1F AND DUP3 ADD SWAP2 JUMPDEST POP POP POP POP POP DUP2 JUMP JUMPDEST PUSH1 0x3 PUSH1 0x0 SWAP1 SLOAD SWAP1 PUSH2 0x100 EXP SWAP1 DIV PUSH20 0xFFFFFFFFFFFFFFFFFFFFFFFFFFFFFFFFFFFFFFFF AND DUP2 JUMP JUMPDEST PUSH1 0x7 DUP1 SLOAD SWAP1 POP DUP2 LT PUSH2 0x1D8A JUMPI PUSH1 0x40 MLOAD PUSH32 0x8C379A000000000000000000000000000000000000000000000000000000000 DUP2 MSTORE PUSH1 0x4 ADD PUSH2 0x1D81 SWAP1 PUSH2 0x2FD5 JUMP JUMPDEST PUSH1 0x40 MLOAD DUP1 SWAP2 SUB SWAP1 REVERT JUMPDEST PUSH1 0x7 PUSH1 0x1 PUSH1 0x7 DUP1 SLOAD SWAP1 POP PUSH2 0x1D9E SWAP2 SWAP1 PUSH2 0x24BB JUMP JUMPDEST DUP2 SLOAD DUP2 LT PUSH2 0x1DAF JUMPI PUSH2 0x1DAE PUSH2 0x28B7 JUMP JUMPDEST JUMPDEST SWAP1 PUSH1 0x0 MSTORE PUSH1 0x20 PUSH1 0x0 KECCAK256 ADD PUSH1 0x0 SWAP1 SLOAD SWAP1 PUSH2 0x100 EXP SWAP1 DIV PUSH20 0xFFFFFFFFFFFFFFFFFFFFFFFFFFFFFFFFFFFFFFFF AND PUSH1 0x7 DUP3 DUP2 SLOAD DUP2 LT PUSH2 0x1DEE JUMPI PUSH2 0x1DED PUSH2 0x28B7 JUMP JUMPDEST JUMPDEST SWAP1 PUSH1 0x0 MSTORE PUSH1 0x20 PUSH1 0x0 KECCAK256 ADD PUSH1 0x0 PUSH2 0x100 EXP DUP2 SLOAD DUP2 PUSH20 0xFFFFFFFFFFFFFFFFFFFFFFFFFFFFFFFFFFFFFFFF MUL NOT AND SWAP1 DUP4 PUSH20 0xFFFFFFFFFFFFFFFFFFFFFFFFFFFFFFFFFFFFFFFF AND MUL OR SWAP1 SSTORE POP PUSH1 0x7 DUP1 SLOAD DUP1 PUSH2 0x1E48 JUMPI PUSH2 0x1E47 PUSH2 0x2FF5 JUMP JUMPDEST JUMPDEST PUSH1 0x1 SWAP1 SUB DUP2 DUP2 SWAP1 PUSH1 0x0 MSTORE PUSH1 0x20 PUSH1 0x0 KECCAK256 ADD PUSH1 0x0 PUSH2 0x100 EXP DUP2 SLOAD SWAP1 PUSH20 0xFFFFFFFFFFFFFFFFFFFFFFFFFFFFFFFFFFFFFFFF MUL NOT AND SWAP1 SSTORE SWAP1 SSTORE POP JUMP JUMPDEST PUSH2 0x1E88 PUSH2 0x1FC2 JUMP JUMPDEST PUSH20 0xFFFFFFFFFFFFFFFFFFFFFFFFFFFFFFFFFFFFFFFF AND PUSH2 0x1EA6 PUSH2 0x12B4 JUMP JUMPDEST PUSH20 0xFFFFFFFFFFFFFFFFFFFFFFFFFFFFFFFFFFFFFFFF AND EQ PUSH2 0x1EFC JUMPI PUSH1 0x40 MLOAD PUSH32 0x8C379A000000000000000000000000000000000000000000000000000000000 DUP2 MSTORE PUSH1 0x4 ADD PUSH2 0x1EF3 SWAP1 PUSH2 0x3070 JUMP JUMPDEST PUSH1 0x40 MLOAD DUP1 SWAP2 SUB SWAP1 REVERT JUMPDEST JUMP JUMPDEST PUSH1 0x0 DUP1 PUSH1 0x0 SWAP1 SLOAD SWAP1 PUSH2 0x100 EXP SWAP1 DIV PUSH20 0xFFFFFFFFFFFFFFFFFFFFFFFFFFFFFFFFFFFFFFFF AND SWAP1 POP DUP2 PUSH1 0x0 DUP1 PUSH2 0x100 EXP DUP2 SLOAD DUP2 PUSH20 0xFFFFFFFFFFFFFFFFFFFFFFFFFFFFFFFFFFFFFFFF MUL NOT AND SWAP1 DUP4 PUSH20 0xFFFFFFFFFFFFFFFFFFFFFFFFFFFFFFFFFFFFFFFF AND MUL OR SWAP1 SSTORE POP DUP2 PUSH20 0xFFFFFFFFFFFFFFFFFFFFFFFFFFFFFFFFFFFFFFFF AND DUP2 PUSH20 0xFFFFFFFFFFFFFFFFFFFFFFFFFFFFFFFFFFFFFFFF AND PUSH32 0x8BE0079C531659141344CD1FD0A4F28419497F9722A3DAAFE3B4186F6B6457E0 PUSH1 0x40 MLOAD PUSH1 0x40 MLOAD DUP1 SWAP2 SUB SWAP1 LOG3 POP POP JUMP JUMPDEST PUSH1 0x0 CALLER SWAP1 POP SWAP1 JUMP JUMPDEST PUSH1 0x0 DUP1 REVERT JUMPDEST PUSH1 0x0 DUP2 SWAP1 POP SWAP2 SWAP1 POP JUMP JUMPDEST PUSH2 0x1FE2 DUP2 PUSH2 0x1FCF JUMP JUMPDEST DUP2 EQ PUSH2 0x1FED JUMPI PUSH1 0x0 DUP1 REVERT JUMPDEST POP JUMP JUMPDEST PUSH1 0x0 DUP2 CALLDATALOAD SWAP1 POP PUSH2 0x1FFF DUP2 PUSH2 0x1FD9 JUMP JUMPDEST SWAP3 SWAP2 POP POP JUMP JUMPDEST PUSH1 0x0 PUSH1 0x20 DUP3 DUP5 SUB SLT ISZERO PUSH2 0x201B JUMPI PUSH2 0x201A PUSH2 0x1FCA JUMP JUMPDEST JUMPDEST PUSH1 0x0 PUSH2 0x2029 DUP5 DUP3 DUP6 ADD PUSH2 0x1FF0 JUMP JUMPDEST SWAP2 POP POP SWAP3 SWAP2 POP POP JUMP JUMPDEST PUSH1 0x0 DUP1 PUSH1 0x40 DUP4 DUP6 SUB SLT ISZERO PUSH2 0x2049 JUMPI PUSH2 0x2048 PUSH2 0x1FCA JUMP JUMPDEST JUMPDEST PUSH1 0x0 PUSH2 0x2057 DUP6 DUP3 DUP7 ADD PUSH2 0x1FF0 JUMP JUMPDEST SWAP3 POP POP PUSH1 0x20 PUSH2 0x2068 DUP6 DUP3 DUP7 ADD PUSH2 0x1FF0 JUMP JUMPDEST SWAP2 POP POP SWAP3 POP SWAP3 SWAP1 POP JUMP JUMPDEST PUSH1 0x0 DUP1 PUSH1 0x0 PUSH1 0x60 DUP5 DUP7 SUB SLT ISZERO PUSH2 0x208B JUMPI PUSH2 0x208A PUSH2 0x1FCA JUMP JUMPDEST JUMPDEST PUSH1 0x0 PUSH2 0x2099 DUP7 DUP3 DUP8 ADD PUSH2 0x1FF0 JUMP JUMPDEST SWAP4 POP POP PUSH1 0x20 PUSH2 0x20AA DUP7 DUP3 DUP8 ADD PUSH2 0x1FF0 JUMP JUMPDEST SWAP3 POP POP PUSH1 0x40 PUSH2 0x20BB DUP7 DUP3 DUP8 ADD PUSH2 0x1FF0 JUMP JUMPDEST SWAP2 POP POP SWAP3 POP SWAP3 POP SWAP3 JUMP JUMPDEST PUSH1 0x0 PUSH20 0xFFFFFFFFFFFFFFFFFFFFFFFFFFFFFFFFFFFFFFFF DUP3 AND SWAP1 POP SWAP2 SWAP1 POP JUMP JUMPDEST PUSH1 0x0 PUSH2 0x20F0 DUP3 PUSH2 0x20C5 JUMP JUMPDEST SWAP1 POP SWAP2 SWAP1 POP JUMP JUMPDEST PUSH2 0x2100 DUP2 PUSH2 0x20E5 JUMP JUMPDEST DUP3 MSTORE POP POP JUMP JUMPDEST PUSH1 0x0 PUSH1 0x20 DUP3 ADD SWAP1 POP PUSH2 0x211B PUSH1 0x0 DUP4 ADD DUP5 PUSH2 0x20F7 JUMP JUMPDEST SWAP3 SWAP2 POP POP JUMP JUMPDEST PUSH2 0x212A DUP2 PUSH2 0x1FCF JUMP JUMPDEST DUP3 MSTORE POP POP JUMP JUMPDEST PUSH1 0x0 PUSH1 0x40 DUP3 ADD SWAP1 POP PUSH2 0x2145 PUSH1 0x0 DUP4 ADD DUP6 PUSH2 0x2121 JUMP JUMPDEST PUSH2 0x2152 PUSH1 0x20 DUP4 ADD DUP5 PUSH2 0x2121 JUMP JUMPDEST SWAP4 SWAP3 POP POP POP JUMP JUMPDEST PUSH2 0x2162 DUP2 PUSH2 0x20E5 JUMP JUMPDEST DUP2 EQ PUSH2 0x216D JUMPI PUSH1 0x0 DUP1 REVERT JUMPDEST POP JUMP JUMPDEST PUSH1 0x0 DUP2 CALLDATALOAD SWAP1 POP PUSH2 0x217F DUP2 PUSH2 0x2159 JUMP JUMPDEST SWAP3 SWAP2 POP POP JUMP JUMPDEST PUSH1 0x0 PUSH1 0x20 DUP3 DUP5 SUB SLT ISZERO PUSH2 0x219B JUMPI PUSH2 0x219A PUSH2 0x1FCA JUMP JUMPDEST JUMPDEST PUSH1 0x0 PUSH2 0x21A9 DUP5 DUP3 DUP6 ADD PUSH2 0x2170 JUMP JUMPDEST SWAP2 POP POP SWAP3 SWAP2 POP POP JUMP JUMPDEST PUSH1 0x0 DUP2 MLOAD SWAP1 POP SWAP2 SWAP1 POP JUMP JUMPDEST PUSH1 0x0 DUP3 DUP3 MSTORE PUSH1 0x20 DUP3 ADD SWAP1 POP SWAP3 SWAP2 POP POP JUMP JUMPDEST PUSH1 0x0 JUMPDEST DUP4 DUP2 LT ISZERO PUSH2 0x21EC JUMPI DUP1 DUP3 ADD MLOAD DUP2 DUP5 ADD MSTORE PUSH1 0x20 DUP2 ADD SWAP1 POP PUSH2 0x21D1 JUMP JUMPDEST PUSH1 0x0 DUP5 DUP5 ADD MSTORE POP POP POP POP JUMP JUMPDEST PUSH1 0x0 PUSH1 0x1F NOT PUSH1 0x1F DUP4 ADD AND SWAP1 POP SWAP2 SWAP1 POP JUMP JUMPDEST PUSH1 0x0 PUSH2 0x2214 DUP3 PUSH2 0x21B2 JUMP JUMPDEST PUSH2 0x221E DUP2 DUP6 PUSH2 0x21BD JUMP JUMPDEST SWAP4 POP PUSH2 0x222E DUP2 DUP6 PUSH1 0x20 DUP7 ADD PUSH2 0x21CE JUMP JUMPDEST PUSH2 0x2237 DUP2 PUSH2 0x21F8 JUMP JUMPDEST DUP5 ADD SWAP2 POP POP SWAP3 SWAP2 POP POP JUMP JUMPDEST PUSH1 0x0 PUSH1 0x20 DUP3 ADD SWAP1 POP DUP2 DUP2 SUB PUSH1 0x0 DUP4 ADD MSTORE PUSH2 0x225C DUP2 DUP5 PUSH2 0x2209 JUMP JUMPDEST SWAP1 POP SWAP3 SWAP2 POP POP JUMP JUMPDEST PUSH1 0x0 DUP2 SWAP1 POP SWAP2 SWAP1 POP JUMP JUMPDEST PUSH1 0x0 PUSH2 0x2289 PUSH2 0x2284 PUSH2 0x227F DUP5 PUSH2 0x20C5 JUMP JUMPDEST PUSH2 0x2264 JUMP JUMPDEST PUSH2 0x20C5 JUMP JUMPDEST SWAP1 POP SWAP2 SWAP1 POP JUMP JUMPDEST PUSH1 0x0 PUSH2 0x229B DUP3 PUSH2 0x226E JUMP JUMPDEST SWAP1 POP SWAP2 SWAP1 POP JUMP JUMPDEST PUSH1 0x0 PUSH2 0x22AD DUP3 PUSH2 0x2290 JUMP JUMPDEST SWAP1 POP SWAP2 SWAP1 POP JUMP JUMPDEST PUSH2 0x22BD DUP2 PUSH2 0x22A2 JUMP JUMPDEST DUP3 MSTORE POP POP JUMP JUMPDEST PUSH1 0x0 PUSH1 0x20 DUP3 ADD SWAP1 POP PUSH2 0x22D8 PUSH1 0x0 DUP4 ADD DUP5 PUSH2 0x22B4 JUMP JUMPDEST SWAP3 SWAP2 POP POP JUMP JUMPDEST PUSH32 0x506F6F6C20646F6573206E6F7420657869737400000000000000000000000000 PUSH1 0x0 DUP3 ADD MSTORE POP JUMP JUMPDEST PUSH1 0x0 PUSH2 0x2314 PUSH1 0x13 DUP4 PUSH2 0x21BD JUMP JUMPDEST SWAP2 POP PUSH2 0x231F DUP3 PUSH2 0x22DE JUMP JUMPDEST PUSH1 0x20 DUP3 ADD SWAP1 POP SWAP2 SWAP1 POP JUMP JUMPDEST PUSH1 0x0 PUSH1 0x20 DUP3 ADD SWAP1 POP DUP2 DUP2 SUB PUSH1 0x0 DUP4 ADD MSTORE PUSH2 0x2343 DUP2 PUSH2 0x2307 JUMP JUMPDEST SWAP1 POP SWAP2 SWAP1 POP JUMP JUMPDEST PUSH32 0x4E6F204554482073656E74000000000000000000000000000000000000000000 PUSH1 0x0 DUP3 ADD MSTORE POP JUMP JUMPDEST PUSH1 0x0 PUSH2 0x2380 PUSH1 0xB DUP4 PUSH2 0x21BD JUMP JUMPDEST SWAP2 POP PUSH2 0x238B DUP3 PUSH2 0x234A JUMP JUMPDEST PUSH1 0x20 DUP3 ADD SWAP1 POP SWAP2 SWAP1 POP JUMP JUMPDEST PUSH1 0x0 PUSH1 0x20 DUP3 ADD SWAP1 POP DUP2 DUP2 SUB PUSH1 0x0 DUP4 ADD MSTORE PUSH2 0x23AF DUP2 PUSH2 0x2373 JUMP JUMPDEST SWAP1 POP SWAP2 SWAP1 POP JUMP JUMPDEST PUSH32 0x4E487B7100000000000000000000000000000000000000000000000000000000 PUSH1 0x0 MSTORE PUSH1 0x11 PUSH1 0x4 MSTORE PUSH1 0x24 PUSH1 0x0 REVERT JUMPDEST PUSH1 0x0 PUSH2 0x23F0 DUP3 PUSH2 0x1FCF JUMP JUMPDEST SWAP2 POP PUSH2 0x23FB DUP4 PUSH2 0x1FCF JUMP JUMPDEST SWAP3 POP DUP3 DUP3 ADD SWAP1 POP DUP1 DUP3 GT ISZERO PUSH2 0x2413 JUMPI PUSH2 0x2412 PUSH2 0x23B6 JUMP JUMPDEST JUMPDEST SWAP3 SWAP2 POP POP JUMP JUMPDEST PUSH1 0x0 PUSH2 0x2424 DUP3 PUSH2 0x1FCF JUMP JUMPDEST SWAP2 POP PUSH2 0x242F DUP4 PUSH2 0x1FCF JUMP JUMPDEST SWAP3 POP DUP3 DUP3 MUL PUSH2 0x243D DUP2 PUSH2 0x1FCF JUMP JUMPDEST SWAP2 POP DUP3 DUP3 DIV DUP5 EQ DUP4 ISZERO OR PUSH2 0x2454 JUMPI PUSH2 0x2453 PUSH2 0x23B6 JUMP JUMPDEST JUMPDEST POP SWAP3 SWAP2 POP POP JUMP JUMPDEST PUSH32 0x4E487B7100000000000000000000000000000000000000000000000000000000 PUSH1 0x0 MSTORE PUSH1 0x12 PUSH1 0x4 MSTORE PUSH1 0x24 PUSH1 0x0 REVERT JUMPDEST PUSH1 0x0 PUSH2 0x2495 DUP3 PUSH2 0x1FCF JUMP JUMPDEST SWAP2 POP PUSH2 0x24A0 DUP4 PUSH2 0x1FCF JUMP JUMPDEST SWAP3 POP DUP3 PUSH2 0x24B0 JUMPI PUSH2 0x24AF PUSH2 0x245B JUMP JUMPDEST JUMPDEST DUP3 DUP3 DIV SWAP1 POP SWAP3 SWAP2 POP POP JUMP JUMPDEST PUSH1 0x0 PUSH2 0x24C6 DUP3 PUSH2 0x1FCF JUMP JUMPDEST SWAP2 POP PUSH2 0x24D1 DUP4 PUSH2 0x1FCF JUMP JUMPDEST SWAP3 POP DUP3 DUP3 SUB SWAP1 POP DUP2 DUP2 GT ISZERO PUSH2 0x24E9 JUMPI PUSH2 0x24E8 PUSH2 0x23B6 JUMP JUMPDEST JUMPDEST SWAP3 SWAP2 POP POP JUMP JUMPDEST PUSH32 0x546F6B656E20726573657276657320746F6F206C6F7700000000000000000000 PUSH1 0x0 DUP3 ADD MSTORE POP JUMP JUMPDEST PUSH1 0x0 PUSH2 0x2525 PUSH1 0x16 DUP4 PUSH2 0x21BD JUMP JUMPDEST SWAP2 POP PUSH2 0x2530 DUP3 PUSH2 0x24EF JUMP JUMPDEST PUSH1 0x20 DUP3 ADD SWAP1 POP SWAP2 SWAP1 POP JUMP JUMPDEST PUSH1 0x0 PUSH1 0x20 DUP3 ADD SWAP1 POP DUP2 DUP2 SUB PUSH1 0x0 DUP4 ADD MSTORE PUSH2 0x2554 DUP2 PUSH2 0x2518 JUMP JUMPDEST SWAP1 POP SWAP2 SWAP1 POP JUMP JUMPDEST PUSH32 0x45786368616E6765207261746520746F6F206869676800000000000000000000 PUSH1 0x0 DUP3 ADD MSTORE POP JUMP JUMPDEST PUSH1 0x0 PUSH2 0x2591 PUSH1 0x16 DUP4 PUSH2 0x21BD JUMP JUMPDEST SWAP2 POP PUSH2 0x259C DUP3 PUSH2 0x255B JUMP JUMPDEST PUSH1 0x20 DUP3 ADD SWAP1 POP SWAP2 SWAP1 POP JUMP JUMPDEST PUSH1 0x0 PUSH1 0x20 DUP3 ADD SWAP1 POP DUP2 DUP2 SUB PUSH1 0x0 DUP4 ADD MSTORE PUSH2 0x25C0 DUP2 PUSH2 0x2584 JUMP JUMPDEST SWAP1 POP SWAP2 SWAP1 POP JUMP JUMPDEST PUSH1 0x0 PUSH1 0x40 DUP3 ADD SWAP1 POP PUSH2 0x25DC PUSH1 0x0 DUP4 ADD DUP6 PUSH2 0x20F7 JUMP JUMPDEST PUSH2 0x25E9 PUSH1 0x20 DUP4 ADD DUP5 PUSH2 0x2121 JUMP JUMPDEST SWAP4 SWAP3 POP POP POP JUMP JUMPDEST PUSH1 0x0 DUP2 ISZERO ISZERO SWAP1 POP SWAP2 SWAP1 POP JUMP JUMPDEST PUSH2 0x2605 DUP2 PUSH2 0x25F0 JUMP JUMPDEST DUP2 EQ PUSH2 0x2610 JUMPI PUSH1 0x0 DUP1 REVERT JUMPDEST POP JUMP JUMPDEST PUSH1 0x0 DUP2 MLOAD SWAP1 POP PUSH2 0x2622 DUP2 PUSH2 0x25FC JUMP JUMPDEST SWAP3 SWAP2 POP POP JUMP JUMPDEST PUSH1 0x0 PUSH1 0x20 DUP3 DUP5 SUB SLT ISZERO PUSH2 0x263E JUMPI PUSH2 0x263D PUSH2 0x1FCA JUMP JUMPDEST JUMPDEST PUSH1 0x0 PUSH2 0x264C DUP5 DUP3 DUP6 ADD PUSH2 0x2613 JUMP JUMPDEST SWAP2 POP POP SWAP3 SWAP2 POP POP JUMP JUMPDEST PUSH32 0x546F6B656E207472616E73666572206661696C65640000000000000000000000 PUSH1 0x0 DUP3 ADD MSTORE POP JUMP JUMPDEST PUSH1 0x0 PUSH2 0x268B PUSH1 0x15 DUP4 PUSH2 0x21BD JUMP JUMPDEST SWAP2 POP PUSH2 0x2696 DUP3 PUSH2 0x2655 JUMP JUMPDEST PUSH1 0x20 DUP3 ADD SWAP1 POP SWAP2 SWAP1 POP JUMP JUMPDEST PUSH1 0x0 PUSH1 0x20 DUP3 ADD SWAP1 POP DUP2 DUP2 SUB PUSH1 0x0 DUP4 ADD MSTORE PUSH2 0x26BA DUP2 PUSH2 0x267E JUMP JUMPDEST SWAP1 POP SWAP2 SWAP1 POP JUMP JUMPDEST PUSH32 0x4E6F206C697175696469747920746F2072656D6F766500000000000000000000 PUSH1 0x0 DUP3 ADD MSTORE POP JUMP JUMPDEST PUSH1 0x0 PUSH2 0x26F7 PUSH1 0x16 DUP4 PUSH2 0x21BD JUMP JUMPDEST SWAP2 POP PUSH2 0x2702 DUP3 PUSH2 0x26C1 JUMP JUMPDEST PUSH1 0x20 DUP3 ADD SWAP1 POP SWAP2 SWAP1 POP JUMP JUMPDEST PUSH1 0x0 PUSH1 0x20 DUP3 ADD SWAP1 POP DUP2 DUP2 SUB PUSH1 0x0 DUP4 ADD MSTORE PUSH2 0x2726 DUP2 PUSH2 0x26EA JUMP JUMPDEST SWAP1 POP SWAP2 SWAP1 POP JUMP JUMPDEST PUSH32 0x45786368616E67652072617465206F7574206F6620626F756E64730000000000 PUSH1 0x0 DUP3 ADD MSTORE POP JUMP JUMPDEST PUSH1 0x0 PUSH2 0x2763 PUSH1 0x1B DUP4 PUSH2 0x21BD JUMP JUMPDEST SWAP2 POP PUSH2 0x276E DUP3 PUSH2 0x272D JUMP JUMPDEST PUSH1 0x20 DUP3 ADD SWAP1 POP SWAP2 SWAP1 POP JUMP JUMPDEST PUSH1 0x0 PUSH1 0x20 DUP3 ADD SWAP1 POP DUP2 DUP2 SUB PUSH1 0x0 DUP4 ADD MSTORE PUSH2 0x2792 DUP2 PUSH2 0x2756 JUMP JUMPDEST SWAP1 POP SWAP2 SWAP1 POP JUMP JUMPDEST PUSH32 0x45544820726573657276657320746F6F206C6F77000000000000000000000000 PUSH1 0x0 DUP3 ADD MSTORE POP JUMP JUMPDEST PUSH1 0x0 PUSH2 0x27CF PUSH1 0x14 DUP4 PUSH2 0x21BD JUMP JUMPDEST SWAP2 POP PUSH2 0x27DA DUP3 PUSH2 0x2799 JUMP JUMPDEST PUSH1 0x20 DUP3 ADD SWAP1 POP SWAP2 SWAP1 POP JUMP JUMPDEST PUSH1 0x0 PUSH1 0x20 DUP3 ADD SWAP1 POP DUP2 DUP2 SUB PUSH1 0x0 DUP4 ADD MSTORE PUSH2 0x27FE DUP2 PUSH2 0x27C2 JUMP JUMPDEST SWAP1 POP SWAP2 SWAP1 POP JUMP JUMPDEST PUSH1 0x0 DUP2 SWAP1 POP SWAP3 SWAP2 POP POP JUMP JUMPDEST POP JUMP JUMPDEST PUSH1 0x0 PUSH2 0x2820 PUSH1 0x0 DUP4 PUSH2 0x2805 JUMP JUMPDEST SWAP2 POP PUSH2 0x282B DUP3 PUSH2 0x2810 JUMP JUMPDEST PUSH1 0x0 DUP3 ADD SWAP1 POP SWAP2 SWAP1 POP JUMP JUMPDEST PUSH1 0x0 PUSH2 0x2841 DUP3 PUSH2 0x2813 JUMP JUMPDEST SWAP2 POP DUP2 SWAP1 POP SWAP2 SWAP1 POP JUMP JUMPDEST PUSH32 0x455448207472616E73666572206661696C656400000000000000000000000000 PUSH1 0x0 DUP3 ADD MSTORE POP JUMP JUMPDEST PUSH1 0x0 PUSH2 0x2881 PUSH1 0x13 DUP4 PUSH2 0x21BD JUMP JUMPDEST SWAP2 POP PUSH2 0x288C DUP3 PUSH2 0x284B JUMP JUMPDEST PUSH1 0x20 DUP3 ADD SWAP1 POP SWAP2 SWAP1 POP JUMP JUMPDEST PUSH1 0x0 PUSH1 0x20 DUP3 ADD SWAP1 POP DUP2 DUP2 SUB PUSH1 0x0 DUP4 ADD MSTORE PUSH2 0x28B0 DUP2 PUSH2 0x2874 JUMP JUMPDEST SWAP1 POP SWAP2 SWAP1 POP JUMP JUMPDEST PUSH32 0x4E487B7100000000000000000000000000000000000000000000000000000000 PUSH1 0x0 MSTORE PUSH1 0x32 PUSH1 0x4 MSTORE PUSH1 0x24 PUSH1 0x0 REVERT JUMPDEST PUSH1 0x0 PUSH2 0x28F1 DUP3 PUSH2 0x1FCF JUMP JUMPDEST SWAP2 POP PUSH32 0xFFFFFFFFFFFFFFFFFFFFFFFFFFFFFFFFFFFFFFFFFFFFFFFFFFFFFFFFFFFFFFFF DUP3 SUB PUSH2 0x2923 JUMPI PUSH2 0x2922 PUSH2 0x23B6 JUMP JUMPDEST JUMPDEST PUSH1 0x1 DUP3 ADD SWAP1 POP SWAP2 SWAP1 POP JUMP JUMPDEST PUSH32 0x546F6B656E20726573657276657320776173206E6F7420300000000000000000 PUSH1 0x0 DUP3 ADD MSTORE POP JUMP JUMPDEST PUSH1 0x0 PUSH2 0x2964 PUSH1 0x18 DUP4 PUSH2 0x21BD JUMP JUMPDEST SWAP2 POP PUSH2 0x296F DUP3 PUSH2 0x292E JUMP JUMPDEST PUSH1 0x20 DUP3 ADD SWAP1 POP SWAP2 SWAP1 POP JUMP JUMPDEST PUSH1 0x0 PUSH1 0x20 DUP3 ADD SWAP1 POP DUP2 DUP2 SUB PUSH1 0x0 DUP4 ADD MSTORE PUSH2 0x2993 DUP2 PUSH2 0x2957 JUMP JUMPDEST SWAP1 POP SWAP2 SWAP1 POP JUMP JUMPDEST PUSH32 0x45544820726573657276657320776173206E6F7420302E000000000000000000 PUSH1 0x0 DUP3 ADD MSTORE POP JUMP JUMPDEST PUSH1 0x0 PUSH2 0x29D0 PUSH1 0x17 DUP4 PUSH2 0x21BD JUMP JUMPDEST SWAP2 POP PUSH2 0x29DB DUP3 PUSH2 0x299A JUMP JUMPDEST PUSH1 0x20 DUP3 ADD SWAP1 POP SWAP2 SWAP1 POP JUMP JUMPDEST PUSH1 0x0 PUSH1 0x20 DUP3 ADD SWAP1 POP DUP2 DUP2 SUB PUSH1 0x0 DUP4 ADD MSTORE PUSH2 0x29FF DUP2 PUSH2 0x29C3 JUMP JUMPDEST SWAP1 POP SWAP2 SWAP1 POP JUMP JUMPDEST PUSH32 0x4E6565642065746820746F2063726561746520706F6F6C2E0000000000000000 PUSH1 0x0 DUP3 ADD MSTORE POP JUMP JUMPDEST PUSH1 0x0 PUSH2 0x2A3C PUSH1 0x18 DUP4 PUSH2 0x21BD JUMP JUMPDEST SWAP2 POP PUSH2 0x2A47 DUP3 PUSH2 0x2A06 JUMP JUMPDEST PUSH1 0x20 DUP3 ADD SWAP1 POP SWAP2 SWAP1 POP JUMP JUMPDEST PUSH1 0x0 PUSH1 0x20 DUP3 ADD SWAP1 POP DUP2 DUP2 SUB PUSH1 0x0 DUP4 ADD MSTORE PUSH2 0x2A6B DUP2 PUSH2 0x2A2F JUMP JUMPDEST SWAP1 POP SWAP2 SWAP1 POP JUMP JUMPDEST PUSH1 0x0 DUP2 MLOAD SWAP1 POP PUSH2 0x2A81 DUP2 PUSH2 0x1FD9 JUMP JUMPDEST SWAP3 SWAP2 POP POP JUMP JUMPDEST PUSH1 0x0 PUSH1 0x20 DUP3 DUP5 SUB SLT ISZERO PUSH2 0x2A9D JUMPI PUSH2 0x2A9C PUSH2 0x1FCA JUMP JUMPDEST JUMPDEST PUSH1 0x0 PUSH2 0x2AAB DUP5 DUP3 DUP6 ADD PUSH2 0x2A72 JUMP JUMPDEST SWAP2 POP POP SWAP3 SWAP2 POP POP JUMP JUMPDEST PUSH32 0x4E6F74206861766520656E6F75676820746F6B656E7320746F20637265617465 PUSH1 0x0 DUP3 ADD MSTORE PUSH32 0x2074686520706F6F6C0000000000000000000000000000000000000000000000 PUSH1 0x20 DUP3 ADD MSTORE POP JUMP JUMPDEST PUSH1 0x0 PUSH2 0x2B10 PUSH1 0x29 DUP4 PUSH2 0x21BD JUMP JUMPDEST SWAP2 POP PUSH2 0x2B1B DUP3 PUSH2 0x2AB4 JUMP JUMPDEST PUSH1 0x40 DUP3 ADD SWAP1 POP SWAP2 SWAP1 POP JUMP JUMPDEST PUSH1 0x0 PUSH1 0x20 DUP3 ADD SWAP1 POP DUP2 DUP2 SUB PUSH1 0x0 DUP4 ADD MSTORE PUSH2 0x2B3F DUP2 PUSH2 0x2B03 JUMP JUMPDEST SWAP1 POP SWAP2 SWAP1 POP JUMP JUMPDEST PUSH32 0x4E65656420746F6B656E7320746F2063726561746520706F6F6C2E0000000000 PUSH1 0x0 DUP3 ADD MSTORE POP JUMP JUMPDEST PUSH1 0x0 PUSH2 0x2B7C PUSH1 0x1B DUP4 PUSH2 0x21BD JUMP JUMPDEST SWAP2 POP PUSH2 0x2B87 DUP3 PUSH2 0x2B46 JUMP JUMPDEST PUSH1 0x20 DUP3 ADD SWAP1 POP SWAP2 SWAP1 POP JUMP JUMPDEST PUSH1 0x0 PUSH1 0x20 DUP3 ADD SWAP1 POP DUP2 DUP2 SUB PUSH1 0x0 DUP4 ADD MSTORE PUSH2 0x2BAB DUP2 PUSH2 0x2B6F JUMP JUMPDEST SWAP1 POP SWAP2 SWAP1 POP JUMP JUMPDEST PUSH1 0x0 PUSH1 0x60 DUP3 ADD SWAP1 POP PUSH2 0x2BC7 PUSH1 0x0 DUP4 ADD DUP7 PUSH2 0x20F7 JUMP JUMPDEST PUSH2 0x2BD4 PUSH1 0x20 DUP4 ADD DUP6 PUSH2 0x20F7 JUMP JUMPDEST PUSH2 0x2BE1 PUSH1 0x40 DUP4 ADD DUP5 PUSH2 0x2121 JUMP JUMPDEST SWAP5 SWAP4 POP POP POP POP JUMP JUMPDEST PUSH32 0x496E76616C69642045544820616D6F756E740000000000000000000000000000 PUSH1 0x0 DUP3 ADD MSTORE POP JUMP JUMPDEST PUSH1 0x0 PUSH2 0x2C1F PUSH1 0x12 DUP4 PUSH2 0x21BD JUMP JUMPDEST SWAP2 POP PUSH2 0x2C2A DUP3 PUSH2 0x2BE9 JUMP JUMPDEST PUSH1 0x20 DUP3 ADD SWAP1 POP SWAP2 SWAP1 POP JUMP JUMPDEST PUSH1 0x0 PUSH1 0x20 DUP3 ADD SWAP1 POP DUP2 DUP2 SUB PUSH1 0x0 DUP4 ADD MSTORE PUSH2 0x2C4E DUP2 PUSH2 0x2C12 JUMP JUMPDEST SWAP1 POP SWAP2 SWAP1 POP JUMP JUMPDEST PUSH32 0x506F6F6C206973206E6F74206578697374000000000000000000000000000000 PUSH1 0x0 DUP3 ADD MSTORE POP JUMP JUMPDEST PUSH1 0x0 PUSH2 0x2C8B PUSH1 0x11 DUP4 PUSH2 0x21BD JUMP JUMPDEST SWAP2 POP PUSH2 0x2C96 DUP3 PUSH2 0x2C55 JUMP JUMPDEST PUSH1 0x20 DUP3 ADD SWAP1 POP SWAP2 SWAP1 POP JUMP JUMPDEST PUSH1 0x0 PUSH1 0x20 DUP3 ADD SWAP1 POP DUP2 DUP2 SUB PUSH1 0x0 DUP4 ADD MSTORE PUSH2 0x2CBA DUP2 PUSH2 0x2C7E JUMP JUMPDEST SWAP1 POP SWAP2 SWAP1 POP JUMP JUMPDEST PUSH32 0x455448206973206E6F742073656E740000000000000000000000000000000000 PUSH1 0x0 DUP3 ADD MSTORE POP JUMP JUMPDEST PUSH1 0x0 PUSH2 0x2CF7 PUSH1 0xF DUP4 PUSH2 0x21BD JUMP JUMPDEST SWAP2 POP PUSH2 0x2D02 DUP3 PUSH2 0x2CC1 JUMP JUMPDEST PUSH1 0x20 DUP3 ADD SWAP1 POP SWAP2 SWAP1 POP JUMP JUMPDEST PUSH1 0x0 PUSH1 0x20 DUP3 ADD SWAP1 POP DUP2 DUP2 SUB PUSH1 0x0 DUP4 ADD MSTORE PUSH2 0x2D26 DUP2 PUSH2 0x2CEA JUMP JUMPDEST SWAP1 POP SWAP2 SWAP1 POP JUMP JUMPDEST PUSH32 0x496E76616C696420746F6B656E20616D6F756E74000000000000000000000000 PUSH1 0x0 DUP3 ADD MSTORE POP JUMP JUMPDEST PUSH1 0x0 PUSH2 0x2D63 PUSH1 0x14 DUP4 PUSH2 0x21BD JUMP JUMPDEST SWAP2 POP PUSH2 0x2D6E DUP3 PUSH2 0x2D2D JUMP JUMPDEST PUSH1 0x20 DUP3 ADD SWAP1 POP SWAP2 SWAP1 POP JUMP JUMPDEST PUSH1 0x0 PUSH1 0x20 DUP3 ADD SWAP1 POP DUP2 DUP2 SUB PUSH1 0x0 DUP4 ADD MSTORE PUSH2 0x2D92 DUP2 PUSH2 0x2D56 JUMP JUMPDEST SWAP1 POP SWAP2 SWAP1 POP JUMP JUMPDEST PUSH32 0x53656E64657220686173206E6F7420656E6F75676820746F6B656E7300000000 PUSH1 0x0 DUP3 ADD MSTORE POP JUMP JUMPDEST PUSH1 0x0 PUSH2 0x2DCF PUSH1 0x1C DUP4 PUSH2 0x21BD JUMP JUMPDEST SWAP2 POP PUSH2 0x2DDA DUP3 PUSH2 0x2D99 JUMP JUMPDEST PUSH1 0x20 DUP3 ADD SWAP1 POP SWAP2 SWAP1 POP JUMP JUMPDEST PUSH1 0x0 PUSH1 0x20 DUP3 ADD SWAP1 POP DUP2 DUP2 SUB PUSH1 0x0 DUP4 ADD MSTORE PUSH2 0x2DFE DUP2 PUSH2 0x2DC2 JUMP JUMPDEST SWAP1 POP SWAP2 SWAP1 POP JUMP JUMPDEST PUSH32 0x496E73756666696369656E7420746F6B656E2062616C616E6365000000000000 PUSH1 0x0 DUP3 ADD MSTORE POP JUMP JUMPDEST PUSH1 0x0 PUSH2 0x2E3B PUSH1 0x1A DUP4 PUSH2 0x21BD JUMP JUMPDEST SWAP2 POP PUSH2 0x2E46 DUP3 PUSH2 0x2E05 JUMP JUMPDEST PUSH1 0x20 DUP3 ADD SWAP1 POP SWAP2 SWAP1 POP JUMP JUMPDEST PUSH1 0x0 PUSH1 0x20 DUP3 ADD SWAP1 POP DUP2 DUP2 SUB PUSH1 0x0 DUP4 ADD MSTORE PUSH2 0x2E6A DUP2 PUSH2 0x2E2E JUMP JUMPDEST SWAP1 POP SWAP2 SWAP1 POP JUMP JUMPDEST PUSH32 0x4F776E61626C653A206E6577206F776E657220697320746865207A65726F2061 PUSH1 0x0 DUP3 ADD MSTORE PUSH32 0x6464726573730000000000000000000000000000000000000000000000000000 PUSH1 0x20 DUP3 ADD MSTORE POP JUMP JUMPDEST PUSH1 0x0 PUSH2 0x2ECD PUSH1 0x26 DUP4 PUSH2 0x21BD JUMP JUMPDEST SWAP2 POP PUSH2 0x2ED8 DUP3 PUSH2 0x2E71 JUMP JUMPDEST PUSH1 0x40 DUP3 ADD SWAP1 POP SWAP2 SWAP1 POP JUMP JUMPDEST PUSH1 0x0 PUSH1 0x20 DUP3 ADD SWAP1 POP DUP2 DUP2 SUB PUSH1 0x0 DUP4 ADD MSTORE PUSH2 0x2EFC DUP2 PUSH2 0x2EC0 JUMP JUMPDEST SWAP1 POP SWAP2 SWAP1 POP JUMP JUMPDEST PUSH32 0x4E487B7100000000000000000000000000000000000000000000000000000000 PUSH1 0x0 MSTORE PUSH1 0x22 PUSH1 0x4 MSTORE PUSH1 0x24 PUSH1 0x0 REVERT JUMPDEST PUSH1 0x0 PUSH1 0x2 DUP3 DIV SWAP1 POP PUSH1 0x1 DUP3 AND DUP1 PUSH2 0x2F4A JUMPI PUSH1 0x7F DUP3 AND SWAP2 POP JUMPDEST PUSH1 0x20 DUP3 LT DUP2 SUB PUSH2 0x2F5D JUMPI PUSH2 0x2F5C PUSH2 0x2F03 JUMP JUMPDEST JUMPDEST POP SWAP2 SWAP1 POP JUMP JUMPDEST PUSH32 0x73706563696669656420696E646578206973206C6172676572207468616E2074 PUSH1 0x0 DUP3 ADD MSTORE PUSH32 0x6865206E756D626572206F66206C707300000000000000000000000000000000 PUSH1 0x20 DUP3 ADD MSTORE POP JUMP JUMPDEST PUSH1 0x0 PUSH2 0x2FBF PUSH1 0x30 DUP4 PUSH2 0x21BD JUMP JUMPDEST SWAP2 POP PUSH2 0x2FCA DUP3 PUSH2 0x2F63 JUMP JUMPDEST PUSH1 0x40 DUP3 ADD SWAP1 POP SWAP2 SWAP1 POP JUMP JUMPDEST PUSH1 0x0 PUSH1 0x20 DUP3 ADD SWAP1 POP DUP2 DUP2 SUB PUSH1 0x0 DUP4 ADD MSTORE PUSH2 0x2FEE DUP2 PUSH2 0x2FB2 JUMP JUMPDEST SWAP1 POP SWAP2 SWAP1 POP JUMP JUMPDEST PUSH32 0x4E487B7100000000000000000000000000000000000000000000000000000000 PUSH1 0x0 MSTORE PUSH1 0x31 PUSH1 0x4 MSTORE PUSH1 0x24 PUSH1 0x0 REVERT JUMPDEST PUSH32 0x4F776E61626C653A2063616C6C6572206973206E6F7420746865206F776E6572 PUSH1 0x0 DUP3 ADD MSTORE POP JUMP JUMPDEST PUSH1 0x0 PUSH2 0x305A PUSH1 0x20 DUP4 PUSH2 0x21BD JUMP JUMPDEST SWAP2 POP PUSH2 0x3065 DUP3 PUSH2 0x3024 JUMP JUMPDEST PUSH1 0x20 DUP3 ADD SWAP1 POP SWAP2 SWAP1 POP JUMP JUMPDEST PUSH1 0x0 PUSH1 0x20 DUP3 ADD SWAP1 POP DUP2 DUP2 SUB PUSH1 0x0 DUP4 ADD MSTORE PUSH2 0x3089 DUP2 PUSH2 0x304D JUMP JUMPDEST SWAP1 POP SWAP2 SWAP1 POP JUMP INVALID LOG2 PUSH5 0x6970667358 0x22 SLT KECCAK256 0x4B 0xBF 0xA6 PUSH27 0x5527488F99B4488669BA8580C15FC46B00BE55DA33E750591A0A3D 0x5D PUSH5 0x736F6C6343 STOP ADDMOD GT STOP CALLER "},"methodIdentifiers":{"addLiquidity(uint256,uint256)":"9cd441da","createPool(uint256)":"8259e6a0","exchange_name()":"f694f7d1","getSwapFee()":"d4cadf68","owner()":"8da5cb5b","removeAllLiquidity(uint256,uint256)":"58ad6de4","removeLiquidity(uint256,uint256,uint256)":"857620e1","renounceOwnership()":"715018a6","swapETHForTokens(uint256)":"2eab2841","swapTokensForETH(uint256,uint256)":"a22280a6","token()":"fc0c546a","transferOwnership(address)":"f2fde38b"}}}}}