{
  "_format": "hh-sol-artifact-1",
  "contractName": "Token",
  "sourceName": "contracts/token.sol",
  "abi": [
    {
      "inputs": [],
      "stateMutability": "nonpayable",
      "type": "constructor"
    },
    {
      "anonymous": false,
      "inputs": [
        {
          "indexed": true,
          "internalType": "address",
          "name": "owner",
          "type": "address"
        },
        {
          "indexed": true,
          "internalType": "address",
          "name": "spender",
          "type": "address"
        },
        {
          "indexed": false,
          "internalType": "uint256",
          "name": "value",
          "type": "uint256"
        }
      ],
      "name": "Approval",
      "type": "event"
    },
    {
      "anonymous": false,
      "inputs": [
        {
          "indexed": true,
          "internalType": "address",
          "name": "previousOwner",
          "type": "address"
        },
        {
          "indexed": true,
          "internalType": "address",
          "name": "newOwner",
          "type": "address"
        }
      ],
      "name": "OwnershipTransferred",
      "type": "event"
    },
    {
      "anonymous": false,
      "inputs": [
        {
          "indexed": true,
          "internalType": "address",
          "name": "from",
          "type": "address"
        },
        {
          "indexed": true,
          "internalType": "address",
          "name": "to",
          "type": "address"
        },
        {
          "indexed": false,
          "internalType": "uint256",
          "name": "value",
          "type": "uint256"
        }
      ],
      "name": "Transfer",
      "type": "event"
    },
    {
      "inputs": [
        {
          "internalType": "address",
          "name": "owner",
          "type": "address"
        },
        {
          "internalType": "address",
          "name": "spender",
          "type": "address"
        }
      ],
      "name": "allowance",
      "outputs": [
        {
          "internalType": "uint256",
          "name": "",
          "type": "uint256"
        }
      ],
      "stateMutability": "view",
      "type": "function"
    },
    {
      "inputs": [
        {
          "internalType": "address",
          "name": "spender",
          "type": "address"
        },
        {
          "internalType": "uint256",
          "name": "amount",
          "type": "uint256"
        }
      ],
      "name": "approve",
      "outputs": [
        {
          "internalType": "bool",
          "name": "",
          "type": "bool"
        }
      ],
      "stateMutability": "nonpayable",
      "type": "function"
    },
    {
      "inputs": [
        {
          "internalType": "address",
          "name": "account",
          "type": "address"
        }
      ],
      "name": "balanceOf",
      "outputs": [
        {
          "internalType": "uint256",
          "name": "",
          "type": "uint256"
        }
      ],
      "stateMutability": "view",
      "type": "function"
    },
    {
      "inputs": [],
      "name": "decimals",
      "outputs": [
        {
          "internalType": "uint8",
          "name": "",
          "type": "uint8"
        }
      ],
      "stateMutability": "view",
      "type": "function"
    },
    {
      "inputs": [
        {
          "internalType": "address",
          "name": "spender",
          "type": "address"
        },
        {
          "internalType": "uint256",
          "name": "subtractedValue",
          "type": "uint256"
        }
      ],
      "name": "decreaseAllowance",
      "outputs": [
        {
          "internalType": "bool",
          "name": "",
          "type": "bool"
        }
      ],
      "stateMutability": "nonpayable",
      "type": "function"
    },
    {
      "inputs": [],
      "name": "disable_mint",
      "outputs": [],
      "stateMutability": "nonpayable",
      "type": "function"
    },
    {
      "inputs": [
        {
          "internalType": "address",
          "name": "spender",
          "type": "address"
        },
        {
          "internalType": "uint256",
          "name": "addedValue",
          "type": "uint256"
        }
      ],
      "name": "increaseAllowance",
      "outputs": [
        {
          "internalType": "bool",
          "name": "",
          "type": "bool"
        }
      ],
      "stateMutability": "nonpayable",
      "type": "function"
    },
    {
      "inputs": [
        {
          "internalType": "uint256",
          "name": "amount",
          "type": "uint256"
        }
      ],
      "name": "mint",
      "outputs": [],
      "stateMutability": "nonpayable",
      "type": "function"
    },
    {
      "inputs": [],
      "name": "name",
      "outputs": [
        {
          "internalType": "string",
          "name": "",
          "type": "string"
        }
      ],
      "stateMutability": "view",
      "type": "function"
    },
    {
      "inputs": [],
      "name": "owner",
      "outputs": [
        {
          "internalType": "address",
          "name": "",
          "type": "address"
        }
      ],
      "stateMutability": "view",
      "type": "function"
    },
    {
      "inputs": [],
      "name": "renounceOwnership",
      "outputs": [],
      "stateMutability": "nonpayable",
      "type": "function"
    },
    {
      "inputs": [],
      "name": "symbol",
      "outputs": [
        {
          "internalType": "string",
          "name": "",
          "type": "string"
        }
      ],
      "stateMutability": "view",
      "type": "function"
    },
    {
      "inputs": [],
      "name": "totalSupply",
      "outputs": [
        {
          "internalType": "uint256",
          "name": "",
          "type": "uint256"
        }
      ],
      "stateMutability": "view",
      "type": "function"
    },
    {
      "inputs": [
        {
          "internalType": "address",
          "name": "to",
          "type": "address"
        },
        {
          "internalType": "uint256",
          "name": "amount",
          "type": "uint256"
        }
      ],
      "name": "transfer",
      "outputs": [
        {
          "internalType": "bool",
          "name": "",
          "type": "bool"
        }
      ],
      "stateMutability": "nonpayable",
      "type": "function"
    },
    {
      "inputs": [
        {
          "internalType": "address",
          "name": "from",
          "type": "address"
        },
        {
          "internalType": "address",
          "name": "to",
          "type": "address"
        },
        {
          "internalType": "uint256",
          "name": "amount",
          "type": "uint256"
        }
      ],
      "name": "transferFrom",
      "outputs": [
        {
          "internalType": "bool",
          "name": "",
          "type": "bool"
        }
      ],
      "stateMutability": "nonpayable",
      "type": "function"
    },
    {
      "inputs": [
        {
          "internalType": "address",
          "name": "newOwner",
          "type": "address"
        }
      ],
      "name": "transferOwnership",
      "outputs": [],
      "stateMutability": "nonpayable",
      "type": "function"
    }
  ],
  "bytecode": "0x60806040526001600660006101000a81548160ff0219169083151502179055503480156200002c57600080fd5b506040518060400160405280600881526020017f536f66696c69616e0000000000000000000000000000000000000000000000008152506040518060400160405280600381526020017f4d49520000000000000000000000000000000000000000000000000000000000815250620000b9620000ad620000e560201b60201c565b620000ed60201b60201c565b8160049081620000ca91906200042b565b508060059081620000dc91906200042b565b50505062000512565b600033905090565b60008060009054906101000a900473ffffffffffffffffffffffffffffffffffffffff169050816000806101000a81548173ffffffffffffffffffffffffffffffffffffffff021916908373ffffffffffffffffffffffffffffffffffffffff1602179055508173ffffffffffffffffffffffffffffffffffffffff168173ffffffffffffffffffffffffffffffffffffffff167f8be0079c531659141344cd1fd0a4f28419497f9722a3daafe3b4186f6b6457e060405160405180910390a35050565b600081519050919050565b7f4e487b7100000000000000000000000000000000000000000000000000000000600052604160045260246000fd5b7f4e487b7100000000000000000000000000000000000000000000000000000000600052602260045260246000fd5b600060028204905060018216806200023357607f821691505b602082108103620002495762000248620001eb565b5b50919050565b60008190508160005260206000209050919050565b60006020601f8301049050919050565b600082821b905092915050565b600060088302620002b37fffffffffffffffffffffffffffffffffffffffffffffffffffffffffffffffff8262000274565b620002bf868362000274565b95508019841693508086168417925050509392505050565b6000819050919050565b6000819050919050565b60006200030c620003066200030084620002d7565b620002e1565b620002d7565b9050919050565b6000819050919050565b6200032883620002eb565b62000340620003378262000313565b84845462000281565b825550505050565b600090565b6200035762000348565b620003648184846200031d565b505050565b5b818110156200038c57620003806000826200034d565b6001810190506200036a565b5050565b601f821115620003db57620003a5816200024f565b620003b08462000264565b81016020851015620003c0578190505b620003d8620003cf8562000264565b83018262000369565b50505b505050565b600082821c905092915050565b60006200040060001984600802620003e0565b1980831691505092915050565b60006200041b8383620003ed565b9150826002028217905092915050565b6200043682620001b1565b67ffffffffffffffff811115620004525762000451620001bc565b5b6200045e82546200021a565b6200046b82828562000390565b600060209050601f831160018114620004a357600084156200048e578287015190505b6200049a85826200040d565b8655506200050a565b601f198416620004b3866200024f565b60005b82811015620004dd57848901518255600182019150602085019450602081019050620004b6565b86831015620004fd5784890151620004f9601f891682620003ed565b8355505b6001600288020188555050505b505050505050565b6119b280620005226000396000f3fe608060405234801561001057600080fd5b50600436106101005760003560e01c80638da5cb5b11610097578063a8b7818d11610066578063a8b7818d146102b1578063a9059cbb146102bb578063dd62ed3e146102eb578063f2fde38b1461031b57610100565b80638da5cb5b1461022957806395d89b4114610247578063a0712d6814610265578063a457c2d71461028157610100565b8063313ce567116100d3578063313ce567146101a157806339509351146101bf57806370a08231146101ef578063715018a61461021f57610100565b806306fdde0314610105578063095ea7b31461012357806318160ddd1461015357806323b872dd14610171575b600080fd5b61010d610337565b60405161011a9190610ff6565b60405180910390f35b61013d600480360381019061013891906110b1565b6103c9565b60405161014a919061110c565b60405180910390f35b61015b6103ec565b6040516101689190611136565b60405180910390f35b61018b60048036038101906101869190611151565b6103f6565b604051610198919061110c565b60405180910390f35b6101a9610425565b6040516101b691906111c0565b60405180910390f35b6101d960048036038101906101d491906110b1565b61042e565b6040516101e6919061110c565b60405180910390f35b610209600480360381019061020491906111db565b610465565b6040516102169190611136565b60405180910390f35b6102276104ae565b005b6102316104c2565b60405161023e9190611217565b60405180910390f35b61024f6104eb565b60405161025c9190610ff6565b60405180910390f35b61027f600480360381019061027a9190611232565b61057d565b005b61029b600480360381019061029691906110b1565b610624565b6040516102a8919061110c565b60405180910390f35b6102b961069b565b005b6102d560048036038101906102d091906110b1565b6106c0565b6040516102e2919061110c565b60405180910390f35b6103056004803603810190610300919061125f565b6106e3565b6040516103129190611136565b60405180910390f35b610335600480360381019061033091906111db565b61076a565b005b606060048054610346906112ce565b80601f0160208091040260200160405190810160405280929190818152602001828054610372906112ce565b80156103bf5780601f10610394576101008083540402835291602001916103bf565b820191906000526020600020905b8154815290600101906020018083116103a257829003601f168201915b5050505050905090565b6000806103d46107ed565b90506103e18185856107f5565b600191505092915050565b6000600354905090565b6000806104016107ed565b905061040e8582856109be565b610419858585610a4a565b60019150509392505050565b60006012905090565b6000806104396107ed565b905061045a81858561044b85896106e3565b610455919061132e565b6107f5565b600191505092915050565b6000600160008373ffffffffffffffffffffffffffffffffffffffff1673ffffffffffffffffffffffffffffffffffffffff168152602001908152602001600020549050919050565b6104b6610cc3565b6104c06000610d41565b565b60008060009054906101000a900473ffffffffffffffffffffffffffffffffffffffff16905090565b6060600580546104fa906112ce565b80601f0160208091040260200160405190810160405280929190818152602001828054610526906112ce565b80156105735780601f1061054857610100808354040283529160200191610573565b820191906000526020600020905b81548152906001019060200180831161055657829003601f168201915b5050505050905090565b610585610cc3565b600660009054906101000a900460ff166105d4576040517f08c379a00000000000000000000000000000000000000000000000000000000081526004016105cb906113ae565b60405180910390fd5b60008111610617576040517f08c379a000000000000000000000000000000000000000000000000000000000815260040161060e9061141a565b60405180910390fd5b6106213382610e05565b50565b60008061062f6107ed565b9050600061063d82866106e3565b905083811015610682576040517f08c379a0000000000000000000000000000000000000000000000000000000008152600401610679906114ac565b60405180910390fd5b61068f82868684036107f5565b60019250505092915050565b6106a3610cc3565b6000600660006101000a81548160ff021916908315150217905550565b6000806106cb6107ed565b90506106d8818585610a4a565b600191505092915050565b6000600260008473ffffffffffffffffffffffffffffffffffffffff1673ffffffffffffffffffffffffffffffffffffffff16815260200190815260200160002060008373ffffffffffffffffffffffffffffffffffffffff1673ffffffffffffffffffffffffffffffffffffffff16815260200190815260200160002054905092915050565b610772610cc3565b600073ffffffffffffffffffffffffffffffffffffffff168173ffffffffffffffffffffffffffffffffffffffff16036107e1576040517f08c379a00000000000000000000000000000000000000000000000000000000081526004016107d89061153e565b60405180910390fd5b6107ea81610d41565b50565b600033905090565b600073ffffffffffffffffffffffffffffffffffffffff168373ffffffffffffffffffffffffffffffffffffffff1603610864576040517f08c379a000000000000000000000000000000000000000000000000000000000815260040161085b906115d0565b60405180910390fd5b600073ffffffffffffffffffffffffffffffffffffffff168273ffffffffffffffffffffffffffffffffffffffff16036108d3576040517f08c379a00000000000000000000000000000000000000000000000000000000081526004016108ca90611662565b60405180910390fd5b80600260008573ffffffffffffffffffffffffffffffffffffffff1673ffffffffffffffffffffffffffffffffffffffff16815260200190815260200160002060008473ffffffffffffffffffffffffffffffffffffffff1673ffffffffffffffffffffffffffffffffffffffff168152602001908152602001600020819055508173ffffffffffffffffffffffffffffffffffffffff168373ffffffffffffffffffffffffffffffffffffffff167f8c5be1e5ebec7d5bd14f71427d1e84f3dd0314c0f7b2291e5b200ac8c7c3b925836040516109b19190611136565b60405180910390a3505050565b60006109ca84846106e3565b90507fffffffffffffffffffffffffffffffffffffffffffffffffffffffffffffffff8114610a445781811015610a36576040517f08c379a0000000000000000000000000000000000000000000000000000000008152600401610a2d906116ce565b60405180910390fd5b610a4384848484036107f5565b5b50505050565b600073ffffffffffffffffffffffffffffffffffffffff168373ffffffffffffffffffffffffffffffffffffffff1603610ab9576040517f08c379a0000000000000000000000000000000000000000000000000000000008152600401610ab090611760565b60405180910390fd5b600073ffffffffffffffffffffffffffffffffffffffff168273ffffffffffffffffffffffffffffffffffffffff1603610b28576040517f08c379a0000000000000000000000000000000000000000000000000000000008152600401610b1f906117f2565b60405180910390fd5b610b33838383610f5c565b6000600160008573ffffffffffffffffffffffffffffffffffffffff1673ffffffffffffffffffffffffffffffffffffffff16815260200190815260200160002054905081811015610bba576040517f08c379a0000000000000000000000000000000000000000000000000000000008152600401610bb190611884565b60405180910390fd5b818103600160008673ffffffffffffffffffffffffffffffffffffffff1673ffffffffffffffffffffffffffffffffffffffff1681526020019081526020016000208190555081600160008573ffffffffffffffffffffffffffffffffffffffff1673ffffffffffffffffffffffffffffffffffffffff168152602001908152602001600020600082825401925050819055508273ffffffffffffffffffffffffffffffffffffffff168473ffffffffffffffffffffffffffffffffffffffff167fddf252ad1be2c89b69c2b068fc378daa952ba7f163c4a11628f55a4df523b3ef84604051610caa9190611136565b60405180910390a3610cbd848484610f61565b50505050565b610ccb6107ed565b73ffffffffffffffffffffffffffffffffffffffff16610ce96104c2565b73ffffffffffffffffffffffffffffffffffffffff1614610d3f576040517f08c379a0000000000000000000000000000000000000000000000000000000008152600401610d36906118f0565b60405180910390fd5b565b60008060009054906101000a900473ffffffffffffffffffffffffffffffffffffffff169050816000806101000a81548173ffffffffffffffffffffffffffffffffffffffff021916908373ffffffffffffffffffffffffffffffffffffffff1602179055508173ffffffffffffffffffffffffffffffffffffffff168173ffffffffffffffffffffffffffffffffffffffff167f8be0079c531659141344cd1fd0a4f28419497f9722a3daafe3b4186f6b6457e060405160405180910390a35050565b600073ffffffffffffffffffffffffffffffffffffffff168273ffffffffffffffffffffffffffffffffffffffff1603610e74576040517f08c379a0000000000000000000000000000000000000000000000000000000008152600401610e6b9061195c565b60405180910390fd5b610e8060008383610f5c565b8060036000828254610e92919061132e565b9250508190555080600160008473ffffffffffffffffffffffffffffffffffffffff1673ffffffffffffffffffffffffffffffffffffffff168152602001908152602001600020600082825401925050819055508173ffffffffffffffffffffffffffffffffffffffff16600073ffffffffffffffffffffffffffffffffffffffff167fddf252ad1be2c89b69c2b068fc378daa952ba7f163c4a11628f55a4df523b3ef83604051610f449190611136565b60405180910390a3610f5860008383610f61565b5050565b505050565b505050565b600081519050919050565b600082825260208201905092915050565b60005b83811015610fa0578082015181840152602081019050610f85565b60008484015250505050565b6000601f19601f8301169050919050565b6000610fc882610f66565b610fd28185610f71565b9350610fe2818560208601610f82565b610feb81610fac565b840191505092915050565b600060208201905081810360008301526110108184610fbd565b905092915050565b600080fd5b600073ffffffffffffffffffffffffffffffffffffffff82169050919050565b60006110488261101d565b9050919050565b6110588161103d565b811461106357600080fd5b50565b6000813590506110758161104f565b92915050565b6000819050919050565b61108e8161107b565b811461109957600080fd5b50565b6000813590506110ab81611085565b92915050565b600080604083850312156110c8576110c7611018565b5b60006110d685828601611066565b92505060206110e78582860161109c565b9150509250929050565b60008115159050919050565b611106816110f1565b82525050565b600060208201905061112160008301846110fd565b92915050565b6111308161107b565b82525050565b600060208201905061114b6000830184611127565b92915050565b60008060006060848603121561116a57611169611018565b5b600061117886828701611066565b935050602061118986828701611066565b925050604061119a8682870161109c565b9150509250925092565b600060ff82169050919050565b6111ba816111a4565b82525050565b60006020820190506111d560008301846111b1565b92915050565b6000602082840312156111f1576111f0611018565b5b60006111ff84828501611066565b91505092915050565b6112118161103d565b82525050565b600060208201905061122c6000830184611208565b92915050565b60006020828403121561124857611247611018565b5b60006112568482850161109c565b91505092915050565b6000806040838503121561127657611275611018565b5b600061128485828601611066565b925050602061129585828601611066565b9150509250929050565b7f4e487b7100000000000000000000000000000000000000000000000000000000600052602260045260246000fd5b600060028204905060018216806112e657607f821691505b6020821081036112f9576112f861129f565b5b50919050565b7f4e487b7100000000000000000000000000000000000000000000000000000000600052601160045260246000fd5b60006113398261107b565b91506113448361107b565b925082820190508082111561135c5761135b6112ff565b5b92915050565b7f4d696e74696e672069732064697361626c656400000000000000000000000000600082015250565b6000611398601383610f71565b91506113a382611362565b602082019050919050565b600060208201905081810360008301526113c78161138b565b9050919050565b7f416d6f756e74206d61732062652067726561746572207468656e203000000000600082015250565b6000611404601c83610f71565b915061140f826113ce565b602082019050919050565b60006020820190508181036000830152611433816113f7565b9050919050565b7f45524332303a2064656372656173656420616c6c6f77616e63652062656c6f7760008201527f207a65726f000000000000000000000000000000000000000000000000000000602082015250565b6000611496602583610f71565b91506114a18261143a565b604082019050919050565b600060208201905081810360008301526114c581611489565b9050919050565b7f4f776e61626c653a206e6577206f776e657220697320746865207a65726f206160008201527f6464726573730000000000000000000000000000000000000000000000000000602082015250565b6000611528602683610f71565b9150611533826114cc565b604082019050919050565b600060208201905081810360008301526115578161151b565b9050919050565b7f45524332303a20617070726f76652066726f6d20746865207a65726f2061646460008201527f7265737300000000000000000000000000000000000000000000000000000000602082015250565b60006115ba602483610f71565b91506115c58261155e565b604082019050919050565b600060208201905081810360008301526115e9816115ad565b9050919050565b7f45524332303a20617070726f766520746f20746865207a65726f20616464726560008201527f7373000000000000000000000000000000000000000000000000000000000000602082015250565b600061164c602283610f71565b9150611657826115f0565b604082019050919050565b6000602082019050818103600083015261167b8161163f565b9050919050565b7f45524332303a20696e73756666696369656e7420616c6c6f77616e6365000000600082015250565b60006116b8601d83610f71565b91506116c382611682565b602082019050919050565b600060208201905081810360008301526116e7816116ab565b9050919050565b7f45524332303a207472616e736665722066726f6d20746865207a65726f20616460008201527f6472657373000000000000000000000000000000000000000000000000000000602082015250565b600061174a602583610f71565b9150611755826116ee565b604082019050919050565b600060208201905081810360008301526117798161173d565b9050919050565b7f45524332303a207472616e7366657220746f20746865207a65726f206164647260008201527f6573730000000000000000000000000000000000000000000000000000000000602082015250565b60006117dc602383610f71565b91506117e782611780565b604082019050919050565b6000602082019050818103600083015261180b816117cf565b9050919050565b7f45524332303a207472616e7366657220616d6f756e742065786365656473206260008201527f616c616e63650000000000000000000000000000000000000000000000000000602082015250565b600061186e602683610f71565b915061187982611812565b604082019050919050565b6000602082019050818103600083015261189d81611861565b9050919050565b7f4f776e61626c653a2063616c6c6572206973206e6f7420746865206f776e6572600082015250565b60006118da602083610f71565b91506118e5826118a4565b602082019050919050565b60006020820190508181036000830152611909816118cd565b9050919050565b7f45524332303a206d696e7420746f20746865207a65726f206164647265737300600082015250565b6000611946601f83610f71565b915061195182611910565b602082019050919050565b6000602082019050818103600083015261197581611939565b905091905056fea2646970667358221220efd5ca598a20f1c670a77a5b7b6adf4907f4dcaa9979cf299d9376ca34eeb84a64736f6c63430008110033",
  "linkReferences": {},
  "deployedLinkReferences": {}
}